:020000040800F2
:100000000000012019680008696800086968000894
:100010006968000869680008696800080000000055
:10002000000000000000000000000000A15B0008CC
:100030006968000800000000415C0008996600083B
:10004000696800086968000869680008696800084C
:10005000696800086968000869680008696800083C
:10006000696800086968000869680008696800082C
:10007000696800086968000869680008696800081C
:1000800069680008A16600086968000869680008D6
:1000900069680008696800086968000869680008FC
:1000A00069680008B16600086968000869680008A6
:1000B000696800080000000000000000C166000838
:1000C000696800080000000000000000696800087E
:1000D0000000000069680008D16600080000000008
:1000E000696800086968000800000000000000005E
:1000F0000000000000000000000000000000000000
:100100000000000000000000000000006968000816
:10011000000000000000000069680008696800082D
:10012000696800086968000869680008696800086B
:1001300069680008000000000000000000000000E6
:10014000696800086968000869680008696800084B
:10015000696800086968000869680008696800083B
:100160006968000869680008696800080000000004
:1001700069680008696800080000000000000000CD
:1001800069680008696800086968000800000000E4
:1001900010B5054C237833B9044B13B10448AFF3C1
:1001A00000800123237010BD080100200000000022
:1001B000707500080C4B43B10C480D4910B5AFF3F6
:1001C00000800C48036823B910BD0A48036833B99E
:1001D0007047094B002BF7D0BDE810401847064B7D
:1001E000002BF5D0184700BF000000007075000814
:1001F0000C010020080100200000000081F00041F7
:1002000002E000BF83F0004330B54FEA41044FEAFB
:10021000430594EA050F08BF90EA020F1FBF54EA96
:10022000000C55EA020C7FEA645C7FEA655C00F032
:10023000E2804FEA5454D4EB5555B8BF6D420CDD03
:100240002C4480EA020281EA030382EA000083EA86
:10025000010180EA020281EA0303362D88BF30BD26
:1002600011F0004F4FEA01314FF4801C4CEA11317C
:1002700002D0404261EB410113F0004F4FEA0333DB
:100280004CEA133302D0524263EB430394EA050F66
:1002900000F0A780A4F10104D5F1200E0DDB02FAD5
:1002A0000EFC22FA05F2801841F1000103FA0EF269
:1002B000801843FA05F359410EE0A5F120050EF12F
:1002C000200E012A03FA0EFC28BF4CF0020C43FA60
:1002D00005F3C01851EBE37101F0004507D54FF06D
:1002E000000EDCF1000C7EEB00006EEB0101B1F5BD
:1002F000801F1BD3B1F5001F0CD349085FEA300003
:100300004FEA3C0C04F101044FEA445212F5800F0D
:1003100080F09A80BCF1004F08BF5FEA500C50F1AA
:10032000000041EB045141EA050130BD5FEA4C0C8D
:10033000404141EB010111F4801FA4F10104E9D116
:1003400091F0000F04BF01460020B1FA81F308BF0D
:100350002033A3F10B03B3F120020CDA0C3208DDD9
:1003600002F1140CC2F10C0201FA0CF021FA02F1B4
:100370000CE002F11402D8BFC2F1200C01FA02F124
:1003800020FA0CFCDCBF41EA0C019040E41AA2BF49
:1003900001EB0451294330BD6FEA04041F3C1CDA11
:1003A0000C340EDC04F11404C4F1200220FA04F031
:1003B00001FA02F340EA030021FA04F345EA0301DB
:1003C00030BDC4F10C04C4F1200220FA02F001FA9D
:1003D00004F340EA0300294630BD21FA04F029461F
:1003E00030BD94F0000F83F4801306BF81F48011B8
:1003F0000134013D4EE77FEA645C18BF7FEA655C2B
:1004000029D094EA050F08BF90EA020F05D054EAFC
:10041000000C04BF1946104630BD91EA030F1EBF01
:100420000021002030BD5FEA545C05D14000494105
:1004300028BF41F0004130BD14F580043CBF01F5F8
:10044000801130BD01F0004545F0FE4141F47001DE
:100450004FF0000030BD7FEA645C1ABF19461046B9
:100460007FEA655C1CBF0B46024650EA013406BFBA
:1004700052EA033591EA030F41F4002130BD00BF79
:1004800090F0000F04BF0021704730B54FF4806436
:1004900004F132044FF000054FF0000150E700BFB7
:1004A00090F0000F04BF0021704730B54FF4806416
:1004B00004F1320410F0004548BF40424FF0000103
:1004C0003EE700BF42004FEAE2014FEA31014FEA46
:1004D00002701FBF12F07F4393F07F4F81F0605195
:1004E000704792F0000F14BF93F07F4F704730B504
:1004F0004FF4607401F0004521F0004120E700BF97
:1005000050EA010208BF704730B54FF000050AE01D
:1005100050EA010208BF704730B511F0004502D51E
:10052000404261EB41014FF4806404F132045FEA20
:10053000915C3FF4DCAE4FF003025FEADC0C18BFC5
:1005400003325FEADC0C18BF033202EBDC02C2F1BB
:10055000200300FA03FC20FA02F001FA03FE40EA4D
:100560000E0021FA02F11444C1E600BF70B54FF04D
:10057000FF0C4CF4E06C1CEA11541DBF1CEA13552F
:1005800094EA0C0F95EA0C0F00F0DEF82C4481EA97
:10059000030621EA4C5123EA4C5350EA013518BFB7
:1005A00052EA033541F4801143F4801338D0A0FBA4
:1005B00002CE4FF00005E1FB02E506F00042E0FB51
:1005C00003E54FF00006E1FB03569CF0000F18BF57
:1005D0004EF0010EA4F1FF04B6F5007F64F54074FF
:1005E00004D25FEA4E0E6D4146EB060642EAC62192
:1005F00041EA55514FEAC52040EA5E504FEACE2EFF
:10060000B4F1FD0C88BFBCF5E06F1ED8BEF1004F01
:1006100008BF5FEA500E50F1000041EB045170BD7D
:1006200006F0004646EA010140EA020081EA0301C1
:10063000B4EB5C04C2BFD4EB0C0541EA045170BDBD
:1006400041F480114FF0000E013C00F3AB8014F137
:10065000360FDEBF002001F0004170BDC4F1000480
:10066000203C35DA0C341BDC04F11404C4F1200501
:1006700000FA05F320FA04F001FA05F240EA02005C
:1006800001F0004221F0004110EBD37021FA04F692
:1006900042EB06015EEA430E08BF20EAD37070BD4C
:1006A000C4F10C04C4F1200500FA04F320FA05F0AB
:1006B00001FA04F240EA020001F0004110EBD370AD
:1006C00041F100015EEA430E08BF20EAD37070BD1D
:1006D000C4F1200500FA05F24EEA020E20FA04F3F6
:1006E00001FA05F243EA020321FA04F001F00041A5
:1006F00021FA04F220EA020000EBD3705EEA430E16
:1007000008BF20EAD37070BD94F0000F0FD101F044
:100710000046400041EB010111F4801F08BF013C7D
:10072000F7D041EA060195F0000F18BF704703F0BB
:100730000046520043EB030313F4801F08BF013D42
:10074000F7D043EA0603704794EA0C0F0CEA1355FE
:1007500018BF95EA0C0F0CD050EA410618BF52EAB8
:100760004306D1D181EA030101F000414FF00000BE
:1007700070BD50EA410606BF1046194652EA4306CC
:1007800019D094EA0C0F02D150EA013613D195EA40
:100790000C0F05D152EA03361CBF104619460AD188
:1007A00081EA030101F0004141F0FE4141F4700192
:1007B0004FF0000070BD41F0FE4141F4780170BD82
:1007C00070B54FF0FF0C4CF4E06C1CEA11541DBFE7
:1007D0001CEA135594EA0C0F95EA0C0F00F0A7F8E9
:1007E000A4EB050481EA030E52EA03354FEA013116
:1007F00000F088804FEA03334FF0805545EA131329
:1008000043EA12634FEA022245EA111545EA1065F0
:100810004FEA00260EF000419D4208BF964244F187
:10082000FD0404F5407402D25B084FEA3202B61AA6
:1008300065EB03055B084FEA32024FF480104FF47A
:10084000002CB6EB020E75EB030E22BFB61A7546EE
:1008500040EA0C005B084FEA3202B6EB020E75EB81
:10086000030E22BFB61A754640EA5C005B084FEAE9
:100870003202B6EB020E75EB030E22BFB61A7546B6
:1008800040EA9C005B084FEA3202B6EB020E75EBC1
:10089000030E22BFB61A754640EADC0055EA060E82
:1008A00018D04FEA051545EA16754FEA06164FEAC5
:1008B000C30343EA52734FEAC2025FEA1C1CC0D171
:1008C00011F4801F0BD141EA00014FF000004FF0FE
:1008D000004CB6E711F4801F04BF01430020B4F1BF
:1008E000FD0C88BFBCF5E06F3FF6AFAEB5EB030C77
:1008F00004BFB6EB020C5FEA500C50F1000041EB74
:10090000045170BD0EF0004E4EEA113114EB5C0440
:10091000C2BFD4EB0C0541EA045170BD41F4801113
:100920004FF0000E013C90E645EA060E8DE60CEA1B
:10093000135594EA0C0F08BF95EA0C0F3FF43BAF38
:1009400094EA0C0F0AD150EA01347FF434AF95EAEF
:100950000C0F7FF425AF104619462CE795EA0C0FD3
:1009600006D152EA03353FF4FDAE1046194622E7A0
:1009700050EA410618BF52EA43067FF4C5AE50EA7A
:1009800041047FF40DAF52EA43057FF4EBAE12E76A
:100990004FF0FF3C06E000BF4FF0010C02E000BF4B
:1009A0004FF0010C4DF804CD4FEA410C7FEA6C5C2E
:1009B0004FEA430C18BF7FEA6C5C1BD001B050EAD1
:1009C000410C0CBF52EA430C91EA030F02BF90EABC
:1009D000020F0020704710F1000F91EA030F58BF7B
:1009E000994208BF90422CBFD8176FEAE37040F0DD
:1009F000010070474FEA410C7FEA6C5C02D150EA7B
:100A0000013C07D14FEA430C7FEA6C5CD6D152EA35
:100A1000033CD3D05DF8040B704700BF84461046FA
:100A200062468C461946634600E000BF01B5FFF7F9
:100A3000B7FF002848BF10F1000F01BD4DF808EDC9
:100A4000FFF7F4FF0CBF012000205DF808FB00BF9A
:100A50004DF808EDFFF7EAFF34BF012000205DF8F4
:100A600008FB00BF4DF808EDFFF7E0FF94BF012041
:100A700000205DF808FB00BF4DF808EDFFF7CEFF42
:100A800094BF012000205DF808FB00BF4DF808ED81
:100A9000FFF7C4FF34BF012000205DF808FB00BF52
:100AA0004FEA410C7FEA6C5C02D150EA013C0AD16A
:100AB0004FEA430C7FEA6C5C02D152EA033C02D15C
:100AC0004FF0000070474FF0010070474FEA4102BD
:100AD000B2F1E04324BFB3F5001CDCF1FE5C0DD99C
:100AE00001F0004C4FEAC0024CEA5070B2F1004FE6
:100AF00040EB830008BF20F00100704711F0804FE9
:100B000021D113F13872BCBF01F00040704741F4AD
:100B100080114FEA5252C2F11802C2F1200C10FAB1
:100B20000CF320FA02F018BF40F001004FEAC12395
:100B30004FEAD32303FA0CFC40EA0C0023FA02F339
:100B40004FEA4303CCE77FEA625307D150EA01330F
:100B50001EBF4FF0FE4040F44000704701F00040DF
:100B600040F0FE4040F40000704700BF53B94AB95E
:100B7000002908BF00281CBF4FF0FF314FF0FF30A5
:100B800000F07AB9ADF1080C6DE904CE00F006F87A
:100B9000DDF804E0DDE9022304B070472DE9F047F9
:100BA0008C460D460446089E002B51D18A421746BA
:100BB0006DD9B2FA82FEBEF1000F0BD0CEF1200C3F
:100BC00001FA0EF520FA0CFC02FA0EF74CEA050CBD
:100BD00000FA0EF44FEA174A250CBCFBFAF81FFA8C
:100BE00087F90AFB18CC45EA0C4508FB09F3AB4230
:100BF0000AD9ED1908F1FF3280F02381AB4240F2AF
:100C00002081A8F102083D44ED1AA4B2B5FBFAF028
:100C10000AFB105544EA054400FB09F9A14509D92E
:100C2000E41900F1FF3380F00A81A14540F2078109
:100C300002383C44A4EB090440EA08400021002E9D
:100C400061D024FA0EF4002334607360BDE8F087AD
:100C50008B4207D9002E54D0002186E82100084697
:100C6000BDE8F087B3FA83F1002940F08E80AB42F3
:100C700002D3824200F2FA80841A65EB0305012058
:100C8000AC46002E3FD086E81010BDE8F08712B9C0
:100C90000127B7FBF2F7B7FA87FEBEF1000F34D198
:100CA000EB1B3A0C1FFA87FC0121B3FBF2F8250C71
:100CB00002FB183345EA03450CFB08F3AB4207D9A6
:100CC000ED1908F1FF3002D2AB4200F2D18080462C
:100CD000ED1AA3B2B5FBF2F002FB105543EA05444E
:100CE0000CFB00FCA44507D9E41900F1FF3302D244
:100CF000A44500F2B8801846A4EB0C0440EA084072
:100D00009DE731463046BDE8F087CEF1200405FA74
:100D10000EF307FA0EF720FA04F83A0C25FA04F459
:100D200048EA0308B4FBF2F14FEA184502FB11440C
:100D30001FFA87FC45EA044501FB0CF3AB4200FABD
:100D40000EF409D9ED1901F1FF3080F08A80AB4231
:100D500040F2878002393D44EB1A1FFA88F5B3FB55
:100D6000F2F002FB103345EA034500FB0CF3AB4203
:100D700007D9ED1900F1FF386FD2AB426DD90238B7
:100D80003D44EB1A40EA01418FE7C1F1200722FA06
:100D900007F88B4005FA01F448EA030320FA07FE3E
:100DA0004FEA134CFD404EEA040EB5FBFCF94FEA46
:100DB0001E440CFB19551FFA83F844EA054509FB4C
:100DC00008F4AC4202FA01F200FA01FA08D9ED186F
:100DD00009F1FF3043D2AC4241D9A9F102091D44C7
:100DE0002D1B1FFA8EFEB5FBFCF00CFB10554EEAD6
:100DF000054400FB08F8A04507D9E41800F1FF35C9
:100E000029D2A04527D902381C4440EA0940A4EB66
:100E10000804A0FB02894C45C6464D4615D312D0A6
:100E200056B1BAEB0E0364EB050404FA07F7CB40A6
:100E30001F43CC40376074600021BDE8F08718463E
:100E4000F8E69046E0E6C245EAD2B8EB020E69EB5E
:100E500003050138E4E72846D7E7404691E7814695
:100E6000BEE7014678E702383C4445E7084608E714
:100E7000A8F102083D442BE7704700BF38B504468F
:100E80000D4600F01FFB2946204600F0B3FD002070
:100E900038BD0000064B8363064BC363064B0364F7
:100EA000064BC362064B0363064B4363704700BFA8
:100EB00058F6DABE6749EBBE8F2513BDFA80EA3FCC
:100EC0001BA6B9C0BA0B7EBF00B583B0006906236C
:100ED0000193009201230A46D02101F099F903B051
:100EE0005DF804FB10B586B006AC04F8012D00696E
:100EF0000A2302930123019300940A46D02100F0B3
:100F0000E2FF06B010BD10B504460D222421FFF704
:100F1000E9FF00221C212046FFF7E4FF00221B21ED
:100F20002046FFF7DFFF00226B212046FFF7DAFFA4
:100F300000226C212046FFF7D5FF0422192120460C
:100F4000FFF7D0FF402323720023A363E3632364EE
:100F5000E3622363636310BD00B587B000694FF49B
:100F60007A730293012301930DF1170200920A464E
:100F7000D02101F079F89DF8170007B05DF804FB67
:100F800038B504460D461A21FFF7E6FF20F00702A8
:100F900052B22A43D2B21A212046FFF7A3FF38BD2E
:100FA0002DE9F04387B007460E46514CD4F8008037
:100FB000D8F80020136823F0010313601123029373
:100FC0000025039503230493A3890DF1180949F81B
:100FD000143D4946206900F049FCA3880193494625
:100FE000A06800F043FC1CE0414B012299889868FE
:100FF00000F007FD19E001231A46A188A068FFF759
:101000003DFF20E03A4C0022A188A06800F0F9FCE6
:1010100001230022A188A068FFF730FF15E0013509
:10102000EDB2BD4236D2002EDED1314C0122A18973
:10103000206900F0E6FC01231A46A1892069FFF728
:101040001DFF002ED7D1002EDCD1294C0022A18912
:10105000206900F0D6FC01230022A1892069FFF756
:101060000DFF0122A189206900F0CBFC01231A4663
:10107000A1892069FFF702FF002ED0D00122A188AC
:10108000A06800F0BEFC01231A46A188A068FFF703
:10109000F5FEC4E71223029304230593144CA3899D
:1010A00006AD45F8143D2946206900F0DFFBA38812
:1010B00001932946A06800F0D9FBD8F800201368F6
:1010C00043F40053136000BFD8F80020136823F4E2
:1010D0000053136000BFD8F80020136843F00103E9
:1010E000136000BF404600F08DFE07B0BDE8F083FE
:1010F0000000002000000000D0B52DED048B84B06E
:10110000044602AA3B21FFF7DFFE002840F0A4803E
:10111000022301AA2021002004F014FC012840F041
:101120009780019B13F0200FF2D09DF808301B022E
:101130001BB29DF80920134309EE103A9DF80A30BE
:101140001B021BB29DF80B20134308EE903A9DF84A
:101150000C301B021BB29DF80D20134308EE103A11
:10116000B8EEC99A9FED427A29EE079ADFED417AEF
:1011700029EE279AD4ED0E6A39EE669AF1EE496AA5
:10118000C4ED086AF8EEE88A68EE878A68EEA78AF6
:10119000D4ED0F6A78EEE68AF1EE688AC4ED098A2A
:1011A000B8EEC88A28EE078A28EE278AD4ED107A8E
:1011B00038EE678AB1EE488A84ED0A8A18EE100A82
:1011C000FFF780F906460F4618EE900AFFF77AF906
:1011D00047EC116B41EC100B05F0BEFD0022264BD5
:1011E00051EC100BFFF7C2F91FA3D3E90023FFF75F
:1011F000E7FAFFF76BFC606468EEA88A28EE088ABD
:1012000078EE887A17EE900AFFF75CF941EC100B44
:1012100005F0A4FDB0EE408AF0EE608A19EE100AE7
:10122000FFF750F9B0EE481AF0EE681A41EC100BD7
:1012300005F092FD0022104B51EC100BFFF796F9D0
:1012400009A3D3E90023FFF7BBFAFFF73FFCA06433
:1012500004B0BDEC048BD0BD01210846FFF7A0FE11
:10126000F6E700BFAFF30080182D4454FB2109407E
:10127000C3F51C41000080380080664010B584B082
:10128000044602AA4321FFF71FFE002848D102238B
:1012900001AA2021002004F055FB01283ED1019B2A
:1012A00013F0200FF3D09DF808301B021BB29DF8FD
:1012B0000920134307EE103A9DF80A301B021BB2B7
:1012C0009DF80B20134307EE903A9DF80C301B025B
:1012D0001BB29DF80D201343B8EEC77ADFED136AF9
:1012E00087EE266A94ED0B7A36EE477A84ED057A1E
:1012F000F8EEE77A87EEA67AD4ED0C7A77EE677A85
:10130000C4ED067A07EE903AF8EEE77A87EEA67A11
:10131000D4ED0D7A77EE677AC4ED077A04B010BD8C
:1013200001210846FFF73CFEF8E700BF0000034339
:1013300010B50446582200210C3006F010F90023A5
:10134000636610BD10B582B004460123009300F11E
:101350000C03044A152105F089FA2046FFF7E8FF3F
:1013600002B010BD1400002010B504463022002148
:101370000C3006F0F4F80023E36310BD10B582B022
:1013800004460123009300F10C03044A0B2105F0ED
:101390006DFA2046FFF7E8FF02B010BD680000209C
:1013A00010B50C4C2046FFF7CDFF04F16800FFF7A5
:1013B000C9FF04F1D000FFF7C5FF04F59C70FFF7EB
:1013C000DDFF04F5BC70FFF7D9FF04F5DC70FFF713
:1013D000D5FF10BD2401002030B585B00546836AD5
:1013E00004A941F8043D134C012304F59A7204F159
:1013F000D00005F04DFAD4F83431AB626B6A04A921
:1014000041F8083D012304F1CC0204F1680005F025
:101410003FFAD4F8CC306B622B6A04A941F80C3D3A
:10142000012304F16402204605F032FA636E2B6258
:1014300005B030BD2401002030B585B00546C36934
:1014400004A941F8043D144C012304F5FA7204F593
:10145000DC7005F01DFAD4F8F431EB61AB6904A936
:1014600041F8083D012304F5DA7204F5BC7005F07B
:101470000FFAD4F8B431AB616B6904A941F80C3DA3
:10148000012304F5BA7204F59C7005F001FAD4F852
:1014900074316B6105B030BD2401002008B5032014
:1014A00000F016F8002005F0BBF805F071F80020F8
:1014B00008BD0000024A136801331360704700BF83
:1014C00070180020014B1868704700BF701800208A
:1014D000074AD36823F4E0631B041B0C000200F4EA
:1014E000E060184340F0BF6040F40030D0607047C7
:1014F00000ED00E030B4164BDB68C3F30223C3F108
:101500000704042C28BF04241D1D062D17D9033BF6
:10151000012505FA04F4013C2140994005FA03F342
:10152000013B1340194300280BDB0901C9B200F14C
:10153000604000F5614080F8001330BC7047002324
:10154000E6E700F00F000901C9B2024B1954F4E7B5
:1015500000ED00E014ED00E0420900F01F0001235F
:1015600003FA00F0014B43F82200704700E100E06D
:101570000138B0F1807F0AD2064B5860F021064A4C
:1015800082F823100020986007221A60704701201B
:10159000704700BF10E000E000ED00E0042805D037
:1015A000054A136823F0040313607047024A136866
:1015B00043F004031360704710E000E070B4066C61
:1015C000446C04F01C050124AC4074600468636042
:1015D0008368102B05D0036899600368DA6070BCDB
:1015E000704703689A600368D960F8E7002869D0FB
:1015F00010B403460168344A914245D8334A0A443C
:101600003349A1FB0212120992004264314A02647A
:10161000022283F825201868016821F4FF4121F097
:1016200070019A68DC6822431C6922435C6922438A
:101630009C692243DC6922431C6A22430A430260FC
:101640009A68B2F5804F15D0196C224A914226D083
:10165000214A1168586C00F01C040F20A04021EAB8
:1016600000011160116858685C6C04F01C04A04013
:10167000014311600020D863012283F8252083F8FC
:1016800024005DF8044B7047144A0A441049A1FB3A
:101690000212120992004264114A0264B8E7A832A9
:1016A0001168586C00F01C040F20A04021EA0001D2
:1016B0001160116858685C6C04F01C04A040014380
:1016C0001160D7E70120704707040240F8FFFDBF13
:1016D000CDCCCCCC00000240A8040240F8FBFDBFFA
:1016E0000004024038B590F82440012C33D0012486
:1016F00080F8244090F82540E4B2012C04D0002367
:1017000080F82430022038BD0446022084F82500E9
:101710000020E0632568286820F00100286020464A
:10172000FFF74CFF236B5BB12268136843F00E0395
:1017300013602268136843F001031360002038BD72
:101740002268136823F0040313602268136843F0CF
:101750000A031360EDE7022038BD08B590F8253084
:10176000DBB2022B03D00423C363012008BD02684F
:10177000136823F00E0313600268136823F001035B
:101780001360016C436C03F01C03012202FA03F3A3
:101790004B6080F82520002380F82430836B13B140
:1017A0009847002008BD002008BD38B5036C1968B3
:1017B00004682568436C03F01C0304229A4011421C
:1017C00016D015F0040F13D0236813F0200F03D1A7
:1017D000236823F004032360016C436C03F01C02B4
:1017E000042393404B60036B002B3ED0984738BDD9
:1017F00002229A4011421BD015F0020F18D0236824
:1018000013F0200F06D1236823F00A03236001237D
:1018100080F82530016C436C03F01C0202239340D6
:101820004B60002380F82430C36AF3B1984738BD79
:10183000082202FA03F3194217D015F0080F14D04A
:10184000236823F00E032360016C436C03F01C0338
:10185000012202FA03F34B60C26380F825200023C3
:1018600080F82430436B03B1984738BDF0B583B09E
:10187000002384E0DE08083650F8264003F0070E07
:101880004FEA8E0E0F2707FA0EF724EA07040F69B6
:1018900007FA0EF73C4340F826407FE08668264072
:1018A000CF6807FA0EF73E438660466826EA0505CC
:1018B0004E68C6F300169E4035434560C5682C400F
:1018C0008D6805FA0EF52C43C4604C6814F0805FF7
:1018D00054D0444C256E45F001052566246E04F075
:1018E00001040194019C9D08AE1C3F4C54F8264015
:1018F00003F00306B6000F27B74024EA0704B0F14F
:10190000904F68D0394FB84267D007F58067B8422A
:101910005FD0072707FA06F634430235324E46F801
:101920002540334C2568D44305EA04064F6817F474
:10193000803F01D042EA05062D4D2E606D6804EA15
:1019400005064F6817F4003F01D042EA0506284D0E
:101950006E60AD6804EA05064F6817F4801F01D079
:1019600042EA0506224DAE60ED682C404E6816F442
:10197000001F01D042EA05041D4AD46001330A6801
:1019800032FA03F42BD001259D402A40F6D04C6852
:10199000022C3FF46FAF122C3FF46CAF06684FEA95
:1019A000430E032404FA0EF4E44326404F6807F084
:1019B000030707FA0EF73E4306604E68771E012FB5
:1019C0007FF66CAF112E3FF469AF122E7FF476AF25
:1019D00064E702279EE700279CE701279AE703B008
:1019E000F0BD00BF001002400000014000040048AC
:1019F000000401400369194201D100207047012011
:101A000070470AB9816270478161704703689A69BB
:101A100012F0020F01D000229A6203689A6912F054
:101A2000010F03D19A6942F001029A61704770B4C4
:101A3000039D066870686C0D04F4806444F07F7444
:101A400044F4583444F47F7444F0030420EA04005E
:101A5000C1F3090141EA0241194329430843706077
:101A600070BC7047436B1D4A934219D01C4A934285
:101A700016D011F0040F2CD1002311F0010F01D06A
:101A800043F0F20311F0020F01D043F0F40301F030
:101A9000120112291FD0026811680B4313607047AE
:101AA00011F0040F0DD1002301F01102112A0AD008
:101AB00001F01201122909D01229ECD143F04003A0
:101AC000E9E7B823F0E743F09003F1E743F02003A0
:101AD000F2E7B823D1E743F02003DCE7972B0008B7
:101AE0005328000811F0010F09D090F8413003F09D
:101AF0002803282B01D0F22302E0422300E0002338
:101B000011F0020F2CD010B443F0440490F841209F
:101B100002F02802282A18D043F0F40311F0040F31
:101B200001D043F0B80301F01102112A0FD001F0E7
:101B3000120112290ED012290FD001680A6822EA78
:101B400003030B605DF8044B70472346E6E743F060
:101B50009003ECE743F02003EDE743F04003ECE7AC
:101B600011F0040F01D043F0B80301F01102112A63
:101B70000BD001F0120112290AD012290BD00168F2
:101B80000A6822EA03030B60704743F09003F0E712
:101B900043F02003F1E743F04003F0E770B504465B
:101BA0000D46164603689B6913F0100F1CD023687E
:101BB0009A6912F0200F19D1B5F1FF3FF7D0FFF766
:101BC00081FC801B854201D3002DF0D1636C43F072
:101BD00020036364202384F84130002384F84230DA
:101BE00084F84030012070BD002070BD1022DA6101
:101BF00023682025DD612046FFF708FF226853682F
:101C000023F0FF7323F48B3323F4FF7323F00103DA
:101C10005360636C43F00403636484F84150002311
:101C200084F8423084F84030012070BD70B504461D
:101C30000D46164623689B6913F0020F1DD13246EC
:101C400029462046FFF7AAFFC8B9B5F1FF3FF1D0FA
:101C5000FFF738FC801B854201D3002DEAD1636C6D
:101C600043F020036364202384F84130002384F888
:101C7000423084F84030012070BD002070BD01204A
:101C800070BDF8B505460F4616461C462B689B6985
:101C900037EA03030CBF01230023B34218D1B4F188
:101CA000FF3FF3D0FFF70EFC069BC01A844201D31E
:101CB000002CEBD16B6C43F020036B64202385F880
:101CC0004130002385F8423085F840300120F8BDCE
:101CD0000020F8BD70B582B0044615461E46184B6C
:101CE00000934FF08073F2B2FFF7A1FE079A0699B6
:101CF0002046FFF79BFFE8B9012E0CD023682A0A83
:101D00009A62079A06992046FFF790FFB0B92368B8
:101D1000EDB29D6202E02368EDB29D62079B0093E5
:101D2000069B002280212046FFF7ABFF034610B13F
:101D3000012300E00123184602B070BD0123FAE739
:101D40000020008070B582B0044615461E46184B30
:101D500000930023F2B2FFF76AFE079A0699204625
:101D6000FFF764FFE8B9012E0CD023682A0A9A62B3
:101D7000079A06992046FFF759FFB0B92368EDB2DC
:101D80009D6202E02368EDB29D62079B0093069B73
:101D9000002240212046FFF774FF034610B10123C3
:101DA00000E00123184602B070BD0123FAE700BF2E
:101DB0000020008070B505460C4616462B689B69CE
:101DC00013F0200F1AD1324621462846FFF7E6FECF
:101DD000B0B9FFF777FB801B844201D3002CEDD113
:101DE0006B6C43F020036B64202385F841300023A3
:101DF00085F8423085F84030012070BD002070BD6C
:101E0000012070BD10B50446002847D090F841303D
:101E1000002B48D0242384F841302268136823F033
:101E2000010313602268636823F070631361226802
:101E3000936823F400439360E368012B38D0226851
:101E4000A36843F404439360E368022B36D022680E
:101E5000536843F0007343F4004353602268D3682F
:101E600023F40043D3602268236961690B43A169AD
:101E700043EA0123D3602268E369216A0B431360BC
:101E80002268136843F0010313600020606420237C
:101E900084F84130206384F8420010BD4FF4007391
:101EA0004364012010BD80F8403004F0B5FAB1E77A
:101EB0002268A36843F400439360C5E723684FF4A6
:101EC00000625A60C3E72DE9F04782B0BDF82C509C
:101ED00090F84140E4B2202C04D00223184602B00E
:101EE000BDE8F0870A9C34B12DB190F84040012C38
:101EF00006D10223F2E74FF4007343640123EDE7B8
:101F0000984691460E4604464FF0010A80F840A0DC
:101F1000FFF7D8FA07460090192352464FF40041C4
:101F20002046FFF7AEFE08B10123D7E7212384F84E
:101F30004130402384F84230002363640A9A62628D
:101F40006585636301970C9B009343464A4631467F
:101F50002046FFF7BFFE70B9638D9BB2FF2B0FD9F0
:101F6000FF222285002300934FF0807331462046E4
:101F7000FFF75DFD21E0002384F840305346ADE7D4
:101F8000628D92B22285002300934FF00073D2B28B
:101F900031462046FFF74BFD0FE0628D92B222855D
:101FA000002300934FF00073D2B231462046FFF772
:101FB0003EFD638D9BB2002B32D03A460C992046F1
:101FC000FFF734FE002848D12268636A591C616219
:101FD0001B789362638D9BB2013B9BB26385238D1B
:101FE000013B9BB22385628D92B2002AE1D0002B87
:101FF000DFD100970C9B002280212046FFF741FE95
:1020000068BB638D9BB2FF2BC7D9FF2222850023BB
:1020100000934FF0807331462046FFF708FDC8E774
:102020003A460C992046FFF7C5FE0346C8B9226818
:102030002021D1612068426822F0FF7222F48B32A5
:1020400022F4FF7222F00102426084F84110002263
:1020500084F8422084F8402040E701233EE7012332
:102060003CE701233AE700002DE9F04782B0BDF8D4
:102070002C5090F84140E4B2202C04D002231846A2
:1020800002B0BDE8F0870A9C34B12DB190F8404011
:10209000012C06D10223F2E74FF4007343640123BD
:1020A000EDE7984691460E4604464FF0010A80F847
:1020B00040A0FFF707FA07460090192352464FF455
:1020C00000412046FFF7DDFD08B10123D7E72223B9
:1020D00084F84130402384F84230002363640A9A34
:1020E00062626585636301970C9B009343464A4691
:1020F00031462046FFF726FE70B9638D9BB2FF2B59
:102100000FD9FF222285414B00934FF08073314657
:102110002046FFF78CFC21E0002384F84030534632
:10212000ADE7628D92B22285384B00934FF0007379
:10213000D2B231462046FFF77AFC0FE0628D92B2B0
:102140002285002300934FF00073D2B2314620461F
:10215000FFF76DFC638D9BB2002B33D000970C9B77
:10216000002204212046FFF78CFD002847D1636A36
:102170005A1C62622268526A1A70228D013A92B227
:102180002285638D9BB2013B9BB26385638D9BB2BD
:10219000002BDFD0002ADDD100970C9B8021204648
:1021A000FFF76FFD68BB638D9BB2FF2BC6D9FF2283
:1021B0002285002300934FF0807331462046FFF7BD
:1021C00036FCC7E73A460C992046FFF7F3FD034675
:1021D000C8B922682021D1612068426822F0FF72CC
:1021E00022F48B3222F4FF7222F00102426084F862
:1021F0004110002284F8422084F840203FE7012368
:102200003DE701233BE7012339E700BF00240080BD
:102210002DE9F04182B0BDF8245090F84140E4B27D
:10222000202C04D00224204602B0BDE8F081089C96
:102230003CB135B10468A46914F4004F06D00224FF
:10224000F1E74FF4007343640124ECE790F8404059
:10225000012C01D10224E6E71F4614460E468046B3
:10226000012380F84030FFF72DF9222388F8413010
:10227000402388F842300023C8F84430089BC8F84F
:102280002430A8F82A501C4BC8F82C301B4BC8F837
:102290003430B8F82A309BB2FF2B14D9FF23A8F8AA
:1022A00028304FF080750190192300933B46224659
:1022B00031464046FFF746FD044658B1002388F8F2
:1022C00040300124AFE7B8F82A30A8F828304FF0A2
:1022D0000075E8E798F82820094B00932B46314613
:1022E0004046FFF7A4FB002388F840300221404617
:1022F000FFF7B8FB97E700BF0000FFFF1F2A0008A9
:102300000024008008B5036899691A68436B03B11B
:10231000984708BD7047704738B50446002380F8D9
:10232000423090F84130DBB2212B0FD0202380F8CF
:10233000413012230363002545630221FFF7D2FBDE
:1023400084F840502046FFF7E6FF38BD202380F890
:10235000413011230363002545630121FFF7C2FBD0
:1023600084F840502046FFF7D5FF38BD70477047CE
:1023700010B50446002380F8423090F84130DBB2BB
:10238000292B05D090F84130DBB22A2B0FD010BD9D
:10239000282380F84130212303630121FFF7A2FBAA
:1023A000002384F840302046FFF7E0FF10BD2823CB
:1023B00080F84130222303630221FFF793FB0023BF
:1023C00084F840302046FFF7D2FFE0E77047F8B5C9
:1023D00090F8413003F02803282B06D00368082228
:1023E000DA61002380F84030F8BD044603689E6936
:1023F000C6F300469A69120C02F0FE059A68C2F311
:102400000902DF6807F0FE07C168022921D185EAC9
:10241000D21515F0060F10D1816C01318164816CE9
:102420000229E1D1002181640820D86184F840109C
:1024300031462046FFF7CAFFF8BD0421FFF752FBE3
:10244000002384F840303A4631462046FFF7BEFF6D
:10245000F8BD0421FFF746FB002384F840302A46EC
:1024600031462046FFF7B2FFF8BD704710B504466D
:10247000164BC36200230363202280F8412080F8BA
:102480004230436311F0040F12D0436A5A1C426277
:102490000268526A1A70038D53B1013B0385438D64
:1024A0009BB2013B9BB24385436C43F004034364FE
:1024B00007212046FFF716FB23681022DA6100236C
:1024C00084F840302046FFF7D0FF10BD0000FFFF2A
:1024D000704770477047000010B50446002380F82D
:1024E00042303B4AC2624385436C1943416490F8D1
:1024F0004130DBB2282B18D090F84130DBB2292BC9
:1025000013D090F84130DBB22A2B0ED00721FFF711
:10251000E9FA94F84130DBB2602B02D0202384F832
:1025200041300023236363630AE003212046FFF761
:10253000D9FA282384F8413000232363254B6363B1
:1025400023681A6812F4804F13D01A6822F480426C
:102550001A60A36B43B1204A9A63002384F8403089
:10256000A06BFFF7FAF800B910BDA06B836B98471A
:1025700010BD1A6812F4004F14D01A6822F40042F9
:102580001A60E36B002BEFD0134A9A63002384F8A0
:102590004030E06BFFF7E1F80028E5D0E06B836B9B
:1025A000984710BD94F84130DBB2602B06D0002371
:1025B00084F840302046FFF78CFFD5E7202384F8CD
:1025C0004130002384F840302046FFF783FF10BDE0
:1025D0000000FFFF05270008DB2C000838B5044683
:1025E0000D4603682022DA6103680822DA610721B8
:1025F000FFF778FA2268536843F400435360226877
:10260000536823F0FF7323F48B3323F4FF7323F019
:10261000010353602046FFF7F9F923681A6812F4A2
:10262000804F03D11A6812F4004F0BD0E26B002ADE
:102630003AD0196811F4804F3AD0A26B12685268F0
:1026400092B2628515F0040F0DD0626A511C61626E
:102650005B6A1370238D33B1013B2385638D9BB27D
:10266000013B9BB26385638D9BB21BB1636C43F0EE
:10267000040363640023236384F842306363636C60
:10268000D3B9E36A13F5803F24D194F84130DBB22B
:10269000222B2BD0202384F84130002384F84030B3
:1026A0002046FFF763FE38BDA16B0029C1D1C9E701
:1026B0001268526892B2C4E7616C2046FFF70CFFC3
:1026C00094F84130DBB2282BEDD129462046FFF7A4
:1026D000CDFE38BD0A4BE362202384F8413000234D
:1026E00084F840302046FFF7C0FE38BD202384F830
:1026F0004130002384F840302046FFF738FE38BDD3
:102700000000FFFF90F84030012B00F0A08070B572
:1027100016460D460446012380F8403011F0100F94
:102720003FD012F0100F3CD0438D9BB243BBC36A25
:10273000B3F1007F10D0C36AB3F1007F0CD0E36A1D
:1027400013F5803F04D094F84130DBB2292B0DD033
:1027500023681022DA611AE094F84130DBB2282BAA
:10276000EDD129462046FFF781FE10E023681022B4
:10277000DA612046FFF74AF92046FFF7F9FD06E047
:1027800003681022DA61436C43F00403436415F0DC
:10279000200F02D016F0200F54D1002084F8400002
:1027A00070BD15F0040F1FD016F0040F1CD0638D00
:1027B0009BB26BB1636A5A1C62622268526A1A70D9
:1027C000238D013B2385638D9BB2013B9BB26385C7
:1027D000638D9BB2002BDAD1E36A13F5803FD6D02C
:1027E0002046FFF7C5FDD2E715F0080F02D016F01E
:1027F000080F17D115F0020FC9D016F0020FC6D07E
:10280000638D9BB29BB12268636A591C61621B781D
:102810009362638D9BB2013B9BB26385238D013B29
:102820002385B4E729462046FFF7D1FDAFE7E36AE9
:10283000B3F1807F02D0E36A002BA8D12046FFF7D6
:1028400097FDA4E729462046FFF7C8FEA5E702202A
:10285000704790F84030012B6DD010B5044601232D
:1028600080F8403011F0100F4DD012F0100F4AD008
:1028700003681A6812F4804F03D11A6812F4004FEB
:102880003ED0E26B72B1186810F4804F0ED0A26B8C
:102890001268526872B11022DA61636C43F004036B
:1028A00063643CE0A06B0028EDD1F4E71268526845
:1028B000002AF0D1E26AB2F1007F0FD0E26AB2F1F1
:1028C000007F0BD0E26A12F5803F04D094F84120DB
:1028D000D2B2292A0BD01022DA6120E094F84120EC
:1028E000D2B2282AEED12046FFF7C0FD17E0102211
:1028F000DA612046FFF78AF82046FFF739FD0EE03F
:102900001022DA610BE011F0080F02D012F0080F6C
:1029100009D111F0200F02D012F0200F07D10020B2
:1029200084F8400010BD2046FFF751FDF7E7204630
:10293000FFF754FEF3E70220704710B50446036822
:102940002022DA610268536823F0FF7323F48B338B
:1029500023F4FF7323F001035360002303634363F5
:10296000A3F58033C36211F0100F06D00368102264
:10297000DA61436C43F0040343642046FFF746F8F2
:1029800003212046FFF7AEF8636C7BB994F8413021
:10299000DBB2602B0AD094F84130DBB2212B0AD095
:1029A00094F84130DBB2222B1FD010BD616C204661
:1029B000FFF792FD10BD202384F8413094F8423097
:1029C000DBB2402B08D0002384F8423084F840303A
:1029D0002046FFF79FFC10BD002384F8423084F8A6
:1029E00040302046FFF774FD10BD202384F84130AD
:1029F00094F84230DBB2402B08D0002384F84230F8
:102A000084F840302046FFF786FCCEE7002384F8A8
:102A1000423084F84030204603F052FC10BD90F85C
:102A20004030012B00F0B58070B582B016460D46DF
:102A30000446012380F8403011F0100F02D012F04C
:102A4000100F1FD115F0040F26D016F0040F23D05D
:102A5000636A5A1C62622268526A1A70238D013BB3
:102A60002385638D9BB2013B9BB2638515F0200FDC
:102A700003D016F0200F40F08780002084F840003B
:102A800002B070BD03681022DA61436C43F00403A6
:102A90004364FEF7BBFFE9E715F0020F11D016F013
:102AA000020F0ED02268636A591C61621B78936220
:102AB000238D013B2385638D9BB2013B9BB26385D4
:102AC000D4E715F0800F3FD016F0400F3CD0638D57
:102AD0009BB25BB3238D4BBB23685968C1F30901DB
:102AE000638D9BB2FF2B0ED8628D92B22285E36A72
:102AF00013F5803F11D0E36A00200090D2B2204647
:102B0000FEF795FFB2E7FF222285002300934FF0E6
:102B100080732046FEF78BFFA8E7002300934FF059
:102B20000073D2B22046FEF782FF9FE723685B68FE
:102B300013F0007F03D12046FFF7EEFB96E740211C
:102B40002046FFF7C9FC91E715F0400F8ED016F034
:102B5000400F8BD0638D9BB28BB923685A6812F0FB
:102B6000007F83D1E26A12F5803F03D02046FFF751
:102B7000D3FB7BE75A6842F480425A6076E74021F3
:102B80002046FFF7A9FC71E729462046FFF7D5FE4E
:102B900073E70220704790F84030012B00F09B80D3
:102BA00010B582B00446012380F8403011F0100FB8
:102BB00002D012F0100F32D111F0800F5CD012F061
:102BC000400F59D02268136823F040031360638DCF
:102BD0009BB2002B42D023685968C1F30901638D71
:102BE0009BB2FF2B29D9FF2323854FF0807394F8E4
:102BF0002820002000902046FEF719FF638D9BB22D
:102C0000228D9B1A9BB2638594F84130DBB2222B54
:102C10001ED02268136843F48043136052E00368B7
:102C20001022DA61436C43F0040343641221FEF77F
:102C300019FF2046FEF7EAFE44E0638D2385E36A30
:102C400013F5803F01D0E36AD1E74FF00073CEE780
:102C50002268136843F40043136033E023685B6821
:102C600013F0007F03D12046FFF756FB2AE04021F6
:102C70002046FFF731FC25E011F0400F1CD012F088
:102C8000400F19D0638D9BB28BB923685A6812F03C
:102C9000007F17D1E26A12F5803F03D02046FFF78C
:102CA0003BFB0FE05A6842F480425A600AE0402140
:102CB0002046FFF711FC05E011F0200F02D012F0C2
:102CC000200F04D1002084F8400002B010BD20463F
:102CD000FFF733FEF6E70220704708B5806A026806
:102CE000536843F400435360826B00239363C26BC9
:102CF000936390F84130DBB2602B02D0FFF7E9FB21
:102D000008BD202380F84130FFF7E4FB08BD90F8B0
:102D10004130DBB2202B01D00220704790F84030C8
:102D2000012B20D0012380F84030242380F841304B
:102D30000268136823F0010313600268136823F428
:102D400080531360026813681943116002681368A6
:102D500043F001031360202380F84130002380F802
:102D60004030184670470220704790F84130DBB27F
:102D7000202B01D00220704790F84030012B1ED04C
:102D8000012380F84030242380F841300268136822
:102D900023F0010313600268136823F4706343EAAD
:102DA000012111600268136843F0010313602023BE
:102DB00080F84130002380F84030184670470220E8
:102DC00070470000024A136843F480731360704731
:102DD00000700040024B186800F4C060704700BFEC
:102DE00000700040B0F5007F0FD0204B1B6803F44B
:102DF000C063B3F5806F37D01C4A136823F4C063F7
:102E000043F48063136000207047184B1B6803F481
:102E1000C063B3F5007F23D0144A136823F4C06362
:102E200043F400731360124B1B6802F1467202F503
:102E30005B3202F28322A2FB03239A0C322303FBB0
:102E400002F300E0013B23B1084A526912F4806F9B
:102E5000F8D1064B5B6913F4806F03D003207047F1
:102E6000002070470020704700207047007000402D
:102E70009800002030B583B00546204B9B6D13F0C1
:102E8000805F0BD0FFF7A6FFB0F5007F17D0802D35
:102E90001FD82DD0702D2DD000211BE0174CA36D15
:102EA00043F08053A365A36D03F080530193019B0E
:102EB000FFF790FFA36D23F08053A365E4E7802D17
:102EC00003D9A02D03D9022104E0002102E0012151
:102ED00000E003210A4A136823F007030B43136041
:102EE000136803F00703994206D0012003B030BDF8
:102EF0000221EFE70121EDE70020F7E70010024093
:102F0000002002403B4B9B6813F00C0F1AD0394B4A
:102F10009B6803F00C030C2B0ED0364B9B6803F020
:102F20000C03042B2FD0334B9B6803F00C03082BAE
:102F30002CD00020014618E02E4BDB6803F0030381
:102F4000012BEAD12B4B1B6813F0080F14D1294B2E
:102F5000D3F89430C3F30323274A52F82310254BA8
:102F60009B6813F00C0F0CD00020224A936803F0EA
:102F70000C030C2B0DD070471E4B1B68C3F30313BF
:102F8000EAE70846F1E71D480021EEE71C4800216A
:102F9000EBE71346D26802F00302DB68C3F30213C7
:102FA0000133022A0AD0032A1AD0B1FBF3F3114AE3
:102FB000D068C0F3062000FB03F008E00F48B0FB28
:102FC000F3F30C4AD068C0F3062000FB03F0094B72
:102FD000DB68C3F3416301335B00B0FBF3F0CAE786
:102FE0000748B0FBF3F3034AD068C0F3062000FBA8
:102FF00003F0ECE700100240EC7500080024F40038
:1030000000127A00002800F0D78270B582B0044622
:10301000036813F0100F3FD0974B9B6813F00C0F11
:1030200040F09280944B1B6813F0020F03D0836929
:10303000002B00F0C382206A8F4B1B6813F0080F2F
:1030400062D08D4B1B6803F0F003834263D2FFF71D
:1030500011FF002840F0B482874B1A6842F0080242
:103060001A601A6822F0F002216A0A431A605A684C
:1030700022F47F42E16942EA01225A60FFF742FFEF
:103080007D4B9B68C3F303137C4AD35CD8407C4BD5
:103090001860002003F0C4FA236813F0010F00F059
:1030A000A180754B9B6803F00C03082B00F0918006
:1030B000714B9B6803F00C030C2B00F0838063685A
:1030C000B3F5803F00F0B580B3F5A02F00F0B780D6
:1030D000694B1A6822F480321A601A6822F480223E
:1030E0001A606368002B00F0B780FEF7EBF9054625
:1030F000614B1B6813F4003F74D1FEF7E3F9401BEA
:103100006428F5D9032062E25B4BD3F894301B09A5
:1031100003F0F00399E7584B1A6842F008021A606E
:103120001A6822F0F002216A0A431A605A6822F4EF
:103130007F42E16942EA01225A60206AFFF79AFE63
:1031400000289BD0012042E2836933B34A4A1368C6
:1031500043F001031360FEF7B5F90546464B1B68C3
:1031600013F0020F06D1FEF7ADF9401B0228F5D986
:1031700003202CE2404B1A6842F008021A601A68D9
:1031800022F0F002216A0A431A605A6822F47F4250
:10319000E16942EA01225A607EE7374A136823F068
:1031A00001031360FEF78EF90546334B1B6813F0DD
:1031B000020F3FF471AFFEF785F9401B0228F4D9E6
:1031C000032004E22C4BDB6803F00303032B7FF4A2
:1031D00076AF294B1B6813F4003F03D06368002BC4
:1031E00000F0F081236813F0020F62D0224B9B683D
:1031F00003F00C03042B4BD01F4B9B6803F00C0314
:103200000C2B3FD0E368002B79D01B4A136843F4A2
:1032100080731360FEF756F90546174B1B6813F4CD
:10322000806F63D1FEF74EF9401B0228F5D90320C9
:10323000CDE1114A136843F48033136051E703F181
:103240008043A3F53C331A6842F480221A601A685E
:1032500042F480321A6044E7FEF734F90546064B23
:103260001B6813F4003FBDD0FEF72CF9401B642807
:10327000F5D90320ABE100BF001002401C76000826
:1032800098000020B14BDB6803F00303022BB9D197
:10329000AE4B1B6813F4806F03D0E368002B00F083
:1032A0009381AA4A536823F0F853216943EA0163E2
:1032B0005360236813F0080F4CD063699BB3A34A93
:1032C000D2F8943043F00103C2F89430FEF7FAF8D4
:1032D00005469E4BD3F8943013F0020F3AD1FEF717
:1032E000F1F8401B0228F4D9032070E1974A536893
:1032F00023F0F853216943EA01635360D9E7934A05
:10330000136823F480731360FEF7DCF805468F4BD7
:103310001B6813F4806FCCD0FEF7D4F8401B022852
:10332000F5D9032053E1894AD2F8943023F0010300
:10333000C2F89430FEF7C6F80546844BD3F89430B3
:1033400013F0020F06D0FEF7BDF8401B0228F4D997
:1033500003203CE1236813F0040F7AD07B4B9B6D74
:1033600013F0805F36D1794B9A6D42F080529A65A6
:103370009B6D03F080530193019B0125744B1B68E7
:1033800013F4807F28D0A368012B39D0052B3FD0C0
:103390006E4BD3F8902022F00102C3F89020D3F8AE
:1033A000902022F00402C3F89020A368002B3DD0A7
:1033B000FEF788F80646654BD3F8903013F0020FFD
:1033C00046D1FEF77FF8801B41F288339842F2D94C
:1033D0000320FCE00025D1E75D4A136843F48073C5
:1033E0001360FEF76FF80646594B1B6813F4807F95
:1033F000C9D1FEF767F8801B0228F5D90320E6E063
:10340000524AD2F8903043F00103C2F89030CCE732
:103410004E4BD3F8902042F00402C3F89020D3F82A
:10342000902042F00102C3F89020BEE7FEF74AF870
:103430000646464BD3F8903013F0020F08D0FEF743
:1034400041F8801B41F288339842F2D90320BEE054
:10345000E5B9236813F0200F35D0636AE3B13B4A26
:10346000D2F8983043F00103C2F89830FEF72AF8FA
:103470000546364BD3F8983013F0020F23D1FEF7F0
:1034800021F8401B0228F4D90320A0E02F4A936DB5
:1034900023F080539365DCE72C4AD2F8983023F070
:1034A0000103C2F89830FEF70DF80546274BD3F814
:1034B000983013F0020F06D0FEF704F8401B0228E4
:1034C000F4D9032083E0A36A002B7FD01F4A9268BF
:1034D00002F00C020C2A7CD0022B23D01B4B1A6862
:1034E00022F080721A601B6813F0006F04D1174A33
:1034F000D36823F00303D360144AD36823F088739E
:1035000023F48033D360FDF7DDFF04460F4B1B68C7
:1035100013F0007F4ED0FDF7D5FF001B0228F5D930
:10352000032054E0094A136823F080731360FDF709
:10353000C9FF0546054B1B6813F0007F0AD0FDF755
:10354000C1FF401B0228F5D9032040E000100240D3
:1035500000700040236B5A1E636B1B0243EA021388
:10356000E26A1343E26B5208013A43EA4253226C87
:103570005208013A43EA4263A26B43EAC263164A25
:10358000D360136843F080731360D36843F0807393
:10359000D360FDF797FF04460F4B1B6813F0007FC5
:1035A00006D1FDF78FFF001B0228F5D903200EE09E
:1035B00000200CE000200AE001207047012006E016
:1035C000012004E0012002E0012000E0002002B020
:1035D00070BD0120FBE700BF00100240002800F092
:1035E000998070B504464D4B1B6803F007038B426E
:1035F0000CD24A4A136823F007030B431360136885
:1036000003F00703994201D0012070BD0D462368E5
:1036100013F0010F39D06368032B09D0022B26D099
:1036200063BB3F4A126812F0020F06D1012070BD41
:103630003B4A126812F0007F6ED039498A6822F046
:10364000030213438B60FDF73DFF0646344B9B6836
:1036500003F00C036268B3EB820F16D0FDF732FF64
:10366000801B41F288339842F0D9032070BD2C4A68
:10367000126812F4003FE0D1012070BD284A1268A0
:1036800012F4806FD9D1012070BD236813F0020FAE
:1036900006D0234A936823F0F003A1680B4393609C
:1036A0001E4B1B6803F007039D420CD21B4A136894
:1036B00023F007032B431360136803F007039D42B5
:1036C00001D0012070BD236813F0040F06D0144A06
:1036D000936823F4E063E1680B439360236813F07D
:1036E000080F07D00E4A936823F46053216943EA18
:1036F000C1039360FFF706FC094B9B68C3F30313F8
:10370000084AD35CD840084B1860002002F088FFBC
:10371000002070BD01207047012070BD00200240D4
:10372000001002401C76000898000020014B186829
:10373000704700BF9800002008B5FFF7F7FF044B63
:103740009B68C3F30223034AD35CD84008BD00BF83
:10375000001002402C76000808B5FFF7E7FF044B85
:103760009B68C3F3C223034AD35CD84008BD00BFA3
:10377000001002402C7600080F2303600B4B9A6860
:1037800002F0030242609A6802F0F00282609A68D6
:1037900002F4E062C2609B68DB0803F4E06303614B
:1037A000034B1B6803F007030B60704700100240D7
:1037B00000200240F8B55D4BDB6813F0030F19D011
:1037C0005A4BDB6803F003030268934204D00124E0
:1037D000002C48D02046F8BD002A42D0534BDB686D
:1037E000C3F3021301334268934201D00124EFE78F
:1037F0000024EDE70368022B18D0032B1DD0012B0A
:103800000DD00124002CE3D1484EF26822F073025F
:103810004568013D43EA05131343F360D8E7434A83
:10382000126812F0020F14D00024EBE73F4A12682E
:1038300012F4806F0FD00024E4E73C4A126812F4BF
:10384000003F0AD1394A126812F4802F07D00024B1
:10385000D8E70124D6E70124D4E70024D2E70124E5
:10386000D0E70124B4E70F460546304A136823F039
:1038700080631360FDF726FE06462C4B1B6813F091
:10388000006F05D0FDF71EFE801B0228F5D903242A
:10389000002C9FD147BB25490B6923F0784323F4C3
:1038A000FE43A868EA68D20642EA002213430B618D
:1038B0001E4A136843F080631360FDF703FE06465B
:1038C0001A4B1B6813F0006F05D1FDF7FBFD801B41
:1038D0000228F5D90324002C7FF47CAF134A136926
:1038E000A9690B43136175E7012F0FD00F480269D7
:1038F00022F0C06222F4FE42A9686B695B08013BBA
:103900005B0643EA012313430361D1E707480269D9
:1039100022F4C00222F4FE42A9682B695B08013B35
:103920005B0543EA012313430361C1E70010024032
:103930002DE9F04182B00446036813F4006F24D0EF
:10394000C36BB3F5000F13D0B3F5400F02D0B3B182
:10395000012700E00027002F6FD1AD4AD2F8883050
:1039600023F44003E16B0B43C2F888303E460EE07F
:10397000A74AD36843F48033D3600027EBE70021E4
:103980000430FFF717FF0746E5E7002637462368B0
:1039900013F4003F6DD09E4B9B6D13F0805F4ED1B2
:1039A0009B4B9A6D42F080529A659B6D03F0805359
:1039B0000193019B4FF00108964A136843F480730A
:1039C0001360FDF77FFD0546924B1B6813F4807F63
:1039D00005D1FDF777FD401B0228F5D90327002FFD
:1039E00042D18B4BD3F8903013F4407315D0226D35
:1039F000934212D0864AD2F8903023F44073D2F822
:103A0000901041F48031C2F89010D2F8901021F457
:103A10008031C2F89010C2F8903013F0010F11D12C
:103A2000002F40F0CB807A4AD2F8903023F44073D4
:103A3000216D0B43C2F8903017E03E46A7E74FF0E8
:103A40000008B9E7FDF73EFD0546714BD3F890300D
:103A500013F0020FE4D1FDF735FD401B41F288332E
:103A60009842F2D90327DBE73E46B8F1000F40F059
:103A7000A780236813F0010F08D0654AD2F8883078
:103A800023F00303216A0B43C2F88830236813F044
:103A9000020F08D05E4AD2F8883023F00C03616A26
:103AA0000B43C2F88830236813F0200F08D0584A1F
:103AB000D2F8883023F44063A16A0B43C2F88830FF
:103AC000236813F4007F08D0514AD2F8883023F4D9
:103AD0004023616B0B43C2F88830236813F4806F76
:103AE00008D04B4AD2F8883023F44013A16B0B4323
:103AF000C2F88830236813F0400F08D0444AD2F847
:103B0000883023F44053E16A0B43C2F888302368BD
:103B100013F4807F08D03E4AD2F8883023F4403333
:103B2000216B0B43C2F88830236813F4005F0FD079
:103B3000374AD2F8883023F04063216C0B43C2F837
:103B40008830236CB3F1006F40D0B3F1806F42D066
:103B5000236813F4802F0FD02D4AD2F8883023F039
:103B60004063616C0B43C2F88830636CB3F1006F43
:103B700039D0B3F1806F3BD0236813F4804F0CD061
:103B8000234AD2F8883023F04053A16C0B43C2F88B
:103B90008830A36CB3F1805F32D0236813F4004FF8
:103BA00008D01B4AD2F8883023F08043E16C0B43E5
:103BB000C2F88830304602B0BDE8F0813E4654E796
:103BC000134A936D23F08053936552E7D36843F40F
:103BD0008013D360BCE70121201DFFF7EBFD002817
:103BE000B6D00646B4E7D36843F48013D360C3E786
:103BF0000121201DFFF7DEFD0028BDD00646BBE7F2
:103C00000221201DFFF7D6FD0028C6D00646C4E7D6
:103C10000010024000700040024A136843F00403A1
:103C20001360704700100240704700000268D368BC
:103C300043F00103D36003689968084A0A40062AE2
:103C400009D09968054A0A40B2F5803F03D01A6846
:103C500042F001021A600020704700BF0700010017
:103C6000704770477047704710B5044603681A697B
:103C700012F0020F11D0DA6812F0020F0DD06FF0BF
:103C800002021A610123037703689B6913F0030F93
:103C900079D0FFF7E6FF0023237723681A6912F033
:103CA000040F12D0DA6812F0040F0ED06FF0040285
:103CB0001A610223237723689B6913F4407F68D03D
:103CC0002046FFF7CEFF0023237723681A6912F0FE
:103CD000080F12D0DA6812F0080F0ED06FF0080249
:103CE0001A61042323772368DB6913F0030F57D08D
:103CF0002046FFF7B6FF0023237723681A6912F0E6
:103D0000100F12D0DA6812F0100F0ED06FF0100200
:103D10001A61082323772368DB6913F4407F46D0B8
:103D20002046FFF79EFF0023237723681A6912F0CD
:103D3000010F03D0DA6812F0010F3FD123681A692E
:103D400012F0800F03D0DA6812F0800F3DD12368A3
:103D50001A6912F4807F03D0DA6812F0800F3BD129
:103D600023681A6912F0400F03D0DA6812F0400F8E
:103D700039D123681A6912F0200F03D0DA6812F0E3
:103D8000200F37D110BDFFF76BFF2046FFF76AFF0A
:103D900081E72046FFF764FF2046FFF763FF92E7C5
:103DA0002046FFF75DFF2046FFF75CFFA3E72046B4
:103DB000FFF756FF2046FFF755FFB4E76FF001020B
:103DC0001A61204602F05AFBB8E76FF080021A61D0
:103DD000204600F06DF8BAE76FF480721A61204651
:103DE00000F067F8BCE76FF040021A612046FFF769
:103DF0003AFFBEE76FF020021A61204600F057F844
:103E0000C0E7000003681C4A904227D0B0F1804F01
:103E100024D0194A904226D0B0F1804F23D002F529
:103E2000A05290421FD002F5806290421BD023F036
:103E300080034A69134303608B68C3620B68836223
:103E40000D4B984214D003F5A053984210D003F5BF
:103E5000806398420CD001234361704723F07003C4
:103E60004A681343D5E723F44073CA681343DEE777
:103E70000B690363EFE700BF002C0140A8B110B548
:103E8000044690F83D305BB1022384F83D30211D9B
:103E90002068FFF7B7FF012384F83D30002010BDF4
:103EA00080F83C30FFF7C0FEEEE701207047704716
:103EB000704770470268136823F0C0031360202323
:103EC00080F8713070470268136823F490731360B0
:103ED0000268936823F001039360202380F8723016
:103EE000002303667047000038B590F87140E4B2D3
:103EF000202C01D0022038BD002933D0002A33D035
:103F000090F87030012B01D1022038BD13460446D1
:103F1000012280F87020C164A0F85030A0F852301F
:103F200000254567212280F87120826E0F49D162F9
:103F3000826E0F491163826E0E495163826E9563E2
:103F400002682832C16C806EFDF7CCFB23684022EA
:103F50001A6284F870502268936843F0800393607B
:103F6000284638BD012038BD012038BD793F000802
:103F7000C93F0008D53F000808B5836A0268126887
:103F800012F0200F0DD10022A3F8522019688A6880
:103F900022F080028A601A68136843F040031360BD
:103FA00008BD184602F0AAF908BD08B501680A68FC
:103FB00022F040020A60202280F87120002242662E
:103FC00002F09CF908BD704708B5806AFFF7FBFF57
:103FD00008BD704710B5846A94F87130DBB2212BAC
:103FE0000CD094F87230DBB2222B13D0636F43F005
:103FF000100363672046FFF7ECFF10BD23689B6842
:1040000013F0800FEDD00023A4F852302046FFF7C4
:1040100051FFE6E723689B6813F0400FE6D00023CA
:10402000A4F85A302046FFF74EFFDFE738B50446C4
:104030000268D3691168906813F00F050CD113F072
:10404000200F09D011F0200F06D0236E002B00F0B6
:1040500093802046984738BD002D6FD010F00105A1
:1040600002D111F4907F69D013F0010F07D011F441
:10407000807F04D001201062626F0243626713F0F8
:10408000020F07D035B1226802201062626F42F041
:104090000402626713F0040F07D035B122680420D0
:1040A0001062626F42F00202626713F0080F09D0DB
:1040B00011F0200F00D12DB1226808201062626F2C
:1040C00002436267626F002A56D013F0200F06D0B9
:1040D00011F0200F03D0236E0BB120469847636F79
:1040E00013F0080F04D123689B6813F0400F1FD012
:1040F0002046FFF7E8FE23689A6812F0400F13D0BD
:104100009A6822F040029A60E36E4BB11D4A9A63AE
:10411000E06EFDF722FB78B3E06E836B984738BD05
:104120002046FFF756FF38BD2046FFF752FF38BD47
:104130002046FFF74EFF0023636738BD13F4801F4E
:1041400002D010F4800F0AD113F0800F0ED011F0BE
:10415000800F0BD0636E7BB12046984738BD4FF47B
:1041600080131362204600F0CAFA38BD13F0400FE6
:1041700002D011F0400F00D138BD2046FFF715FFE7
:10418000FAE700BF8941000808B5806A0023A0F85B
:104190005A30A0F85230FFF71CFF08BD2DE9784BCC
:1041A0000446016883680269134342691343C26984
:1041B00013430868A14A024013430B602268536806
:1041C00023F44053E1680B435360A36922689C4980
:1041D0008A4201D0216A0B43916821F430610B437C
:1041E00093602368974A93421CD0974A93422DD0FC
:1041F000934A934243D01025914A93425ED0E3699B
:10420000B3F5004F00F0CD80082D00F26781DFE8A4
:1042100015F026013D014701650152016501650167
:1042200065015C0102F55842D2F8882002F00302D1
:10423000032A09D8DFE802F002043C060125DBE787
:104240000425D9E70825D7E71025D5E702F5E6329A
:10425000D2F8882002F00C020C2A0ED8DFE802F017
:10426000070D0D0D090D0D0D2A0D0D0D0B0000256F
:10427000C2E70425C0E70825BEE71025BCE702F524
:10428000C832D2F8882002F44062B2F5806F0BD0B9
:1042900007D9B2F5006F0FD0B2F5406F06D10825EF
:1042A000AAE71AB90025A7E70425A5E71025A3E783
:1042B0000225A1E702259FE702259DE7082D11D8D9
:1042C000DFE805F0081005100C10101013005F480F
:1042D00000260DE0FFF730FA002609E0FEF712FE97
:1042E000002605E00020012602E04FF400400026F1
:1042F000002800F0C580626802EB42039842C0F0DB
:10430000F080B0EB023F00F2EE80082D46D8DFE8E7
:1043100005F005451F45294545453B00FFF70CFACB
:1043200000234FEA10694FEA00286268500818EB32
:10433000000B49F1000C58466146FCF717FCA0F54C
:104340004072434B9A4200F2D0802368D86097E0D5
:10435000550800233F480021401941F10001FCF7B6
:1043600005FCECE7FEF7CEFD00234FEA10694FEAAB
:1043700000286268500818EB000B49F1000C584601
:104380006146FCF7F3FBDAE750080021002310F543
:10439000000041F10001FCF7E9FBD0E70126002015
:1043A000CDE7082D58D8DFE805F0051F2A57355707
:1043B00057574000FFF7C0F96268530803EB40030A
:1043C000B3FBF2F39BB20026A3F110014FF6EF729C
:1043D000914200F28C809AB222F00F02C3F34203A2
:1043E00013432268D3604BE0FFF7B6F962685308C5
:1043F00003EB4003B3FBF2F39BB20026E4E76268F1
:10440000530803F1F47303F59043B3FBF2F39BB24B
:104410000026D9E7FEF776FD6268530803EB4003F8
:10442000B3FBF2F39BB20026CEE76268530803F5B4
:104430008033B3FBF2F39BB20026C5E7F369FFEFCD
:104440000080004000380140004400400024F40097
:10445000FFFC0F00000024F401260023B4E7FFF75F
:104460006BF9636800EB5300B0FBF3F080B20026F9
:10447000A0F110024FF6EF739A423AD82368D86041
:104480000023236663663046BDE8788BFFF764F946
:10449000636800EB5300B0FBF3F080B20026E7E75F
:1044A0006368580800F5740000F51050B0FBF3F095
:1044B00080B20026DCE7FEF725FD636800EB5300C1
:1044C000B0FBF3F080B20026D2E76368580800F52D
:1044D0000040B0FBF3F080B20026C9E701260020BF
:1044E000C6E70126CCE70126CAE70126C8E7012670
:1044F000C6E70126C4E700BF436A13F0010F06D0E8
:104500000268536823F40033816A0B435360436AA3
:1045100013F0020F06D00268536823F48033C16A97
:104520000B435360436A13F0040F06D002685368CC
:1045300023F48023016B0B435360436A13F0080F8D
:1045400006D00268536823F40043416B0B43536069
:10455000436A13F0100F06D00268936823F4805367
:10456000816B0B439360436A13F0200F06D00268FF
:10457000936823F40053C16B0B439360436A13F0B9
:10458000400F0AD00268536823F48013016C0B4378
:104590005360036CB3F5801F0BD0436A13F0800F98
:1045A00006D00268536823F40023816C0B435360E8
:1045B00070470268536823F4C003416C0B43536097
:1045C000EBE72DE9F04105460F4616469846069C56
:1045D0002B68DB6937EA03030CBF01230023B342D6
:1045E0001ED1B4F1FF3FF3D02CB1FCF76BFFA0EB71
:1045F00008008442ECD22A68136823F4D073136055
:104600002A68936823F001039360202385F87130B2
:1046100085F87230002385F870300320BDE8F08102
:104620000020BDE8F08130B583B004460023436725
:10463000FCF748FF054623681B6813F0080F0ED1EE
:1046400023681B6813F0040F17D1202384F87130FE
:1046500084F87230002084F8700003B030BD6FF031
:104660007E430093034600224FF400112046FFF7DB
:10467000A8FF0028E4D00320EFE76FF07E4300930B
:104680002B4600224FF480012046FFF79AFF0028B6
:10469000DBD00320E1E778B310B5044690F8713021
:1046A0000BB3242384F871302268136823F00103CC
:1046B00013602046FFF772FD01281FD0636ABBB963
:1046C0002268536823F4904353602268936823F070
:1046D0002A0393602268136843F0010313602046A5
:1046E000FFF7A1FF10BD80F8703002F03DF8D8E769
:1046F0002046FFF701FFE3E70120704710BD704738
:10470000842801D0033070470020704708B500F0BE
:104710003DFD002008BD2DE9F04387B004460F465B
:104720004569BDB18669AEB1D0F80480D0F800907B
:10473000B0F90800FFF7E4FF2269029601950090A6
:104740003B464946404600F0C3FC0590059807B03B
:10475000BDE8F08365682668D4F81080B4F90800D5
:10476000FFF7CEFF05AB019300903B461FFA88F29E
:104770003146284600F0D7FC0128E7D00020E6E7C4
:1047800008B5034600B90123184600F0A1FE002039
:1047900008BD10B582B082684AB1C3683BB14168B8
:1047A00000680024009400F045F902B010BD00221A
:1047B0004168006800F08EF9F7E708B500F0EEFFF9
:1047C000012801D001F06EFA08BD00F10803436032
:1047D0004FF0FF328260C3600361002303607047C3
:1047E00000230361704743684B609A688A609A6847
:1047F000516099600861036801330360704730B409
:104800000D68B5F1FF3F02D000F1080202E0026935
:1048100004E01A4653681C68A542FAD253684B60FC
:1048200099608A605160086103680133036030BC9D
:10483000704703694268816891608268416851608D
:104840005A68904205D00022026118680138186049
:10485000704782685A60F6E710B5044601F0B2F975
:10486000A26BE36B9A4204D0002401F0CDF92046FC
:1048700010BD0124F9E710B5044601F0A3F9A36BBC
:1048800023B1002401F0C0F9204610BD0124F9E74E
:1048900070B504461646856B026C4AB9036853BB73
:1048A000406800F0E3FF002363600135A56370BD3D
:1048B0006EB9806802F048FE226CA3681344A360BE
:1048C0006268934219D32368A3600020EDE7C068B3
:1048D00002F03AFE236C5B42E2681A44E26021680F
:1048E0008A4202D262681344E360022E07D145B1C6
:1048F000013D0020D9E70020D7E70020D5E70020C0
:10490000D3E70020D1E7026C72B110B50346C4684A
:104910001444C4604068844201D31868D8600846D3
:10492000D96802F011FE10BD704738B5054601F098
:1049300049F995F8454064B201E0013C64B2002CAD
:104940000ADD6B6A43B105F1240000F089FE0028FE
:10495000F3D000F01BFFF0E7FF2385F8453001F0AE
:1049600053F901F02FF995F8444064B201E0013C9D
:1049700064B2002C0ADD2B6943B105F1100000F090
:104980006FFE0028F3D000F001FFF0E7FF2385F869
:10499000443001F039F938BD38B530B304460D461E
:1049A00001F010F92168E26B236C03FB02106060D8
:1049B0000020A063A160013A02FB0313E360FF2320
:1049C00084F8443084F84530C5B92369F3B104F163
:1049D000100000F045FEC8B14FF080520D4B1A6038
:1049E000BFF34F8FBFF36F8F10E04FF0500383F38F
:1049F0001188BFF36F8FBFF34F8FFEE704F11000F4
:104A0000FFF7E3FE04F12400FFF7DFFE01F0FCF8FE
:104A1000012038BD04ED00E010B5029B0C4639B111
:104A20001A60D8631C6401211846FFF7B5FF10BD5A
:104A30001B60F6E740B94FF0500383F31188BFF3D2
:104A40006F8FBFF34F8FFEE710B584B0044663B19C
:104A5000A2B1A9B10120A8B94FF0500383F3118886
:104A6000BFF36F8FBFF34F8FFEE74FF0500383F319
:104A70001188BFF36F8FBFF34F8FFEE70120EAE786
:104A80000020E8E70AB901B1002040B94FF0500317
:104A900083F31188BFF36F8FBFF34F8FFEE748207A
:104AA00003900398482808D04FF0500383F31188EF
:104AB000BFF36F8FBFF34F8FFEE720461C460123E5
:104AC00084F8463000949DF81830FFF7A5FF204683
:104AD00004B010BD40B94FF0500383F31188BFF309
:104AE0006F8FBFF34F8FFEE7F0B583B0064611B16D
:104AF00001FB00F000E0002017460C46483001F0B2
:104B0000F5F9054650B1002380F8463000903B4649
:104B100000F1480221463046FFF77EFF284603B0E9
:104B2000F0BD0000F0B585B0019260B1044699B1C6
:104B30000125BDB94FF0500383F31188BFF36F8F88
:104B4000BFF34F8FFEE74FF0500383F31188BFF39D
:104B50006F8FBFF34F8FFEE7026C0AB90125E8E7BC
:104B60000025E6E7022B09D06DB94FF0500383F31F
:104B70001188BFF36F8FBFF34F8FFEE7E26B012AFF
:104B8000F2D00025F0E71E460F4600F007FE10B9F0
:104B9000019B03B1002545B94FF0500383F3118801
:104BA000BFF36F8FBFF34F8FFEE700252CE0324637
:104BB00039462046FFF76CFE636A8BB104F124008E
:104BC00000F04EFD38B14FF08052374B1A60BFF302
:104BD0004F8FBFF36F8F01F017F8012005B0F0BDC4
:104BE0000028F8D04FF080522F4B1A60BFF34F8F40
:104BF000BFF36F8FEFE701F007F80020EEE72046E4
:104C0000FFF793FE00F094FB00F0DCFFA26BE36B78
:104C10009A42CCD3022ECAD0019B002BEBD01DB9F7
:104C200002A800F05FFD012500F0EEFF00F0E6FABB
:104C300000F0C8FF94F844305BB2B3F1FF3F02D1FB
:104C4000002384F8443094F845305BB2B3F1FF3F61
:104C500002D1002384F8453000F0D6FF01A902A854
:104C600000F054FDC8B92046FFF7F6FD0028C6D075
:104C7000019904F1100000F0D9FC2046FFF755FE21
:104C800000F056FB0028BFD14FF08052064B1A604F
:104C9000BFF34F8FBFF36F8FB6E72046FFF745FE98
:104CA00000F046FB002099E704ED00E02DE9F0411B
:104CB00084B0019260B1044699B10125BDB94FF0AD
:104CC000500383F31188BFF36F8FBFF34F8FFEE75D
:104CD0004FF0500383F31188BFF36F8FBFF34F8FF3
:104CE000FEE7026C0AB90125E8E70025E6E71F4662
:104CF000884600F053FD10B9019B03B1002545B96A
:104D00004FF0500383F31188BFF36F8FBFF34F8FC2
:104D1000FEE700265DE0E66841462046FFF7F3FD2A
:104D2000DFB9013DA563236813B900F0FBFD6060A6
:104D3000236963B104F1100000F092FC38B14FF028
:104D40008052454B1A60BFF34F8FBFF36F8F00F057
:104D50005BFF012004B0BDE8F081E660636A002BD0
:104D6000F5D004F1240000F07BFC0028EFD04FF0D8
:104D70008052394B1A60BFF34F8FBFF36F8FE6E756
:104D800000F042FF0020E5E702A800F0ABFC01269E
:104D900029E0002384F8443031E0002384F84530D2
:104DA00033E000F00FFF606800F008FD00F02CFF1A
:104DB0003BE02046FFF7B9FD00F0BAFA09E02046D3
:104DC000FFF7B3FD00F0B4FA2046FFF754FD0028CA
:104DD00040D100F0F7FEA56B002D9CD1019B002B6C
:104DE000CED0002ED0D000F00FFF00F007FA00F078
:104DF000E9FE94F844305BB2B3F1FF3FC9D094F8B8
:104E000045305BB2B3F1FF3FC7D000F0FDFE01A912
:104E100002A800F07BFC0028D1D12046FFF72BFD33
:104E20000028C6D02368002BBBD0019904F12400D0
:104E300000F0FCFB2046FFF778FD00F079FA00282F
:104E4000C7D14FF08052044B1A60BFF34F8FBFF3AE
:104E50006F8FBEE700207DE704ED00E0094B9B6A01
:104E60001B6843B9012343B9064B9A6AD268D268DA
:104E70005268DA6270470023F5E74FF0FF32014BCA
:104E8000DA6270471C0300202DE9F04780469946FE
:104E9000089D099F0A9C266B02F18042013A06EBAD
:104EA000820626F0070600230F2B07D8C85CE218FD
:104EB00082F83400CA5C0AB10133F5E7002384F8B4
:104EC0004330062D00D90625E56265644FF0000ADF
:104ED000C4F848A0201DFFF783FC04F11800FFF779
:104EE0007FFC2461C5F10705A5616462C4F84CA08C
:104EF00084F850A04A464146304600F035FE206016
:104F000007B13C60BDE8F08770B5002407E004EB12
:104F10008402930010481844FFF757FC0134062C14
:104F2000F5D90E4C04F1BC063046FFF74EFC04F1F7
:104F3000D0052846FFF749FC04F11400FFF745FCB3
:104F400004F1E400FFF741FC2046FFF73EFCA662B7
:104F5000C4F8F85070BD00BF4C0300201C030020B3
:104F600038B5054600F02EFE264BD3F8FC20013262
:104F7000C3F8FC20D3F80031002B38D0214BD3F8F4
:104F800004314BB91F4BD3F80031DA6AEB6A9A420D
:104F900002D81C4BC3F800511A4CD4F80831013325
:104FA000C4F80831EB6A01229A40D4F80C110A4384
:104FB000C4F80C2104F1300003EB83039A00291D8F
:104FC0001044FFF710FC00F01FFED4F804316BB161
:104FD000D4F80031DA6AEB6A9A4207D24FF0805275
:104FE000094B1A60BFF34F8FBFF36F8F38BD054B6E
:104FF000C3F80051D3F8FC30012BCDD1FFF784FF6B
:10500000CAE700BF1C03002004ED00E010B5044611
:1050100090F8513063B1012B11D0022B12D04FF018
:10502000500383F31188BFF36F8FBFF34F8FFEE7F9
:10503000006B00F0E1FF204600F0DEFF10BD00F045
:10504000DBFF10BD10BD000070B504460E461F4BBF
:10505000D3F81051D3F800010430FFF7EAFB60B930
:105060001A4BD3F80021D16A012202FA01F1D3F8D8
:105070000C2122EA0102C3F80C21B4F1FF3F12D047
:105080002C44124BD3F800315C60A54214D80F4D6C
:10509000A86AD5F800110431FFF7B1FBEB6A9C4216
:1050A00000D2EC6270BD002EEAD00848D0F80011A2
:1050B0000431FFF798FB70BD044BD3F8F800D3F828
:1050C00000110431FFF79BFB70BD00BF1C030020E3
:1050D00030B587B00B9D0C9C4DB18CB94FF050038F
:1050E00083F31188BFF36F8FBFF34F8FFEE74FF04D
:1050F000500383F31188BFF36F8FBFF34F8FFEE729
:105100002563022584F8515000250395029405ADCE
:1051100001950A9D0095FFF7B7FE2046FFF720FF97
:10512000059807B030BD2DE9F04385B006460F461F
:1051300015469846900000F0D9FE10B381465420E1
:1051400000F0D4FE0446C0B1C0F83090DCB10023BA
:1051500084F85130039302940D9B01930C9B0093B0
:1051600043462A4639463046FFF78EFE2046FFF773
:10517000F7FE012005B0BDE8F083484600F03CFF93
:10518000E4E70024E2E74FF0FF30F3E710B588B022
:1051900000240594069407AA06A905A801F03EF884
:1051A000059B0293069B019300942346079A10499E
:1051B0001048FFF78DFF18B101231BB908B010BDCF
:1051C0000023FAE74FF0500383F31188BFF36F8F8A
:1051D000BFF34F8F084B4FF0FF32DA620122C3F862
:1051E00004210022C3F8102100F088FDE6E700BF8B
:1051F00034760008755500081C030020034AD2F8D5
:1052000018310133C2F81831704700BF1C03002069
:10521000014BD3F8100170471C0300202DE9F04129
:10522000424BD3F81831002B70D1404BD3F81051BA
:105230000135C3F81051CDB99B6A1B6843B14FF0DB
:10524000500383F31188BFF36F8FBFF34F8FFEE7D7
:10525000364B9A6AD3F8F8109962C3F8F820D3F85D
:105260001C210132C3F81C21FFF7F8FD2F4BDB6A2C
:105270009D423FD200242D4AD2F80031DB6A03EB75
:10528000830399000A44136B012B46D9012444E09F
:105290000124264B9B6A1B6873B3002373BB234B0B
:1052A0009B6ADB68DE6873689D422CD306F10408B4
:1052B0004046FFF7BEFAB36A1BB106F11800FFF7CC
:1052C000B8FAF36A01229A40184FD7F80C110A4332
:1052D000C7F80C2107F1300003EB83039A00414625
:1052E0001044FFF780FAF26AD7F80031DB6A9A427D
:1052F000CED2CEE70024CCE70123CFE74FF0FF3238
:105300000A4BDA62B7E7094AD362B4E7074AD2F830
:1053100020310133C2F820310024044BD3F824316A
:1053200003B101242046BDE8F08100BF1C0300202A
:105330003A4BD3F8183143B94FF0500383F3118837
:10534000BFF36F8FBFF34F8FFEE770B500F03AFCED
:10535000324BD3F81821013AC3F81821D3F8183189
:10536000002B57D12D4BD3F8FC3023B9002400F08B
:105370004BFC204670BD0024284B5B692BB3274DA6
:105380002B6ADC6804F11800FFF753FA261D30463B
:10539000FFF74FFAE36A01229A40D5F80C110A434D
:1053A000C5F80C2105F1300003EB83039A00314668
:1053B0001044FFF718FAE26AD5F80031DB6A9A4226
:1053C000DAD30122C5F82421D6E70CB1FFF746FD58
:1053D000124BD3F820417CB9104BD3F82431DBB108
:1053E0004FF080520E4B1A60BFF34F8FBFF36F8F99
:1053F0000124BCE7013C08D0FFF710FF0028F9D0DA
:105400000122064BC3F82421F4E70022034BC3F822
:105410002021E1E70024AAE70024A8E71C030020DC
:1054200004ED00E038B550B1054689B94FF050039E
:1054300083F31188BFF36F8FBFF34F8FFEE74FF0F9
:10544000500383F31188BFF36F8FBFF34F8FFEE7D5
:105450001D4BD3F8183143B14FF0500383F311883B
:10546000BFF36F8FBFF34F8FFEE70C46FFF7C6FE0B
:10547000154BD3F810012A681444904216D2A24268
:105480001AD9A0421AD300222C601AB10021201A86
:10549000FFF7DAFDFFF74CFF38B94FF080520B4BA6
:1054A0001A60BFF34F8FBFF36F8F38BDA24207D88A
:1054B000A04207D30022E7E70022E5E70122E3E765
:1054C0000122E1E70122DFE71C03002004ED00E0F8
:1054D00010B5B0B10446104BD3F8183143B14FF0BA
:1054E000500383F31188BFF36F8FBFF34F8FFEE735
:1054F000FFF784FE00212046FFF7A6FDFFF718FF07
:1055000000E0002038B94FF08052044B1A60BFF31E
:105510004F8FBFF36F8F10BD1C03002004ED00E020
:1055200038B5134BD3F814310BB3FFF767FE104BAC
:10553000D3F8E440FFF7FCFE002CF2D000F042FB71
:105540000B4CD4F8F030DD68281DFFF772F9D4F861
:10555000FC30013BC4F8FC30D4F81431013BC4F8F2
:10556000143100F051FB2846FFF750FDD9E738BD54
:105570001C03002008B5FFF7D3FF064B1B6B012B64
:10558000F9D94FF08052044B1A60BFF34F8FBFF32D
:105590006F8FF0E71C03002004ED00E0224BD3F8EE
:1055A0001831CBB9204A0023C2F82431D2F80C318B
:1055B000B3FA83F3DBB2C3F11F0303EB8300810073
:1055C0000A44126B6AB94FF0500383F31188BFF39A
:1055D0006F8FBFF34F8FFEE70122134BC3F82421D7
:1055E000704710B4104A9900CC18A0001044446BC6
:1055F000646844633032194488000146083002442C
:1056000094420BD0084903EB83039A000A44536B7E
:10561000DB68C1F800315DF8044B70476068024AEE
:105620000A445063EEE700BF1C03002040B94FF06E
:10563000500383F31188BFF36F8FBFF34F8FFEE7E3
:1056400010B50C46054BD3F800111831FFF7D7F809
:1056500001212046FFF7F8FC10BD00BF1C0300200D
:1056600038B5C368DC684CB304F118052846FFF769
:10567000E0F81A4BD3F818314BBB251D2846FFF72D
:10568000D8F8E36A01219940144AD2F80C01014389
:10569000C2F80C11303203EB830398002946104402
:1056A000FFF7A1F8E26A0D4BD3F80031DB6A9A42AA
:1056B00012D90120094BC3F8240138BD4FF0500323
:1056C00083F31188BFF36F8FBFF34F8FFEE7294637
:1056D0000348FFF788F8E5E7002038BD1C030020E9
:1056E0003003002038B1084AD2F81C110160D2F80A
:1056F0001021426070474FF0500383F31188BFF3CD
:105700006F8FBFF34F8FFEE71C03002038B5D0B179
:10571000044609B30D4600F055FA1B4BD3F810119F
:105720002B68B3F1FF3F2BD02068174AD2F81C2119
:10573000904202D06268914224D26268881A834201
:1057400013D8012418E04FF0500383F31188BFF3FE
:105750006F8FBFF34F8FFEE74FF0500383F3118835
:10576000BFF36F8FBFF34F8FFEE7521A13442B60C6
:105770002046FFF7B7FF002400F046FA204638BD68
:105780000024F9E70124F7E71C0300200122024B63
:10579000C3F82421704700BF1C030020064BD3F838
:1057A00004312BB1044BD3F818311BB902207047D8
:1057B00001207047002070471C03002000284FD0B4
:1057C00038B50546C36A2749D1F80011C96A8B422A
:1057D00018D28169002906DB2249D1F80011C96A73
:1057E000C1F107018161686903EB830399001E4BD6
:1057F0000B44984207D000233BB91A4BD3F8003131
:10580000DB6AEB6238BD0123F6E72C1D2046FFF76B
:1058100010F880B9EA6A02EB82039900114B0B443D
:105820001B6B43B9012393400E49D1F80C2122EAA6
:105830000302C1F80C210B48D0F80031DB6AEB629F
:1058400001229A40D0F80C110A43C0F80C213030E4
:1058500003EB83039A0021461044FEF7C4FF38BDD2
:10586000704700BF1C0300204C030020002850D0CC
:1058700038B504462A4AD2F80021904208D04FF0A9
:10588000500383F31188BFF36F8FBFF34F8FFEE791
:10589000826C42B94FF0500383F31188BFF36F8FCE
:1058A000BFF34F8FFEE7013A8264C06A616C8842A1
:1058B00031D092BB251D2846FEF7BBFF88B9E26AAE
:1058C00002EB82039900164B0B441B6B4BB901236F
:1058D00003FA02F21249D1F80C3123EA0203C1F8AB
:1058E0000C31636CE362C3F10702A261012404FA84
:1058F00003F10B4AD2F80C010143C2F80C1130320B
:1059000003EB8303980029461044FEF76CFF204602
:1059100038BD00207047002038BD002038BD00BFD2
:105920001C030020064BD3F800312BB1044BD3F8F5
:105930000021936C01339364014BD3F8000170474D
:105940001C030020F8B507460C4615461E4600F01D
:1059500039F9244BD3F8003193F85030DBB2022BE5
:105960000CD0204BD3F80021D06C20EA0700D06483
:10597000D3F80031012283F850201EBB00F044F917
:1059800000F020F925B1174BD3F80031DB6C2B6008
:10599000144BD3F8003193F85030DBB2012B1ED0FA
:1059A000104BD3F80031D96C21EA0401D9640124E9
:1059B0000C4BD3F80031002283F8502000F024F97A
:1059C0002046F8BD11463046FFF73EFB4FF08052AF
:1059D000054B1A60BFF34F8FBFF36F8FCEE70024E4
:1059E000E6E700BF1C03002004ED00E02DE9F843CA
:1059F000089E10B30446994615460F4600F0F2F98A
:105A0000EFF311884FF0500383F31188BFF36F8FCA
:105A1000BFF34F8FB9F1000F02D0E36CC9F800302B
:105A200094F85030DBB2022284F850206A1E032A18
:105A30002AD8DFE802F00B1C21244FF0500383F337
:105A40001188BFF36F8FBFF34F8FFEE7E26C1743F0
:105A5000E7640125012B3ED1A36ACBB14FF050037F
:105A600083F31188BFF36F8FBFF34F8FFEE7E26CB4
:105A70000132E2640125EDE7E7640125EAE7022B44
:105A800004D0E7640125E5E70125E3E70025E1E728
:105A9000194BD3F818311BBB271D3846FEF7C9FE3A
:105AA000E36A01219940144AD2F80C010143C2F87B
:105AB0000C11303203EB8303980039461044FEF793
:105AC00092FEE26A0C4BD3F80031DB6A9A4202D9AB
:105AD00066B10123336088F311882846BDE8F88356
