:020000040800F2
:100000000000082031A5000881A5000881A500088E
:1000100081A5000881A5000881A500080000000056
:1000200000000000000000000000000071730008E4
:1000300081A500080000000011740008119C000850
:1000400081A5000881A5000881A5000881A50008F8
:1000500081A5000881A5000881A5000881A50008E8
:1000600081A5000881A5000881A50008199C000849
:10007000299C0008399C0008499C0008599C0008EC
:10008000699C0008799C000881A5000881A50008EA
:1000900081A5000881A5000881A5000881A50008A8
:1000A00081A50008899C000881A5000881A5000899
:1000B00081A5000881A5000881A50008999C000879
:1000C00081A5000881A5000881A5000881A5000878
:1000D00081A50008A99C0008B99C0008C99C0008DB
:1000E00081A5000881A5000881A5000881A5000858
:1000F00081A5000881A5000881A50008D99C0008F9
:1001000081A5000881A5000881A5000881A5000837
:10011000E99C0008F99C000881A5000881A5000859
:1001200081A50008099D0008199D000881A5000807
:1001300081A5000881A5000881A5000881A5000807
:1001400081A5000881A5000881A5000881A50008F7
:1001500081A50008299D0008399D0008499D0008D7
:1001600081A5000881A5000881A5000881A50008D7
:1001700081A5000881A5000881A5000800000000F5
:1001800081A5000881A5000881A5000881A50008B7
:1001900081A5000881A5000881A5000881A50008A7
:1001A00081A5000881A5000881A5000881A5000897
:1001B00081A5000881A5000881A5000881A5000887
:1001C00081A5000881A500080000000081A50008A5
:1001D00081A5000881A5000881A5000881A5000867
:1001E00081A5000881A5000881A5000881A5000857
:0801F00081A5000881A50008AB
:1002000010B5054C237833B9044B13B10448AFF350
:1002100000800123237010BD500500200000000065
:1002200074C500080C4B43B10C480D4910B5AFF331
:1002300000800C48036823B910BD0A48036833B92D
:100240007047094B002BF7D0BDE810401847064B0C
:10025000002BF5D0184700BF0000000074C500084F
:1002600054050020500500200000000000F0D6BD1D
:1002700069B138B505460C46FFF7F8FFD5E900230C
:1002800080185941013CE5E80201F5D138BD7047BD
:10029000024B58689B681844704700BFD88A0020FA
:1002A000034B1A680AB1586970470120704700BFB4
:1002B000D88A0020704700BF10B4084C202390EA71
:1002C000010F4CBF22460022013B4FEA410182EA66
:1002D0004000F4D15DF8044B704700BFB71DC10466
:1002E00038B50A4C05462046A90050F81C3B0122AF
:1002F0000AF0C8FF012818BF0123A06818BF636176
:100300006368401B2B446360A06038BDD88A00201E
:1003100038B50C4CA368B3F5806F054605D21D4473
:100320000733A56004EB830038BD4FF48060FFF70E
:10033000D7FFA368002BF2D041F21C02A258E26161
:10034000EDE700BFD88A002070B5174DAB68EA68AA
:10035000D21A824206461AD269681944696005F1C8
:100360001C0012B150F82330EB6100EB82002B68C7
:10037000EA6000244FF480520121AC600AF0FEFDD7
:10038000EB6803EB90008642E86006D8AB681E4439
:100390000733AE6005EB830070BD2B69EC6033441E
:1003A0001B1A2B61204670BDD88A00200FB400B5FF
:1003B000074B83B004AA1B6852F8041BD86801924B
:1003C0000BF052FA03B05DF804EB04B0704700BFC5
:1003D0007C0300202DE9F843D9B10F469046D1F8AF
:1003E000009082B1002300F10C061D4656F8042F40
:1003F000013507EBC30122B15C1CC8690BF02CF876
:100400002346A845F2D138460BF026F84846BDE809
:10041000F8838946FAE700BF30B404460D4654EA33
:1004200005031AD0D9B1B1FA81F1C1F13F03012B13
:1004300013D9C1F13D02C2F1200005FA00F024FAFF
:1004400002F3203A034325FA02F2C1F1804113433B
:100450003E3103F0030000EB810030BC7047B0FA7E
:1004600080F12031E1E700BFF8B519460646104695
:1004700014461D46FFF7D0FF00EB4000C0003718C0
:100480003158D7E9042301313150D7E9020112195B
:100490006B418442C7E9042375EB010301DAC7E924
:1004A0000245F8BD8B68002B42D02DE9F04D0B467C
:1004B00088460746D1E906AB01F5BD54002200206D
:1004C00000219A62C3E90CABC3E90E0118339C42C8
:1004D000F7D15FB308F128083B6913B3BA6B02B3D5
:1004E000002602E00136B2421BD0FB6B53F82640D7
:1004F000002CF7D02368BB42F4D12369002BF1D044
:100500000025636903EBC503D3E900234046FFF7E9
:10051000ABFF23690135AB42F3D8BA6B0136B24267
:10052000E3D17F68002FD7D1BDE8F08DBDE8F08D15
:10053000704700BF2DE9F04F83B0934601900C4601
:10054000064641F2C8720846002500210AF097FFCE
:10055000CBF80050002E62D0A846F06801F0A4FA53
:1005600085423CBF5B461860B1684046FFF7A4FE79
:10057000B76B3946FFF7A0FE8046002F4AD0F56BD7
:1005800005EB8709CA46B14609E040460021FFF75E
:1005900093FE0021FFF790FE8046AA4539D055F81A
:1005A000046B002EF1D033684B45EED14046F16824
:1005B000FFF782FEB168FFF77FFED9F81030804662
:1005C000002BEAD03769A3683B44A3603946FFF7A4
:1005D00073FE8046002FE0D07169D4E9042301EB5B
:1005E000C70C4846C646D1E9006792197B41C4E969
:1005F0000423D4E90667F1E80289464577EB09064A
:1006000001DAC4E906898C45EDD1AA458146F04658
:10061000C5D14E46766826B1DBF800509DE7DDF87F
:10062000048001982146FFF73DFF404603B0BDE836
:10063000F08F00BF70B5044619480AF031FE68B368
:100640000AF017FA20EAE073A36016480AF028FEC1
:100650000646B8B101F028FA054698B1431EF25C8F
:100660002F2A0CD06068E560023028440AF0ECFEC6
:100670002A4620603146BDE870400AF0F5BE1D46AE
:10068000002BEFD1A36813B1074E0125EAE760689C
:10069000E36002300AF0D8FE206070BD0346D3E765
:1006A00074C9000888C9000870C900082DE9F04F16
:1006B000ADF5BE5D85B0034603F5BC531C460B90FB
:1006C00009910CA800214FF4BD520F460AF0D7FE45
:1006D00023460833089300240023CDE906344FF065
:1006E000FB0ABE46CDF828A0089AD2E90434D2F815
:1006F00000B0CDE90434BBF1000F72D070465C4607
:10070000002F00F0AD80DDE90623DDE90489CDE9A5
:100710000223099B0AEB4A0103EBC101A346A7424E
:10072000C0F01581089BD1E90201D3E90223151815
:1007300043EB0106A742CDE9005640F23881DDE9DE
:100740000256A4FB05013A46002304FB061100F003
:10075000BFFF2A1A66EB0103CDE90623CDE90201AA
:100760003F1B00230024CDE904340024DDE900010F
:10077000FFF752FE45002E180CAB03EBC60CDDE96B
:10078000022312EB08029046DCE9041243EB090352
:10079000994611EB08010CAB42EB090253F83630D5
:1007A00088469146DCE902120DF1300E5B444EF8AA
:1007B000363051EA0203CCE9048905D0DDE900892D
:1007C000884579EB020307DA0CAB054403EBC5055A
:1007D000DDE90023C5E90223002F3DD0002C8FD195
:1007E00086460A9B089A013B0A93183A01330892FD
:1007F0007FF47AAF56460FB10AF1FF36002E11DBB7
:10080000099906EB460301EBC303A1F11802DDE9E8
:100810000601D3E90445183B001969419A42F8D111
:10082000CDE906010CAB0EEB4E0E03EBCE04D4E982
:1008300004671946DDE9062392197B4116461F46D7
:100840000B984FF4BD52C4E904670AF00DFE0DF594
:10085000BE5D05B0BDE8F08F0AF1FF3A002CBFD0B5
:10086000BAF1000F15DB0AEB4A03099D55F8337006
:1008700005EBC301002F40F092800B4604E01F6897
:100880001946002F40F08B801AF1FF3AA3F11803AC
:10089000F5D2DDF828A04FEA4A01864601EB0A00AE
:1008A000C0000CAB1E181B581F19D6E90423DDE944
:1008B0000445A4185D412B462246D6E90245C6E907
:1008C00004230DF1300C54EA0503089B4CF800702A
:1008D000D3E9022303D0A24273EB050006DA01EB51
:1008E0000A000CAC04EBC000C0E9022301EB0A08CB
:1008F0004FEAC8080CAB03EB080C0B9B984422E0B2
:1009000058E902235CE90201161843EB01073B4654
:1009100032465CE904675CF8184C58F8185C4CE9FE
:1009200002232C4456EA07034CF8184C58E90423D8
:1009300003D0B24273EB070101DA4CE90423ACF1B6
:10094000180CA8F11808BAF1010AD9D56AE7089875
:10095000D0E90289DDE90456C346CC46D1E90289D3
:10096000A7FB05231BEB080B07FB06334CEB090C1D
:100970001046194622460023CDE900BC00F0A8FE2F
:100980002A1A66EB0103CDE9042300220023E41BAD
:10099000BB46804689460027CDE90623E6E6D1E935
:1009A0000423DDE90489CDE90223A346B7E600224A
:1009B0000023CDE90623D3E612692DE9F843089D0B
:1009C000DDF828801C468146DB68002A00F099800B
:1009D00009B95A1CE260002B3AD0D5E90401D4E9E8
:1009E000042312184B41C4E90423D4E90601D5E9D4
:1009F0000667B04271EB0703C0F28F80D4E9082389
:100A000092197B41C4E9082305F1280104F128006B
:100A1000FFF74CFED8F80C30002B40D1E368002BD8
:100A20003DD0A368C8F80830E368C8F80C30D4E9B2
:100A30000423C8E90423D4E90623C8E90623D4E93A
:100A40000823C8E90823099B23600020BDE8F88338
:100A5000AB68A360D5E90401D4E9042312184B4123
:100A6000C4E90423D4E90623D5E9060182428B4177
:100A70005EDAC4E90601D4E90823D5E906011218B3
:100A80004B41C4E9082305F128014FF4BD5204F19C
:100A900028000AF0E9FCD8F80C30002BBED0D8F8BA
:100AA0000020002ACFD1D8F80810A26891420CD0BB
:100AB00049462348FFF77AFC4FF0FF33C8F800306F
:100AC000099B23600020BDE8F883E2689A42EFD1D9
:100AD000D8E90401D4E90423994208BF9042E7D140
:100AE000D8E90601D4E90623994208BF9042DFD134
:100AF000D8E90801D4E90823994208BF9042D7D128
:100B0000A1E713B9D8F80C30C9E701460D48FFF743
:100B10004DFC4FF0FF30BDE8F883C4E90667D4E927
:100B20000823D5E9060112184B41C4E908236BE7F5
:100B3000D4E9082312184B41C4E90823A3E700BFF6
:100B4000C0C9000894C900084FF0FF30704700BFCB
:100B5000144B994222D0F0B583B00B0E0F0C0E0A45
:100B6000362530248DF803108DF8003033217223A0
:100B70008DF801708DF802608DF804508DF80540F5
:100B80008DF806108DF8073052B111466B4601AA58
:100B90000548FFF70BFC002003B0F0BD01207047B3
:100BA0000268F2E77233303630CA0008074B10B4DF
:100BB0004FF0FF3200249A61214622465C609C601F
:100BC00018685DF8044B0AF0E9B900BFD88A002024
:100BD00038B50F4C0F4900234FF0FF32226163609C
:100BE000E360A360636105460AF05AF9206030B102
:100BF00001230021A3610BF08DF8012038BD2846A8
:100C000005490AF04DF920600028F1D1F6E700BF50
:100C1000D88A002068CA00086CCA0008F8B58D6838
:100C2000CF68D1F800E0002D02460E460EEB07001B
:100C300019DD13782F2B06BF5378511C114693B141
:100C40002F2B06D011F8013F144663B122462F2BFB
:100C5000F8D14B78013D4A1C23B12DB10C46114609
:100C60002246F4E70A46114637B10B782F2B03D002
:100C70002F230EF8073001300BF089F93068FFF7A9
:100C8000A7FF38B93268FFF75FFF28B91046FFF7B2
:100C90009FFF50B10020F8BD094B0A491B68D86876
:100CA0000AF006F94FF0FF30F8BD054B32681B68BB
:100CB0000549D8680AF0FCF84FF0FF30F8BD00BFD6
:100CC0007C03002070CA000884CA000810B50B4CD1
:100CD000206830B1A36843B909F028FF00232360DE
:100CE000E3600023A361606910BDA269002AF3DA02
:100CF0001846FFF7F5FA2068EEE700BFD88A002013
:100D000010B504460120FFF703FB046010BD00BFCF
:100D100038B5054602200C46FFF7FAFA0560446034
:100D200038BD00BF38B5054602200C46FFF7F0FA83
:100D30000560446038BD00BF2DE9F04389B0ADF1D6
:100D400004080E46474607AA002347F8043F974287
:100D5000FBD14FF0000C63463446B6464FF0010914
:100D6000DEF828505A0908A901EB82020EF1180E8C
:100D700003F01F01013345B152F8205C09FA01F17B
:100D800029430CF1010C42F8201CFC2BE8D10CEBA0
:100D90008C0C0CF11101FFF7C5FF3068FFF7B0FFB5
:100DA000B068FFF7ADFFF068FFF7AAFFD6E90401CE
:100DB000FFF7AEFFD6E90601FFF7AAFFD6E9080163
:100DC000FFF7A6FF58F8040FFFF79AFF4745F9D140
:100DD00006F5BD5602E01834B4420FD0A06A0028D0
:100DE000F9D0FFF78DFFD4E90C01FFF791FF18341C
:100DF000D4E90801FFF78CFFB442EFD109B0BDE898
:100E0000F08300BF08B50120FFF79EFA20B100680B
:100E1000BDE80840FFF74EBA08BD00BF38B5022054
:100E2000FFF792FA78B103460068FFF743FA0446E9
:100E30005868FFF73FFA00250346002242EA040003
:100E400043EA050138BD0020002138BD2DE9F04FEF
:100E500087B0002403930B46029104900592383327
:100E6000103153F8042D02B101348B42F9D104340E
:100E7000E40020460AF0E8FA8046002845D0039BAB
:100E8000436000240460FFF7BDFFC8F80C00FFF7C3
:100E9000B9FFC8F81000FFF7B5FF029B284DC8F84E
:100EA000140003F10C062746AA46B3465BF8043F3C
:100EB000FBB1FFF7A7FF82453CD1FFF7A3FF460830
:100EC0004FEAC60948460AF0BFFA0546002834D062
:100ED00008EBC70306F1FF399E61D86146B1FFF701
:100EE0009DFF09F1FF39B9F1FF3FE5E80201F6D1B5
:100EF000013701340A2C0AF5003AD7D1059B404648
:100F0000C3F8008007B0BDE8F08F4FF0FF3574B133
:100F10000C4B039A049900940B48FFF747FA029888
:100F20002A46414607B0BDE8F04FFFF753BA074BDA
:100F30002C46EEE72546054BEBE725464C46E6E713
:100F40000000A101A0CA0008C4CA0008B0CA000875
:100F50002DE9F04F89B08146FFF754FFC9F8000032
:100F6000FFF750FFC9F80800FFF74CFFC9F80C0065
:100F7000FFF754FFC9E90401FFF750FFC9E9060173
:100F8000FFF74CFF4FF4BD52C9E9080109F12800F1
:100F900000210AF074FAADF1040407AE0025FFF752
:100FA00031FF44F8040F00F0FBFBB4420544F6D1D6
:100FB0006F1E002D38D00024DFF87C80DFF87CA085
:100FC00025462646ACB90DEB8506043E00E01D46DD
:100FD000072D02D94046FFF7E9F956F8044F6B1C7C
:100FE000002CF4D0E2074FEA45161D4603D46408EE
:100FF0000136E207FBD5FB2E19D8FFF703FF06EBFE
:10100000460B09EBCB0B013FCBF82800FFF706FF9F
:10101000CBE90C01FFF702FF7B1C4FEA540406F1F9
:101020000106CBE90E01CDD109B0BDE8F08F5046E5
:10103000FFF7BCF9E1E700BF24CB0008E8CA0008CD
:101040002DE9F04FADF5BE5D85B09A460DF5BF5365
:1010500018331E6800920DF5BF531C330C468046B2
:101060001D68FFF7CFFE04F10C0301464246184607
:101070000193FFF76DFD002800F0C480FFF7C2FE6A
:10108000A368984205D000200DF5BE5D05B0BDE80F
:10109000F08FDFF89C91FFF7FBF82860FFF7B2FEB6
:1010A000B0F1234F32D1FFF7ADFE02A8FFF750FF9A
:1010B000FFF7F6F80746002840F0858033689BB9B3
:1010C0000DF5C052029B12689342E4D1049FDAF8F6
:1010D000083000989F4241F2C87202A9DBD10AF0A1
:1010E000C3F92B683360D6E741F2D0700AF0ACF94F
:1010F0008346C9F8000041F2C872083002A90AF01C
:10110000B3F9CBF80070D9F80090C4E7A56B002DB7
:101110007BD0E36BB0F1807F1F6865D13D4E002529
:1011200014E032462B4621464046FFF78FFE064626
:1011300000285AD0FFF766FEA36B0135AB4264D09E
:10114000E36BB0F1807F53F825704ED1FFF75AFE64
:101150000028EFD0032848D1002FE2D03B689C4202
:10116000DFD1FFF74FFE7B6898423ED1FFF74AFE82
:10117000BB68984239D1FFF745FEFB68984234D1ED
:10118000DFF8B090DDF804B010375BF804AFBAF1C7
:10119000000F0ED0FFF736FE0090FFF733FE009BE6
:1011A0004B4522D13968B0EB410F1ED17868D0474A
:1011B0000837194B09F500399945E6D1FFF770F862
:1011C0000028B7D00746154B154A1648414612EA83
:1011D000270238BF1A46FFF7E9F84FF0FF300DF548
:1011E000BE5D05B0BDE8F08F00252B4641460E4A96
:1011F0000E48FFF7DBF84FF0FF300DF5BE5D05B090
:10120000BDE8F08F4FF0FF303EE700283FF43BAFE2
:10121000EBE700BF848200200000B50170CB00081E
:1012200064CB0008ACCB000878CB000884CB000866
:10123000808200200000A10138B5094CA368054652
:1012400013B11846FFF74CF8A9000022206809F0F6
:10125000A5FE206809F03CFF8010606038BD00BF2B
:10126000D88A00202DE9F04F834683B00D461C46F6
:10127000002A00F08680002C40F08E8029464FF036
:101280002340FFF759FD464B1C6874B104F1080177
:101290004FF02340FFF750FD414B186804680AF0F7
:1012A000DBF83F4B1C60002CF0D1DBF838304FF0FE
:1012B00000089BB95DE0DBF83C3053F8285015B1CD
:1012C0002B689B455AD000214FF08070FFF72AFD14
:1012D000DBF8383008F1010843454AD0304B5D68EF
:1012E000002DE8D06B684345E5D101230835019313
:1012F00003214FF08070FFF715FD6868294EFFF756
:10130000FFFCA868FFF7FCFCE868FFF7F9FC103564
:101310000BF10C0757F8043FABB1D5F800A03046ED
:101320004FEA4A01FFF7FEFC0AF1FF34D5F80490BA
:10133000BAF1000F06D0013CF9E80201FFF7E8FC22
:10134000631CF8D10835184B06F500369E42E1D1F2
:10135000019B002BBCD0124B0A2259685846FFF75C
:1013600039F80F4B5860DBF8383008F10108434575
:10137000B4D1002003B0BDE8F04FC1E400230193D5
:10138000B6E70A480A49FFF7CDFCDBF80800FFF78B
:10139000B7FC002C3FF472AF2046FFF74DFF6DE71E
:1013A000808200200000A1010000B5016164636734
:1013B0007233303602294CDD2DE9F04F00F1080C74
:1013C00083B00D464FF0000A0224DCE90489DCE911
:1013D0000023424573EB0903DCE90267CDF800A066
:1013E000514622DACCEBC40BABF1180B0CF108031D
:1013F000E646CDE90067524605E053E902674645F7
:1014000077EB090622DA53E90467C3E90067DEE9EE
:101410000067023ADE44C3E902671146A3F11003F4
:101420008644EAD5DDE9006700920231023400EB20
:10143000C101A542C1E90067C1E902890AF1020AB6
:101440000CF1100CC1DC03B0BDE8F08FDDE90067E2
:10145000EBE7704770B50D4B066883FB0623F41766
:10146000C4EB630404EBC404341B0DD1002E4568A7
:1014700009DD0835284609340821FFF79BFFA642FD
:1014800005F14805F6DC70BD09F0E6FA398EE3385F
:10149000F8B5436BBBB1866BAEB10546002400F1D5
:1014A0000C07EB6B53F824003A461030002352F837
:1014B000041F11B1092B07D0083001330A2BF6D1D4
:1014C0000134A642EDD1F8BDFFF7C4FFAE6B013485
:1014D000A642E6D1F7E700BF2DE9F043ADF5BF5DC9
:1014E00081B0374C05460E46002190461F460491B8
:1014F000059161602160FFF7CBFF3146E868FFF797
:101500008DFB01301DD0FFF77DFCF8B12D4B9842CB
:101510003BD031682C48FEF749FF616839B10A2297
:101520002846FEF757FF014660600028F7D1FFF715
:10153000CDFB002805D0ACBF244825483168FEF714
:1015400035FF0DF5BF5D01B0BDE8F0830DF1180961
:10155000FFF72CFB049959B30DF5C05330681B6895
:1015600002930DF5C053043301971B680093414665
:101570004B462A46FFF720FA0130CED04946049B5D
:10158000059A2846FFF76EFEC7E705AB3068019362
:1015900004AB00930DF5C053043302970DF1180905
:1015A0004A461B682946FFF74BFD0130D0D1B4E70E
:1015B00041F2C872484609F062FF059B0493CBE7ED
:1015C000808200206164636704CC0008E8CB0008D7
:1015D000C8CB00082DE9F041ADF53E5D8AB00DF5B0
:1015E000BF560AAB03AA88463146A3F1100504464C
:1015F000FEF7A0FF074602A8FFF71CF8284641F2B5
:10160000C872002109F03BFF54B120468DE860000C
:101610003B46424602A9FFF75FFF6468002CF4D105
:10162000029809F019FF0DF53E5D0AB0BDE8F081A2
:101630000179CB0700D5704710B50446C1F34001CE
:101640000068FFF7C7FF237943F00303237110BD40
:1016500010B5074C2046FFF7EBFFA3680BB1E2681B
:10166000DA60E2680AB1936010BD024A536010BDAF
:10167000F89A002070030020016809B1836B03B958
:10168000704770B5002204460C30FFF761FA20B1B4
:101690000B4D2B6813B163602C6070BD094E0A4A74
:1016A00031680C20FFF754FA20B17368AB6003B1C6
:1016B000DD607560054809F0D6F92B68EBE700BFDF
:1016C000F89A00207003002028CC0008511600086A
:1016D0007BB972B90029BEBF00204FF0004106E07F
:1016E00008BF00281CBF6FF000414FF0FF3000F032
:1016F000D9B9ADF1080C6DE904CE002909DB002B46
:101700001ADB00F061F8DDF804E0DDE9022304B043
:101710007047404261EB4101002B1BDB00F054F8A5
:10172000DDF804E0DDE9022304B0404261EB410151
:10173000524263EB43037047524263EB430300F0B2
:1017400043F8DDF804E0DDE9022304B0404261EB38
:1017500041017047524263EB430300F035F8DDF876
:1017600004E0DDE9022304B0524263EB4303704717
:1017700053B94AB9002908BF00281CBF4FF0FF31F8
:101780004FF0FF3000F08EB9ADF1080C6DE904CEDA
:1017900000F01AF8DDF804E0DDE9022304B0704738
:1017A000430803F05533C01A830803F0333300F0C5
:1017B0003330184400EB101000F00F3000EB002025
:1017C00000EB0040000E70472DE9F0478C460D46B7
:1017D0000446089E002B51D18A4217466DD9B2FAB1
:1017E00082FEBEF1000F0BD0CEF1200C01FA0EF5F7
:1017F00020FA0CFC02FA0EF74CEA050C00FA0EF483
:101800004FEA174A250CBCFBFAF81FFA87F90AFBC6
:1018100018CC45EA0C4508FB09F3AB420AD9ED198F
:1018200008F1FF3280F02381AB4240F22081A8F121
:1018300002083D44ED1AA4B2B5FBFAF00AFB1055BC
:1018400044EA054400FB09F9A14509D9E41900F16E
:10185000FF3380F00A81A14540F2078102383C4401
:10186000A4EB090440EA08400021002E61D024FACC
:101870000EF4002334607360BDE8F0878B4207D913
:10188000002E54D0002186E821000846BDE8F087EC
:10189000B3FA83F1002940F08E80AB4202D382423A
:1018A00000F2FA80841A65EB03050120AC46002E95
:1018B0003FD086E81010BDE8F08712B90127B7FBCA
:1018C000F2F7B7FA87FEBEF1000F34D1EB1B3A0CEA
:1018D0001FFA87FC0121B3FBF2F8250C02FB183339
:1018E00045EA03450CFB08F3AB4207D9ED1908F1B3
:1018F000FF3002D2AB4200F2D1808046ED1AA3B293
:10190000B5FBF2F002FB105543EA05440CFB00FC6A
:10191000A44507D9E41900F1FF3302D2A44500F22F
:10192000B8801846A4EB0C0440EA08409DE7314615
:101930003046BDE8F087CEF1200405FA0EF307FA31
:101940000EF720FA04F83A0C25FA04F448EA0308E2
:10195000B4FBF2F14FEA184502FB11441FFA87FC71
:1019600045EA044501FB0CF3AB4200FA0EF409D939
:10197000ED1901F1FF3080F08A80AB4240F28780A0
:1019800002393D44EB1A1FFA88F5B3FBF2F002FB73
:10199000103345EA034500FB0CF3AB4207D9ED19C0
:1019A00000F1FF386FD2AB426DD902383D44EB1ADB
:1019B00040EA01418FE7C1F1200722FA07F88B4086
:1019C00005FA01F448EA030320FA07FE4FEA134C34
:1019D000FD404EEA040EB5FBFCF94FEA1E440CFB39
:1019E00019551FFA83F844EA054509FB08F4AC428F
:1019F00002FA01F200FA01FA08D9ED1809F1FF30F4
:101A000043D2AC4241D9A9F102091D442D1B1FFA52
:101A10008EFEB5FBFCF00CFB10554EEA054400FBB6
:101A200008F8A04507D9E41800F1FF3529D2A045F0
:101A300027D902381C4440EA0940A4EB0804A0FB63
:101A400002894C45C6464D4615D312D056B1BAEB65
:101A50000E0364EB050404FA07F7CB401F43CC40A8
:101A6000376074600021BDE8F0871846F8E69046BC
:101A7000E0E6C245EAD2B8EB020E69EB0305013895
:101A8000E4E72846D7E7404691E78146BEE70146AE
:101A900078E702383C4445E7084608E7A8F1020821
:101AA0003D442BE7704700BF034613F8012B002A83
:101AB000FBD1181A01387047000000000000000038
:101AC00001F0FF01102A2BDB10F0070F08D010F8EF
:101AD000013B013A8B422DD010F0070F42B3F6D1F3
:101AE000F0B441EA012141EA014122F007047FF00C
:101AF00000070023F0E80256083C85EA010586EA63
:101B0000010685FA47F5A3FA87F586FA47F6A5FA9E
:101B100087F68EB9EED1F0BC01F0FF0102F00702AA
:101B200032B110F8013B013A83EA010313B1F8D155
:101B30000020704701387047002D06BF3546033836
:101B4000073815F0010F07D1013015F4807F02BF6F
:101B5000013015F4C03F0130F0BC0138704700BFC0
:101B6000037803B1704700B583B01A238DF80430B1
:101B70008DF80510022201A900F06EF903B05DF89E
:101B800004FB037803B1704700B583B01B238DF8C5
:101B900004308DF80510022201A900F05DF903B0B0
:101BA0005DF804FB0378BBB900B583B04B1EDBB214
:101BB000062B0FD8012303FA01F1C9B21C238DF8BB
:101BC00004308DF80510022201A900F045F903B098
:101BD0005DF804FB2021F1E770470378BBB900B53D
:101BE00083B04B1EDBB2062B0FD8012303FA01F1A1
:101BF000C9B21D238DF804308DF80510022201A909
:101C000000F02AF903B05DF804FB2021F1E77047EA
:101C100038B504460D46FFF7C5FF29462046FFF7B5
:101C2000DCFF38BD38B504460D46FFF799FF29465D
:101C30002046FFF7A6FF38BD00B583B08B1E9BB2D0
:101C4000B3F5FD7F0DD8C1F3470105238DF80430AE
:101C50008DF80510022201A900F0FEF803B05DF82E
:101C600004FBFA21F1E700B583B0022900D9022173
:101C700010238DF804308DF80510022201A900F020
:101C8000EBF803B05DF804FB00B583B0012900D97F
:101C9000002118238DF804308DF80510022201A9C7
:101CA00000F0DAF803B05DF804FB000000B585B081
:101CB000B5EEC00AF1EE10FA06D4DFED217AB4EEEB
:101CC000E70AF1EE10FA06DDB5EEC00AF1EE10FA01
:101CD00007DD9FED1B0A037833B1012B21D00023D0
:101CE00010E09FED180AF6E79FED157AC0EE077A2F
:101CF0009FED157A67EE877AFCEEE77ACDED017AF3
:101D0000BDF804301A0A1E218DF80C108DF80D3024
:101D10008DF80E20032203A900F09EF805B05DF8AF
:101D200004FB9FED077AC0EE077A9FED087A67EE15
:101D3000877AFCEEE77ACDED017ABDF80430E1E771
:101D4000000096430000000000C07F4400F07F4583
:101D500010B504460222242100F00AF9A3782BB31F
:101D6000237893B1012B24D14FF4967303FB00F039
:101D700007EE900AB8EEE77B9FED0F5B87EE056BF1
:101D8000B7EEC66B84ED016A10BD4FF4967303FB8A
:101D900000F007EE900AB8EEE77B9FED095B87EE57
:101DA000056BB7EEC66B84ED016A10BD4FF0FF43C3
:101DB000636010BDAFF300800000000000FEAF4084
:101DC0000000000000F88F4010B504460268136858
:101DD00023F0C003136003689A6812F0800F0AD0E2
:101DE0009A6822F080029A60036E23B100221A657D
:101DF000006E00F037FD0020A4F85200202384F884
:101E0000693010BD10B504460268136823F490735E
:101E100013600268936823F00103936003689A6873
:101E200012F0400F0AD09A6822F040029A60436E86
:101E300023B100221A65406E00F014FD0020A4F8C2
:101E40005A00202384F86A3010BD0000014B18703E
:101E5000704700BF00000020032A00F282802DE9B5
:101E6000F04182B043783F4C2478A3420AD01E460A
:101E7000951C03EBC3033C4C2344DD7103241C720B
:101E800000230BE00023F2E75F1DCD5C06EBC60EDE
:101E9000354C74443C4425710133DBB29342F3D397
:101EA000571D06EBC605314B1D440223002104E0FB
:101EB000EC5C2144C9B20133DBB29F42F8DC04463A
:101EC000C943DFF8A48006EBC60646443E443171A0
:101ED000961DF6B20122818B806900F0FDFE98F814
:101EE000003063B1022B1FD00123324629466069BE
:101EF00003F03AFA012383B302B0BDE8F081324621
:101F00002946606903F06CF9022301AA80210020B0
:101F100005F086F8012801D00023ECE7019B13F0BF
:101F2000800F16D00123E6E732462946606903F0A8
:101F3000DCF8022301AA8021002005F071F80128B5
:101F400001D00023D7E7019B13F0800F03D00123BA
:101F5000D1E70023CFE70023CDE76069FFF734FF27
:101F6000CAE77047C2C50008000000200400002036
:101F70002DE9F04383B0054617464478754B1B782E
:101F80009C420ED02646744A04EBC4041019042364
:101F9000C371022303724172877204321444002217
:101FA00006E00024EEE7E15C0A44D2B20133DBB282
:101FB000062BF8DDD24306EBC601674B0B44DA7201
:101FC000012F22D04FF008090122A98BA86900F047
:101FD00083FE0122A98BA86900F07EFE5E4B1B7870
:101FE000B3B1022B29D0012308222146686903F0EE
:101FF000BBF90124002C39D0002C3BD10023AB705D
:102000004FF6FF7003B0BDE8F0834FF00709DBE740
:1020100008222146686903F0E3F8022301AA80211F
:10202000002004F0FDFF012801D00024E2E7019B1D
:1020300013F0800F16D00124DCE7082221466869DE
:1020400003F053F8022301AA8021002004F0E8FFE6
:10205000012801D00024CDE7019B13F0800F03D0AD
:102060000124C7E70024C5E70024C3E76869FFF738
:10207000ABFEC1E7394B03EBC6080022A98BA86968
:1020800000F02AFE344B1B7873B1022B21D00123C0
:102090004A464146686903F0CDF97CB394BB0023FE
:1020A000AB704FF6FF70ADE74A464146686903F0F2
:1020B000DDF8022301AA2021002004F0B1FF01284D
:1020C00001D00024E9E7019B13F0200FE5D10024A3
:1020D000E3E74A464146686903F02DF8022301AA66
:1020E0002021002004F09CFF012801D00024D4E727
:1020F000019B13F0200FD0D10024CEE76869FFF7D1
:1021000081FECBE709F1FF39144B03EBC60313F84B
:10211000090002230022994506DD18F803100A443D
:10212000D2B20133DBB2F6E7D343DBB2984214BF3D
:1021300000230123AB70094B03EBC6035B7998B214
:10214000022F7FF45FAF054A02EBC606B07943EA7F
:10215000002057E7C2C50008000000201C06002030
:1021600010B49DF808400470417000218170074947
:1021700041608160C1600121017442618361BDF8E9
:10218000043083835DF8044B704700BF000080BFBC
:10219000064B8363064BC363064B0364064BC36263
:1021A000064B0363064B4363704700BF58F6DABE25
:1021B0006749EBBE8F2513BDFA80EA3F1BA6B9C065
:1021C000BA0B7EBF00B583B000690623019300926D
:1021D00001230A46D02101F091F903B05DF804FB18
:1021E00010B52DED0E8B84B0044602AA3B21FFF7FB
:1021F000E9FF002840F09480022301AA202100205A
:1022000004F00EFF012840F08B80019B13F0200F9B
:10221000F2D09DF808301B021BB29DF80920134331
:102220000EEE103A9DF80A301B021BB29DF80B20EF
:10223000134308EE103A9DF80C301B021BB29DF8B8
:102240000D20134308EE903AB8EECEEA9FED3E7AA9
:102250002EEE07EADFED3D7A2EEE27EAD4ED0E6A88
:102260003EEE66EAF1EE4E6AC4ED086AB8EEC88A40
:1022700028EE078A28EE278AD4ED0F6A38EE668AA0
:10228000B1EE488A84ED098AF8EEE88A68EE878A1A
:1022900068EEA78AD4ED107A78EEE78AF1EE688AC4
:1022A000C4ED0A8A94ED119AB7EEC99A9FED1EDB30
:1022B00029EE0D9BB7EEE81AB7EEC80A08F062F9EE
:1022C0009FED1BAB20EE0A0B9FED1BCB80EE0C7B32
:1022D0009FED1BBB07EE0B9BB7EEC99B84ED119ADC
:1022E00094ED127AB7EEC77A27EE0DDB28EE088A56
:1022F00068EEA88A38EE280AB7EEC00A08F044F95A
:10230000B0EE401BB7EECE0A08F03CF920EE0A0B07
:1023100080EE0C7B07EE0BDBB7EECDDB84ED12DA43
:1023200004B0BDEC0E8B10BD666666666666EE3F59
:102330000000000000806640182D4454FB21094035
:102340009A9999999999A93FC3F51C410000803841
:1023500010B584B0044602AA4321FFF733FF0028DA
:1023600046D1022301AA2021002004F059FE0128B1
:102370003ED1019B13F0200FF3D09DF808301B02D3
:102380001BB29DF80920134307EE103A9DF80A305E
:102390001B021BB29DF80B20134307EE903A9DF8E9
:1023A0000C301B021BB29DF80D201343B8EEC77A08
:1023B000DFED106A87EE266A94ED0B7A36EE477AE7
:1023C00084ED057AF8EEE77A87EEA67AD4ED0C7AFA
:1023D00077EE677AC4ED067A07EE903AF8EEE77A80
:1023E00087EEA67AD4ED0D7A77EE677AC4ED077A98
:1023F00004B010BD0000034310B586B006AC04F86D
:10240000012D00690A2302930123019300940A46D7
:10241000D02100F0AFFE06B010BD10B504460D226D
:102420002421FFF7E9FF00221C212046FFF7E4FFEB
:1024300000221B212046FFF7DFFF00226B212046F0
:10244000FFF7DAFF00226C212046FFF7D5FF0422B8
:1024500019212046FFF7D0FF402323720023A363F6
:10246000E3632364E3622363636310BD00B587B055
:1024700000694FF47A730293012301930DF117025F
:1024800000920A46D02100F057FF9DF8170007B0D0
:102490005DF804FB38B504460D461A21FFF7E6FF48
:1024A00020F0070252B22A43D2B21A212046FFF787
:1024B000A3FF38BD10B50446302200210C3008F0CF
:1024C000DEFF0023E36310BD08B5FFF7F3FF08BD8F
:1024D00010B5064C2046FFF7F7FF04F14000FFF768
:1024E000F3FF04F18000FFF7EFFF10BDAC06002002
:1024F000044BD3F8BC20C261DA6F8261DB6B4361AD
:10250000704700BFAC06002008B5032000F01AF8A1
:10251000002007F041FB07F0F7FA002008BD00009B
:10252000034A1168034B1B780B441360704700BFCC
:1025300028830020B0000020014B1868704700BFBE
:10254000288300200649CB6823F4E0631B041B0C9E
:10255000000200F4E0600343024A1A43CA60704775
:1025600000ED00E00000FA0530B4144BDB68C3F363
:102570000223C3F10704042C28BF04241D1D062DCB
:1025800013D9033B012505FA04F4013C214099408D
:1025900005FA03F3013B13401943002807DB090147
:1025A000C9B2074B195430BC70470023EAE700F06A
:1025B0000F000901C9B2034B1954F4E700ED00E024
:1025C00000E400E014ED00E0420900F01F000123E8
:1025D00003FA00F0014B43F82200704700E100E0ED
:1025E0000138B0F1807F0AD2064B5860F021064ACC
:1025F00082F823100020986007221A60704701209B
:10260000704700BF10E000E000ED00E0042805D0B6
:10261000054A136823F0040313607047024A1368E5
:1026200043F004031360704710E000E030B4056825
:102630002C6824F480242C60046863608368402B39
:1026400005D0036899600368DA6030BC704703689E
:102650009A600368D960F8E70268D3B2103B094971
:10266000A1FB03131B090849C95CC165032B04D8EE
:10267000064B13408365806D7047044B1340043351
:102680008365F8E7ABAAAAAAC4C5000800FCFFFF4F
:10269000836A826992B9012B0AD01BB1022B01D047
:1026A00000207047C36A13F0807F2CD10020704750
:1026B000C36AB3F1C07F28D000207047B2F5005F35
:1026C00005D0022B29D9032B15D000207047032BEE
:1026D00003D8DFE803F01C041C0A00207047C36A1B
:1026E00013F0807F15D100207047C36AB3F1C07F1B
:1026F00011D000207047C36A13F0807F01D0012001
:10270000704700207047012070470120704701206A
:10271000704701207047012070470120704700007A
:1027200070B50446FFF708FF002C5DD00546002376
:1027300084F83430022384F835302268136823F09B
:102740000103136023681A6812F0010F0AD0FFF723
:10275000F3FE401B0528F5D920236365032084F888
:10276000350070BD1A68214911406268A0680243B3
:10277000E06802432069024360690243A0690243A2
:10278000E0690243206A02430A43616A042916D0C1
:102790001A602668756925F00705636A1D43042BD6
:1027A00012D075612046FFF757FFE26D3F2393403B
:1027B000836000206065012384F8353070BDE16AD4
:1027C000206B01430A43E3E7A36A1D43E36A002B3E
:1027D000E7D02046FFF75CFF0028E2D04023636586
:1027E000012084F8350070BD012070BD3F8010E0ED
:1027F00038B5856D90F83440012C31D0012480F833
:10280000344090F83540E4B2012C04D0002380F825
:102810003430022038BD0446022084F83500002000
:1028200060652046FFF702FFE26D3F239340AB60F7
:102830002268136843F0160313602268536943F05B
:1028400080035361236C23B12268136843F00803AB
:1028500013602268136843F001031360002038BD41
:10286000022038BD70B50446866DFFF765FE94F80A
:102870003530DBB2022B06D080236365002384F859
:102880003430012070BD05462268136823F016031A
:1028900013602268536923F080035361236CE3B112
:1028A0002268136823F0080313602268136823F07A
:1028B0000103136023681B6813F0010F11D0FFF7A9
:1028C0003BFE401B0528F5D920236365002384F8CF
:1028D0003430032084F8350070BDA36C002BDFD1A9
:1028E000E3E7E26D3F239340B360002084F83400B7
:1028F000012384F8353070BD90F83530DBB2022BFF
:1029000003D08023436501207047052380F83530CC
:102910000268136823F00103136000207047000071
:10292000F0B583B0044600230193724B1D68724BCF
:10293000A3FB0535AD0A876D3E68C26D0823934041
:102940001E4210D003681A6812F0040F0BD01A68E8
:1029500022F004021A60C26D08239340BB60436DED
:1029600043F001034365E26D012393401E4209D009
:102970002268526912F0800F04D0BB60636D43F08F
:1029800002036365E26D042393401E4209D022686E
:10299000126812F0020F04D0BB60636D43F00403B1
:1029A0006365E26D102393401E4224D022681268B2
:1029B00012F0080F1FD0BB6023681A6812F4802F32
:1029C0000DD01B6813F4002F04D1236C9BB120465B
:1029D000984710E0A36C73B1204698470BE01A6843
:1029E00012F4807F03D11A6822F008021A60236C67
:1029F0000BB120469847E26D202393401E4255D0EC
:102A00002268126812F0100F50D0BB6094F8353075
:102A1000DBB2052B0ED023681A6812F4802F33D056
:102A20001B6813F4002F2AD1636C002B3ED0204684
:102A300098473BE02268136823F01603136022686E
:102A4000536923F080035361236CA3B12268136898
:102A500023F008031360E26D3F239340BB60002323
:102A600084F83430012384F83530236D002B3FD0B7
:102A7000204698473CE0A36C002BE7D1EBE7E36BE3
:102A8000A3B12046984711E01A6812F4807F09D15B
:102A90001A6822F010021A60002384F834300123EF
:102AA00084F83530E36B0BB120469847636DFBB17A
:102AB000636D13F0010F17D0052384F835302268B9
:102AC000136823F001031360019B013301939D42BE
:102AD00004D323681B6813F0010FF5D1002384F899
:102AE0003430012384F83530E36C0BB1204698472D
:102AF00003B0F0BD6C030020B5814E1BF0B583B070
:102B0000002437E0092600E0002606FA0EF63243DC
:102B100002336C4E46F823206B4B1A68EB4302EAF3
:102B200003064F6817F4803F01D045EA0206664A63
:102B30001660526803EA02064F6817F4003F01D09E
:102B400045EA0206604A5660926803EA02064F6848
:102B500017F4801F01D045EA02065B4A9660D268EE
:102B600013404E6816F4001F01D045EA0203564A8E
:102B7000D36001340F2C00F2A3800123A3400A6824
:102B800003EA0205AB42F4D14A68122A18BF022AAE
:102B900012D14FEAD40E0EF1080E50F82E2004F098
:102BA0000706B6000F27B74022EA07020F6907FAA7
:102BB00006F6324340F82E2006684FEA440E032200
:102BC00002FA0EF2D24316404F6807F0030707FAE5
:102BD0000EF73E4306604E68771E112E18BF012F78
:102BE00001D9122E0FD186681640CF6807FA0EF76A
:102BF0003E438660466826EA03034E68C6F3001625
:102C0000A64033434360C3681A408B6803FA0EF34F
:102C10001A43C2604B6813F0805FAAD02B4B5A6CEA
:102C200042F480425A645B6C03F480430193019B3D
:102C3000A3089E1C234A52F8262004F003064FEAFC
:102C4000860E0F2606FA0EF622EA0602204FB8423A
:102C50003FF45AAF1F4EB04222D006F58066B04214
:102C600020D006F58066B0421ED006F58066B042E0
:102C70001CD006F58066B0421AD006F58066B042D8
:102C800018D006F58066B04216D006F58066B042D0
:102C900014D006F58066B0423FF434AF0A2634E71C
:102CA000012632E7022630E703262EE704262CE72A
:102CB00005262AE7062628E7072626E7082624E72A
:102CC00003B0F0BD00380140003C01400038024034
:102CD000000002400004024012B9090481617047FB
:102CE0008161704703689A6912F0020F01D00022D7
:102CF0009A6203689A6912F0010F03D19A6942F04F
:102D000001029A61704770B4039D066870686C0D8B
:102D100004F4806444F07F7444F4583444F47F74C1
:102D200044F0030420EA0400C1F3090141EA02412E
:102D3000194329430843706070BC7047436B1E4AB7
:102D400093421AD01D4A934217D011F0040F2DD18F
:102D5000002311F0010F01D043F0F20311F0020F34
:102D600001D043F0F40301F01201122920D00268CF
:102D700011680B4313600020704711F0040F0DD150
:102D8000002301F01102112A0AD001F012011229C8
:102D900009D01229EBD143F04003E8E7B823F0E76C
:102DA00043F09003F1E743F02003F2E7B823D0E7C4
:102DB00043F02003DBE700BF373E00084B3B000831
:102DC00010B411F0010F09D090F8413003F028033E
:102DD000282B01D0F22302E0422300E0002311F06F
:102DE000020F09D043F0440490F8412002F0280279
:102DF000282A19D043F0F40311F0040F01D043F056
:102E0000B80301F01102112A10D001F012011229A9
:102E10000FD0122910D001680A6822EA03030B6060
:102E200000205DF8044B70472346E5E743F090032C
:102E3000EBE743F02003ECE743F04003EBE770B52A
:102E400004460D46164603689B6913F0100F17D011
:102E500023689A6912F0200F14D1B5F1FF3FF7D023
:102E600025B1FFF769FB801B8542F1D2202384F84E
:102E70004130002384F8423084F84030032070BD94
:102E8000002070BD1022DA6123682025DD61204614
:102E9000FFF728FF2268536823F0FF7323F48B3376
:102EA00023F4FF7323F0010353600423636484F865
:102EB0004150002384F8423084F84030012070BD36
:102EC00070B504460D46164623689B6913F0020F41
:102ED0001CD1324629462046FFF7B1FFC0B9B5F1F3
:102EE000FF3FF1D025B1FFF727FB801B8542EBD2D6
:102EF000636C43F020036364202384F84130002393
:102F000084F8423084F84030032070BD002070BD4A
:102F1000012070BDF8B505460F4616461C462B68C5
:102F20009B6937EA03030CBF01230023B34213D18B
:102F3000B4F1FF3FF3D02CB1FFF7FEFA069BC01AA5
:102F40008442ECD2202385F84130002385F84230BA
:102F500085F840300320F8BD0020F8BD70B582B080
:102F6000044616461D461E4B00934FF08073EAB28E
:102F7000FFF7C9FE079A06992046FFF7A1FF40B167
:102F8000636C042B03D00323184602B070BD0123E9
:102F9000FAE7012D0DD02368320A9A62079A069942
:102FA0002046FFF78DFFB0B1636C042B11D00323D3
:102FB000EAE72368F6B29E62079B0093069B002215
:102FC00080212046FFF7A6FF03460028DCD003231C
:102FD000DAE70123D8E72368F6B29E62ECE700BF88
:102FE0000020008070B582B0044616461D461D4B79
:102FF00000930023EAB2FFF786FE079A069920465F
:10300000FFF75EFF40B1636C042B03D00323184627
:1030100002B070BD0123FAE7012D0DD02368320AFA
:103020009A62079A06992046FFF74AFFB0B1636C8F
:10303000042B11D00323EAE72368F6B29E62079BB4
:103040000093069B002240212046FFF763FF0346C2
:103050000028DCD00323DAE70123D8E72368F6B29F
:103060009E62ECE70020008070B505460C461646CF
:103070002B689B6913F0200F19D132462146284650
:10308000FFF7DDFEA8B924B1FFF756FA801B844292
:10309000EED26B6C43F020036B64202385F8413043
:1030A000002385F8423085F84030032070BD0020B1
:1030B00070BD012070BD0000002857D010B5044637
:1030C00090F84130002B41D0242384F8413022680D
:1030D000136823F0010313602268636823F07063B0
:1030E00013612268936823F400439360E368012B23
:1030F00031D02268A36843F404439360E368022B51
:103100002FD0226851681A4B0B4353602268D36852
:1031100023F40043D3602268236961690B43A169EA
:1031200043EA0123D3602268E369216A0B431360F9
:103130002268136843F001031360002060642023B9
:1031400084F84130206384F8420010BD80F840309C
:1031500006F00CFBB8E72268A36843F400439360D1
:10316000CCE723684FF400625A60CAE70120704739
:10317000008000022DE9F04782B0BDF82C5090F895
:103180004140E4B2202C04D00223184602B0BDE82E
:10319000F0870A9C002D18BF002C00F0C98090F821
:1031A0004040012C01D10223EFE7984691460E469C
:1031B00004464FF0010A80F840A0FFF7BDF907462A
:1031C0000090192352464FF400412046FFF7A2FE1B
:1031D00008B10323D9E7212384F84130402384F840
:1031E0004230002363640A9A6262658563630197D3
:1031F0000C9B009343464A4631462046FFF7AEFEFD
:1032000060B1636C042B04D0002384F840300323A6
:10321000BBE7002384F840305346B6E7638D9BB28A
:10322000FF2B0AD9FF222285002300934FF08073E1
:1032300031462046FFF767FD23E0628D92B222857A
:10324000002300934FF00073D2B231462046FFF7BF
:103250005AFD16E0636C042B01D0032395E701238C
:1032600093E7628D92B22285002300934FF00073A2
:10327000D2B231462046FFF746FD638D9BB2002B4C
:1032800032D03A460C992046FFF71AFE0028E1D1C9
:103290002268636A591C61621B789362638D9BB2DA
:1032A000013B9BB26385238D013B9BB22385002BA1
:1032B000E3D1638D9BB2002BDFD000970C9B0022E3
:1032C00080212046FFF726FEA0BB638D9BB2FF2B1B
:1032D000C7D9FF222285002300934FF08073314627
:1032E0002046FFF710FDC8E73A460C992046FFF745
:1032F000BBFE034630B1636C042B01D0032344E7CB
:10330000012342E722682021D1612068426822F02F
:10331000FF7222F48B3222F4FF7222F0010242602B
:1033200084F84110002284F8422084F840202CE7E1
:1033300001232AE7032328E72DE9F04782B0BDF8EF
:103340002C5090F84140E4B2202C04D002231846BF
:1033500002B0BDE8F0870A9C002D18BF002C00F0D9
:10336000C48090F84040012C01D10223EFE7984639
:1033700091460E4604464FF0010A80F840A0FFF740
:10338000DBF807460090192352464FF400412046CF
:10339000FFF7C0FD08B10323D9E7222384F84130A9
:1033A000402384F84230002363640A9A6262658590
:1033B000636301970C9B009343464A46314620467F
:1033C000FFF710FE60B1636C042B04D0002384F877
:1033D00040300323BBE7002384F840305346B6E770
:1033E000638D9BB2FF2B0AD9FF222285424B0093AB
:1033F0004FF0807331462046FFF785FC1CE0628D5C
:1034000092B222853C4B00934FF00073D2B231460A
:103410002046FFF778FC0FE0628D92B222850023F0
:1034200000934FF00073D2B231462046FFF76BFC99
:10343000638D9BB2002B34D000970C9B002204219B
:103440002046FFF767FD002851D1636A5A1C62626B
:103450002268526A1A70228D013A92B22285638DD7
:103460009BB2013B9BB26385002AE1D1638D9BB285
:10347000002BDDD000970C9B80212046FFF74AFDF2
:10348000002836D1638D9BB2FF2BC5D9FF22228540
:10349000002300934FF0807331462046FFF733FC42
:1034A000C6E73A460C992046FFF7DEFD034630B1E9
:1034B000636C042B01D0032349E7012347E722680B
:1034C0002021D1612068426822F0FF7222F48B3201
:1034D00022F4FF7222F00102426084F841100022BF
:1034E00084F8422084F8402031E701232FE70323AA
:1034F0002DE703232BE700BF002400802DE9F041D6
:1035000082B0BDF8245090F84140E4B2202C04D0A1
:103510000224204602B0BDE8F081089C002D18BFAF
:10352000002C64D00468A46914F4004F01D0022474
:10353000EFE790F84040012C01D10224E9E71F4653
:1035400014460E468046012380F84030FEF7F4FF13
:10355000222388F84130402388F842300023C8F8FD
:103560004430089BC8F82430A8F82A50214BC8F8EA
:103570002C30214BC8F83430B8F82A309BB2FF2BDE
:1035800018D9FF23A8F828304FF08075019019232F
:1035900000933B46224631464046FFF723FD044652
:1035A000A0B1D8F84430042B0BD0002388F8403069
:1035B0000324AEE7B8F82A30A8F828304FF0007599
:1035C000E4E7002388F840300124A2E798F8282097
:1035D0000A4B00932B4631464046FFF794FB0023ED
:1035E00088F8403002214046FFF7A8FB91E701240C
:1035F0008FE700BF0000FFFFBF3C000800240080F1
:1036000008B5036899691A68436B03B1984708BD08
:103610007047704738B50446002380F8423090F870
:103620004130DBB2212B0FD0202380F84130122310
:103630000363002545630221FFF7C2FB84F8405075
:103640002046FFF7E6FF38BD202380F841301123E4
:103650000363002545630121FFF7B2FB84F8405066
:103660002046FFF7D5FF38BD7047704710B50446B8
:10367000002380F8423090F84130DBB2292B05D08E
:1036800090F84130DBB22A2B0FD010BD282380F8F0
:103690004130212303630121FFF792FB002384F8CB
:1036A00040302046FFF7E0FF10BD282380F841306E
:1036B000222303630221FFF783FB002384F84030B9
:1036C0002046FFF7D2FFE0E77047F8B590F84130A9
:1036D00003F02803282B06D003680822DA610023B0
:1036E00080F84030F8BD044603689E69C6F3004682
:1036F0009A69120C02F0FE059A68C2F30902DF68AB
:1037000007F0FE07C168022921D185EAD21515F01C
:10371000060F10D1816C01318164816C0229E1D1E5
:10372000002181640820D86184F840103146204689
:10373000FFF7CAFFF8BD0421FFF742FB002384F81E
:1037400040303A4631462046FFF7BEFFF8BD04211F
:10375000FFF736FB002384F840302A4631462046E6
:10376000FFF7B2FFF8BD704710B50446164BC362B1
:1037700000230363202280F8412080F84230436315
:1037800011F0040F12D0436A5A1C42620268526A56
:103790001A70038D53B1013B0385438D9BB2013BEE
:1037A0009BB24385436C43F00403436407212046E6
:1037B000FFF706FB23681022DA61002384F840300B
:1037C0002046FFF7D0FF10BD0000FFFF7047704795
:1037D0007047000010B50446002380F842303A4A92
:1037E000C2624385436C1943416490F84130DBB2B7
:1037F000282B18D090F84130DBB2292B13D090F849
:103800004130DBB22A2B0ED00721FFF7D9FA94F80A
:103810004130DBB2602B02D0202384F841300023FA
:10382000236363630AE003212046FFF7C9FA2823D4
:1038300084F8413000232363244B636323681A68B0
:1038400012F4804F0FD11A6812F4004F1ED194F871
:103850004130DBB2602B2CD0002384F8403020466E
:10386000FFF7B5FF10BD1A6822F480421A60A36BFF
:10387000174A1A65002384F84030A06BFFF73CF824
:103880000028EFD0A06B036D984710BD1A6822F492
:1038900000421A60E36B0E4A1A65002384F8403038
:1038A000E06BFFF729F80028DCD0E06B036D984748
:1038B00010BD202384F84130002384F84030204696
:1038C000FFF786FF10BD00BF0000FFFFFD390008B5
:1038D0001B3F000838B504460D4603682022DA6114
:1038E00003680822DA610721FFF76AFA2268536841
:1038F00043F4004353602268536823F0FF7323F4BA
:103900008B3323F4FF7323F0010353602046FFF74A
:10391000E9F92268136813F4804F03D1136813F494
:10392000004F09D094F84130DBB2212B3AD0E36B41
:103930001B685B689BB26385638D9BB21BB1636C34
:1039400043F00403636415F0040F11D0636A591C3B
:103950006162526A1A70238D53B1013B2385638DD6
:103960009BB2013B9BB26385636C43F004036364C9
:103970000023236384F842306363636CBBB9E36A5A
:1039800013F5803F21D194F84130DBB2222B28D0AF
:10399000202384F84130002384F840302046FFF78C
:1039A00063FE38BDA36B1B685B689BB2C3E7616CA9
:1039B0002046FFF70FFF94F84130DBB2282BF0D1FF
:1039C00029462046FFF7D0FE38BD0B4BE36220238B
:1039D00084F84130002384F840302046FFF7C3FECE
:1039E00038BD202384F84130002384F8403020463D
:1039F000FFF73BFE38BD00BF0000FFFF90F84030EE
:103A0000012B00F0A08070B516460D460446012338
:103A100080F8403011F0100F3FD012F0100F3CD062
:103A2000438D9BB243BBC36AB3F1007F10D0C36A1E
:103A3000B3F1007F0CD0E36A13F5803F04D094F813
:103A40004130DBB2292B0DD023681022DA611AE055
:103A500094F84130DBB2282BEDD129462046FFF700
:103A600083FE10E023681022DA612046FFF73AF95E
:103A70002046FFF7FBFD06E003681022DA61436C85
:103A800043F00403436415F0200F02D016F0200F1A
:103A900054D1002084F8400070BD15F0040F1FD0F1
:103AA00016F0040F1CD0638D9BB26BB1636A5A1C75
:103AB00062622268526A1A70238D013B2385638DEE
:103AC0009BB2013B9BB26385638D9BB2002BDAD125
:103AD000E36A13F5803FD6D02046FFF7C7FDD2E753
:103AE00015F0080F02D016F0080F17D115F0020FCD
:103AF000C9D016F0020FC6D0638D9BB29BB122686D
:103B0000636A591C61621B789362638D9BB2013BAF
:103B10009BB26385238D013B2385B4E7294620466C
:103B2000FFF7D3FDAFE7E36AB3F1807F02D0E36A2A
:103B3000002BA8D12046FFF799FDA4E7294620468F
:103B4000FFF7C8FEA5E70220704790F84030012B30
:103B500041D010B50446012380F8403011F0100F19
:103B600021D012F0100F1ED090F84130DBB2212B83
:103B70000AD0C36B1B685B68B3FA83F35B0953B16C
:103B800023681022DA611EE0836B1B685B68B3FA5E
:103B900083F35B09F3E723681022DA61636C43F077
:103BA000040363640FE011F0080F06D012F0080F51
:103BB00003D023680822DA6105E011F0200F02D05B
:103BC00012F0200F03D1002084F8400010BD2046E1
:103BD000FFF780FEF7E70220704710B50446036840
:103BE0002022DA610268536823F0FF7323F48B33D9
:103BF00023F4FF7323F00103536000230363436343
:103C0000A3F58033C36211F0100F06D003681022B1
:103C1000DA61436C43F0040343642046FFF762F823
:103C200003212046FFF7CCF8636C7BB994F8413050
:103C3000DBB2602B0AD094F84130DBB2212B0AD0E2
:103C400094F84130DBB2222B1FD010BD616C2046AE
:103C5000FFF7C0FD10BD202384F8413094F84230B6
:103C6000DBB2402B08D0002384F8423084F8403087
:103C70002046FFF7CDFC10BD002384F8423084F8C5
:103C800040302046FFF7A2FD10BD202384F84130CC
:103C900094F84230DBB2402B08D0002384F8423045
:103CA00084F840302046FFF7B4FCCEE7002384F8C8
:103CB000423084F84030204605F0EEF910BD90F80F
:103CC0004030012B00F0B58070B582B016460D462D
:103CD0000446012380F8403011F0100F02D012F09A
:103CE000100F1FD115F0040F26D016F0040F23D0AB
:103CF000636A5A1C62622268526A1A70238D013B01
:103D00002385638D9BB2013B9BB2638515F0200F29
:103D100003D016F0200F40F08780002084F8400088
:103D200002B070BD03681022DA61436C43F00403F3
:103D30004364FEF7D7FFE9E715F0020F11D016F044
:103D4000020F0ED02268636A591C61621B7893626D
:103D5000238D013B2385638D9BB2013B9BB2638521
:103D6000D4E715F0800F3FD016F0400F3CD0238DE4
:103D700063BB638D9BB24BB323685968C1F30901E0
:103D8000638D9BB2FF2B0ED8628D92B22285E36ABF
:103D900013F5803F11D0E36A00200090D2B2204694
:103DA000FEF7B1FFB2E7FF222285002300934FF018
:103DB00080732046FEF7A7FFA8E7002300934FF08B
:103DC0000073D2B22046FEF79EFF9FE723685B6830
:103DD00013F0007F03D12046FFF71CFC96E740213B
:103DE0002046FFF7F7FC91E715F0400F8ED016F054
:103DF000400F8BD0638D9BB28BB923685A6812F049
:103E0000007F83D1E26A12F5803F03D02046FFF79E
:103E100001FC7BE75A6842F480425A6076E7402111
:103E20002046FFF7D7FC71E729462046FFF7D5FE6D
:103E300073E70220704790F84030012B6BD010B52B
:103E400082B00446012380F8403011F0100F02D0F8
:103E500012F0100F32D111F0800F4DD012F0400F40
:103E60004AD02268136823F040031360638D9BB22D
:103E7000002B3CD023685968C1F30901638D9BB2C4
:103E8000FF2B29D9FF2323854FF0807394F8282036
:103E9000002000902046FEF736FF638D9BB2228DF6
:103EA0009B1A9BB2638594F84130DBB2222B18D069
:103EB0002268136843F48043136023E003681022F0
:103EC000DA61436C43F0040343641221FEF736FFCA
:103ED0002046FEF707FF15E0638D23854FF0007342
:103EE000D4E72268136843F4004313600AE04021DA
:103EF0002046FFF76FFC05E011F0200F02D012F012
:103F0000200F04D1002084F8400002B010BD2046EC
:103F1000FFF763FEF6E70220704708B5806B026882
:103F2000536843F400435360826B00231365C26BF4
:103F3000136590F84130DBB2602B02D0FFF747FCED
:103F400008BD202380F84130FFF742FC08BD90F8FF
:103F50004130DBB2202B01D00220704790F8403076
:103F6000012B20D0012380F84030242380F84130F9
:103F70000268136823F0010313600268136823F4D6
:103F80008053136002681368194311600268136854
:103F900043F001031360202380F84130002380F8B0
:103FA0004030184670470220704790F84130DBB22D
:103FB000202B01D00220704790F84030012B1ED0FA
:103FC000012380F84030242380F8413002681368D0
:103FD00023F0010313600268136823F4706343EA5B
:103FE000012111600268136843F00103136020236C
:103FF00080F84130002380F8403018467047022096
:104000007047000010B582B01B4B1A6C42F0805212
:104010001A641B6C03F080530193019B174A1368C9
:1040200043F480331360FEF787FA0446134B5B6852
:1040300013F4803F08D1FEF77FFA001BB0F57A7FBA
:10404000F4D9032002B010BD0C4A136843F40033C6
:104050001360FEF771FA0446084B5B6813F4003FE7
:1040600007D1FEF769FA001BB0F57A7FF4D9032077
:10407000E8E70020E6E700BF00380240007000409B
:10408000002800F0DC8170B582B00446036813F0AC
:10409000010F3AD0A24B9B6803F00C03042B2BD0EA
:1040A0009F4B9B6803F00C03082B20D06368B3F58B
:1040B000803F50D0002B54D1994B1A6822F48032A3
:1040C0001A601A6822F480221A606368002B5FD09D
:1040D000FEF732FA0546924B1B6813F4003F14D1E9
:1040E000FEF72AFA401B6428F5D90320ACE18C4B7B
:1040F0005B6813F4800FD9D0894B1B6813F4003F21
:1041000003D06368002B00F09C81236813F0020F3A
:1041100064D0834B9B6813F00C0F4DD0804B9B6891
:1041200003F00C03082B42D0E368002B79D07C4AC3
:10413000136843F001031360FEF7FEF90546784B60
:104140001B6813F0020F63D1FEF7F6F9401B02283B
:10415000F5D9032078E1724A136843F48033136081
:10416000B3E7B3F5A02F09D06D4B1A6822F4803263
:104170001A601A6822F480221A60A6E7684B1A684F
:1041800042F480221A601A6842F480321A609CE776
:10419000FEF7D2F90546624B1B6813F4003FB4D01A
:1041A000FEF7CAF9401B6428F5D903204CE15C4BAB
:1041B0005B6813F4800FB7D1594B1B6813F0020FE3
:1041C00004D0E368012B01D001203DE1544A13687B
:1041D00023F0F803216943EAC1031360236813F055
:1041E000080F46D0636983B34D4A536F43F0010310
:1041F0005367FEF7A1F90546494B5B6F13F0020FB9
:1042000037D1FEF799F9401B0228F5D903201BE1AD
:10421000434A136823F0F803216943EAC10313609A
:10422000DCE73F4A136823F001031360FEF784F9CB
:1042300005463B4B1B6813F0020FCFD0FEF77CF90D
:10424000401B0228F5D90320FEE0354A536F23F0C6
:1042500001035367FEF770F90546314B5B6F13F0AE
:10426000020F06D0FEF768F9401B0228F5D903209B
:10427000EAE0236813F0040F7ED0294B1B6C13F087
:10428000805F31D1264B1A6C42F080521A641B6C4D
:1042900003F080530193019B0125224B1B6813F40B
:1042A000807F23D0A368012B34D0002B3CD11C4B42
:1042B0001A6F22F001021A671A6F22F004021A67BD
:1042C000A368002B46D0FEF737F90646144B1B6F48
:1042D00013F0020F4FD1FEF72FF9801B41F2883304
:1042E0009842F3D90320AFE00025D6E70D4A1368C2
:1042F00043F480731360FEF71FF90646094B1B68F1
:1043000013F4807FCED1FEF717F9801B6428F5D90E
:10431000032099E0024A136F43F001031367CFE7CC
:104320000038024000700040052B09D0484B1A6F3E
:1043300022F001021A671A6F22F004021A67BFE71F
:10434000434B1A6F42F004021A671A6F42F00102DF
:104350001A67B5E7FEF7F0F806463D4B1B6F13F002
:10436000020F08D0FEF7E8F8801B41F2883398422C
:10437000F3D9032068E0F5B9A369002B63D0344A70
:10438000926802F00C02082A60D0022B19D0304A41
:10439000136823F080731360FEF7CEF804462C4BAD
:1043A0001B6813F0007F48D0FEF7C6F8001B0228F8
:1043B000F5D9032048E0264A136C23F08053136498
:1043C000DAE7234A136823F080731360FEF7B4F82A
:1043D00005461F4B1B6813F0007F06D0FEF7ACF8B4
:1043E000401B0228F5D903202EE0E369226A13431B
:1043F000626A43EA8213A26A5208013A43EA02431C
:10440000E26A43EA0263226B43EA0273104A536092
:10441000136843F080731360FEF78EF804460C4B6C
:104420001B6813F0007F06D1FEF786F8001B0228F8
:10443000F5D9032008E0002006E0002004E0012078
:104440007047012000E0002002B070BD0120FBE7B2
:1044500000380240F8B5314B9B6803F00C03042B85
:1044600059D0082B01D02E48F8BD2C4B5A6802F0C9
:104470003F025B6813F4800F2AD0284B5B68C3F3BC
:1044800088131E4600275C010025E41A65EB07052A
:10449000A90141EA9461A001001B61EB0501CB0079
:1044A00043EA5073C400A01943EB07014B0243EAEF
:1044B000D0534402204619460023FDF759F9174B03
:1044C0005B68C3F3014301335B00B0FBF3F0F8BD5D
:1044D000124B5B68C3F388131E4600275C0100255E
:1044E000E41A65EB0705A90141EA9461A001001BEC
:1044F00061EB0501CB0043EA5073C400A01943EB04
:1045000007018B0243EA9053840220461946002398
:10451000FDF72EF9D3E70348F8BD00BF003802408D
:104520000024F40000127A00002800F0A28070B588
:104530000446524B1B6803F00F038B420CD24F4AC8
:10454000136823F00F030B431360136803F00F038A
:10455000994201D0012070BD236813F0020F17D0DB
:1045600013F0040F04D0464A936843F4E053936079
:10457000236813F0080F04D0414A936843F4604362
:1045800093603F4A936823F0F003A068034393606D
:104590000D46236813F0010F31D06368012B20D042
:1045A000022B25D0364A126812F0020F63D034492C
:1045B0008A6822F0030213438B60FDF7BDFF0646B5
:1045C0002F4B9B6803F00C036268B3EB820F16D08D
:1045D000FDF7B2FF801B41F288339842F0D90320E7
:1045E00070BD274A126812F4003FE0D1012070BD6F
:1045F000234A126812F0007FD9D1012070BD1F4BF1
:104600001B6803F00F039D420CD21C4A136823F071
:104610000F032B431360136803F00F039D4201D077
:10462000012070BD236813F0040F06D0144A93686C
:1046300023F4E053E1680B439360236813F0080F01
:1046400007D00F4A936823F46043216943EAC1030A
:104650009360FFF7FFFE0A4B9B68C3F30313094AFD
:10466000D35CD840084B1860002005F095FA002074
:1046700070BD01207047012070BD00BF003C0240AA
:10468000003802408CC700086C030020014B1868FA
:10469000704700BF6C03002008B5FFF7F7FF044B1D
:1046A0009B68C3F38223034AD35CD84008BD00BF94
:1046B000003802409CC7000808B5FFF7E7FF044B2D
:1046C0009B68C3F34233034AD35CD84008BD00BFA4
:1046D000003802409CC700080F2303600B4B9A6808
:1046E00002F0030242609A6802F0F00282609A6867
:1046F00002F4E052C2609B68DB0803F4E0530361FC
:10470000034B1B6803F00F030B6070470038024037
:10471000003C0240F0B583B00446036813F0010F7B
:104720000CD0B54B9A6822F400029A609A68416BEB
:104730000A439A60436BC3B1002700E00027236857
:1047400013F4002F15D0AC4AD2F88C3023F4401368
:10475000E16B0B43C2F88C30E36BB3F5801F06D0DE
:10476000002B00F04581002504E00127E7E7012741
:10477000F6E70025236813F4801F0FD09E4AD2F875
:104780008C3023F44003216C0B43C2F88C30236C33
:10479000B3F5800F00F02E8103B90125236813F0D3
:1047A000807F00D0012713F0200F40F0278123687D
:1047B00013F0100F0CD0904BD3F88C2022F08072A5
:1047C000C3F88C20D3F88C20A16B0A43C3F88C204B
:1047D000236813F4804F08D0874AD2F8903023F42E
:1047E0004033616E0B43C2F89030236813F4004FDE
:1047F00008D0814AD2F8903023F44023A16E0B43B5
:10480000C2F89030236813F4803F08D07A4AD2F877
:10481000903023F44013E16E0B43C2F890302368CC
:1048200013F4003F08D0744AD2F8903023F44003C8
:10483000216F0B43C2F89030236813F0400F08D06B
:104840006D4AD2F8903023F00303616C0B43C2F839
:104850009030236813F0800F08D0674AD2F8903068
:1048600023F00C03A16C0B43C2F89030236813F4BF
:10487000807F08D0604AD2F8903023F03003E16C9A
:104880000B43C2F89030236813F4007F08D05A4AD3
:10489000D2F8903023F0C003216D0B43C2F8903062
:1048A000236813F4806F08D0534AD2F8903023F471
:1048B0004073616D0B43C2F89030236813F4006FAE
:1048C00008D04D4AD2F8903023F44063A16D0B43D9
:1048D000C2F89030236813F4805F08D0464AD2F8BB
:1048E000903023F44053E16D0B43C2F890302368BD
:1048F00013F4005F08D0404AD2F8903023F44043CC
:10490000216E0B43C2F89030236813F4800F08D057
:10491000394AD2F8903023F08063A16F0B43C2F87C
:104920009030236813F4001F0DD0334AD2F8903032
:1049300023F00063E16F0B43C2F89030E36FB3F1F3
:10494000006F00F0C180236813F0080F00D001252C
:1049500013F4802F08D0284AD2F8903023F0407307
:10496000616F0B43C2F89030236813F4000F09D035
:10497000214AD2F8903023F08053D4F880100B43B2
:10498000C2F89030236813F0806F09D01A4AD2F829
:10499000903023F00053D4F884100B43C2F89030C9
:1049A000236813F0006F09D0134AD2F88C3023F03B
:1049B0000073D4F888100B43C2F88C30236813F0CE
:1049C000805F09D00C4AD2F88C3023F08063D4F891
:1049D0008C100B43C2F88C30002F77D12368B3F1D1
:1049E000007F73D0002D40F00581002003B0F0BDA2
:1049F0000125BFE60127CFE600380240B84B1A6C0C
:104A000042F080521A641B6C03F080530193019BA7
:104A1000B44A136843F480731360FDF78DFD0646B6
:104A2000B04B1B6813F4807F06D1FDF785FD801B1A
:104A30006428F5D90320D9E7A94B1B6F13F4407301
:104A400015D0226B02F44072934210D0A44B1A6F1F
:104A500022F44072196F41F480311967196F21F403
:104A6000803119671A671B6F13F0010F12D1236B86
:104A700003F44072B2F5407F1DD0994A936823F445
:104A8000F813936096490B6F226BC2F30B0213432A
:104A90000B678CE6FDF750FD0646914B1B6F13F03C
:104AA000020FE4D1FDF748FD801B41F288339842A4
:104AB000F3D903209AE78A48826822F4F8128A49D7
:104AC00019400A438260DDE701253CE7844A136808
:104AD00023F080631360FDF72FFD0646804B1B68B3
:104AE00013F0006F06D0FDF727FD801B6428F5D971
:104AF00003207BE7236813F0010F13D0636B8BB99E
:104B0000774AD2F88430D2F88410606803F44033D6
:104B100043EA801301F070610B43A16843EA01731B
:104B2000C2F88430236813F4002F03D0E26BB2F58F
:104B3000801F43D013F4801F03D0236CB3F5800F84
:104B40003CD0236813F0807F11D0654AD2F88400EE
:104B5000D2F88410666823691B0443EA861300F0C8
:104B60007060034301F0E0410B43C2F884302368D6
:104B700013F0007F0DD0626823691B0443EA82139F
:104B8000E26843EA0263A26843EA0273544AC2F845
:104B90008430534A136843F080631360FDF7CCFC04
:104BA00006464F4B1B6813F0006F7FF41BAFFDF7F9
:104BB000C3FC801B6428F4D9032017E7484AD2F8C5
:104BC0008430D2F88410606803F4403343EA8013E1
:104BD000E06843EA006301F0E0410B43C2F884302F
:104BE000D2F88C3023F01F03616A01390B43C2F8FD
:104BF0008C30A6E73A4A136823F080531360FDF720
:104C00009BFC0546364B1B6813F0005F06D0FDF792
:104C100093FC401B6428F5D90320E7E6236813F4CE
:104C2000002F01D0E26B22B113F4801F1DD0236C42
:104C3000DBB92B4AD2F88830D2F88810606903F4C7
:104C4000403343EA8013A06943EA006301F0E04186
:104C50000B43C2F88830D2F88C3023F4F853A16AA1
:104C6000013943EA0123C2F88C30236813F4001F92
:104C700003D0E36FB3F1006F38D0236813F0080F4F
:104C800019D0174AD2F88810D2F88830606903F436
:104C9000403343EA801301F070610B43E16943EA5A
:104CA0000173C2F88830D2F88C3023F44033E16AC3
:104CB0000B43C2F88C300A4A136843F080531360E8
:104CC000FDF73AFC0446064B1B6813F0005F20D149
:104CD000FDF732FC001B6428F5D9032086E600BFEF
:104CE0000038024000700040FFFCFF0F0A4AD2F873
:104CF0008800D2F888106569236A1B0443EA85138B
:104D000000F07060034301F0E0410B43C2F88830CB
:104D1000B3E700206AE600BF00380240704702682F
:104D2000D36843F00103D3600268136843F00103C2
:104D3000136000207047704770477047704710B588
:104D4000044603681A6912F0020F11D0DA6812F0F3
:104D5000020F0DD06FF002021A610123037703687E
:104D60009B6913F0030F79D0FFF7E6FF0023237749
:104D700023681A6912F0040F12D0DA6812F0040FD7
:104D80000ED06FF004021A610223237723689B6917
:104D900013F4407F68D02046FFF7CEFF002323772F
:104DA00023681A6912F0080F12D0DA6812F0080F9F
:104DB0000ED06FF008021A61042323772368DB69A1
:104DC00013F0030F57D02046FFF7B6FF00232377D9
:104DD00023681A6912F0100F12D0DA6812F0100F5F
:104DE0000ED06FF010021A61082323772368DB6965
:104DF00013F4407F46D02046FFF79EFF0023237721
:104E000023681A6912F0010F03D0DA6812F0010F5B
:104E10003FD123681A6912F0800F03D0DA6812F0CC
:104E2000800F3DD123681A6912F4807F03D0DA68BD
:104E300012F0800F3BD123681A6912F0400F03D0A3
:104E4000DA6812F0400F39D123681A6912F0200F86
:104E500003D0DA6812F0200F37D110BDFFF76BFFD7
:104E60002046FFF76AFF81E72046FFF764FF2046F0
:104E7000FFF763FF92E72046FFF75DFF2046FFF74D
:104E80005CFFA3E72046FFF756FF2046FFF755FFDC
:104E9000B4E76FF001021A61204604F099FCB8E70C
:104EA0006FF080021A61204600F0D0F8BAE76FF088
:104EB00080021A61204600F0C9F8BCE76FF040029A
:104EC0001A612046FFF73AFFBEE76FF020021A6131
:104ED000204600F0BAF8C0E770B40368474A904231
:104EE00014BF00220122B0F1804F14BF144642F0DB
:104EF0000104D4B9424DA84214BF00250125414EFA
:104F0000B04254D0002D52D105F1804505F58235CF
:104F1000A84214BF0025012506F50066B04202D064
:104F20000DB9002502E0012500E001251DB123F0A7
:104F300070034D682B43002C3DD1314CA04214BF6F
:104F4000002401242F4DA84250D0002C4ED104F152
:104F5000804404F58234A04214BF0024012405F5E6
:104F60000065A84244D0002C42D1274CA04214BF77
:104F70000024012405F59A35A8423BD0002C39D1F4
:104F8000224CA04214BF0024012405F50065A8426C
:104F900032D0002C30D11E4CA04214BF002401247A
:104FA000A5F59635A84204D01CB9002404E00125DB
:104FB000BCE7012400E001241CB123F44073CC6859
:104FC000234323F080034C69234303608B68C3624F
:104FD0000B6883620F4B984208BF42F001020AB18E
:104FE0000B6903630123436170BC70470124E3E74D
:104FF0000124E1E70124DFE70124DDE700000140AF
:105000000008004000040040004401400018004037
:105010000020004000040140A8B110B5044690F8FB
:105020003D305BB1022384F83D30211D2068FFF73D
:1050300053FF012384F83D30002010BD80F83C3040
:10504000FFF76CFEEEE7012070477047704790F85D
:105050006930DBB2212B01D002207047B0F852300A
:105060009BB293B18368B3F5805F1AD00268C36CBA
:10507000591CC1641B789362B0F852309BB2013B5B
:105080009BB2A0F85230002070470268136823F0EA
:10509000800313600268136843F04003136000202C
:1050A00070470369002BE1D1C36C02681B88C3F30E
:1050B00008039362C36C0233C364DDE702681368BC
:1050C00023F0C0031360202380F869307047026822
:1050D000136823F4907313600268936823F001034C
:1050E0009360202380F86A30704790F86930DBB213
:1050F000202B01D002207047002A18BF002916D0AB
:1051000090F86830012B14D0C164A0F85020A0F8AA
:1051100052200023C366212280F8692080F868307D
:1051200001680A6842F080020A6018467047012050
:1051300070470220704790F86A30DBB2202B01D014
:1051400002207047002A18BF002945D090F8683027
:10515000012B43D0012380F868304165A0F8582026
:10516000A0F85A208368B3F5805F06D0A3B903691D
:1051700073B9FF23A0F85C3011E0036923B940F252
:10518000FF13A0F85C300AE0FF23A0F85C3006E0D3
:105190007F23A0F85C3002E0B3F1805F12D00023DF
:1051A000C366222280F86A2080F8683001688A6825
:1051B00042F001028A6001680A6842F490720A6053
:1051C0001846704703691BB97F23A0F85C30E6E7F7
:1051D0003F23A0F85C30E2E70120704702207047CF
:1051E00038B590F86940E4B2202C01D0022038BDD7
:1051F000002A18BF002930D090F86830012B01D167
:10520000022038BD13460446012280F86820C1649C
:10521000A0F85030A0F852300025C566212280F851
:105220006920026E0E48D063226E0E481064226E12
:105230000D48D064226E156522682832206EFDF775
:10524000D7FA236840221A6284F86850226893686B
:1052500043F080039360284638BD012038BD00BF6D
:10526000415500088F5500086956000838B590F878
:105270006A40E4B2202C01D0022038BD002A18BFB9
:10528000002936D090F86830012B01D1022038BDBA
:1052900013460A460446012180F868104265A0F8CA
:1052A00058300025C566222180F86A10416E1248E8
:1052B000C863616E11480864616E1148C864616E0C
:1052C0000D6521682431606EFDF792FA84F868500C
:1052D0002268136843F4807313602268936843F074
:1052E000010393602268936843F04003936028466B
:1052F00038BD012038BD00BF995500085F56000831
:10530000695600082DE9F04105460F4616469846B5
:10531000069C2B68DB6937EA03030CBF01230023DB
:10532000B3421ED1B4F1FF3FF3D02CB1FDF704F925
:10533000A0EB08008442ECD82A68136823F4D073E9
:1053400013602A68936823F001039360202385F893
:10535000693085F86A30002385F868300320BDE89D
:10536000F0810020BDE8F0812DE9F04182B01E46B9
:1053700090F86930DBB2202B04D00223184602B02B
:10538000BDE8F08104460D469046002A18BF00296A
:105390004CD090F86830012B01D10223EEE70123B5
:1053A00080F868300023C366212380F86930FDF758
:1053B000C3F80746A4F85080A4F8528003E023689D
:1053C0002A789A620135B4F852309BB2E3B1B4F84E
:1053D00052309BB2013B9BB2A4F8523000963B4640
:1053E000002280212046FFF78DFF08BBA368B3F59C
:1053F000805FE4D12369002BE1D1226835F8023BBC
:10540000C3F308039362DEE700963B460022402187
:105410002046FFF777FF034608B10323AEE72022BB
:1054200084F86920002284F86820A7E70123A5E713
:105430000323A3E72DE9F04182B01E4690F86A30BD
:10544000DBB2202B03D0022002B0BDE8F08104467D
:105450000D469046002A18BF00296DD090F868309C
:10546000012B01D10220EFE7012380F868300023EF
:10547000C366222380F86A30FDF75EF80746A4F879
:105480005880A4F85A80A368B3F5805F06D0A3B90A
:10549000236973B9FF23A4F85C3011E0236923B9B1
:1054A00040F2FF13A4F85C300AE0FF23A4F85C305C
:1054B00006E07F23A4F85C3002E0B3F1805F02D005
:1054C000B4F85C8010E023691BB97F23A4F85C303A
:1054D000F6E73F23A4F85C30F2E723685A6A5FFAE4
:1054E00088F313402B700135B4F85A309BB2E3B106
:1054F000B4F85A309BB2013B9BB2A4F85A300096E4
:105500003B46002220212046FFF7FCFEB0B9A368ED
:10551000B3F5805FE1D12369002BDED123685B6A9C
:1055200008EA030325F8023BDEE7202384F86A300B
:10553000002084F8680087E7012085E7032083E7DF
:1055400008B5836B0268126812F4807F0DD10022C7
:10555000A3F8522019688A6822F080028A601A68CB
:10556000136843F04003136008BD184603F0D8FDEC
:1055700008BD08B501680B6823F040030B602023C9
:1055800080F8693003F0CCFD002008BD704708B5F5
:10559000806BFFF7FBFF08BD08B5836B02681268DC
:1055A00012F4807F14D10022A3F85A2019680A68E7
:1055B00022F480720A6019688A6822F001028A6007
:1055C00019688A6822F040028A60202283F86A20E3
:1055D000184603F0ADFE08BD08B5B0F85C2090F8A1
:1055E0006A30DBB2222B06D00268936943F00803CD
:1055F0009361022008BD8368B3F5805F11D0436DCD
:10560000591C41650168496AD2B20A401A70B0F863
:105610005A309BB2013B9BB2A0F85A306BB10020CC
:1056200008BD0369002BEAD1436D0168496A0A404D
:105630001A80436D02334365E9E70268136823F477
:10564000907313600268936823F001039360202332
:1056500080F86A3003F06CFE002008BD704708B582
:10566000806BFFF7FBFF08BD10B5846B0023A4F827
:105670005A30A4F8523094F86930DBB2212B0CD0A8
:1056800094F86A30DBB2222B10D0E36E43F01003A3
:10569000E366204603F04AFF10BD23689B6813F0C1
:1056A000800FEDD02046FFF709FDE9E723689B68EE
:1056B00013F0400FE9D02046FFF709FDE5E70000B1
:1056C00038B504460268D3691068916813F00F0575
:1056D00005D113F0200F02D010F0200F5FD1002D64
:1056E00073D011F0010102D110F4907F6DD013F04E
:1056F000010F07D010F4807F04D001251562E26EFF
:105700002A43E26613F0020F07D031B12268022566
:105710001562E26E42F00402E26613F0040F07D055
:1057200031B1226804251562E26E42F00202E2669F
:1057300013F0080F09D010F0200F00D129B1226812
:1057400008211162E26E0A43E266E26E002A48D046
:1057500013F0200F02D010F0200F24D1E36E13F0CD
:10576000080F04D123689B6813F0400F27D0204610
:10577000FFF7ADFC23689A6812F0400F1BD09A68BF
:1057800022F040029A60636E8BB11A4A1A65606E0D
:10579000FDF7B2F828B3606E036D984738BD204618
:1057A000FFF71AFF38BD2046FFF716FFD6E7204661
:1057B00003F0BCFE38BD204603F0B8FE38BD2046DD
:1057C00003F0B4FE0023E36638BD13F0800F02D06F
:1057D00010F0800F06D113F0400F02D010F0400FF0
:1057E00004D138BD2046FFF732FC38BD2046FFF714
:1057F000C0FEF6E7F957000808B5806B0023A0F853
:105800005A30A0F8523003F091FE08BDC06E7047C8
:1058100038B5044683680269134342691343C26979
:10582000134301680868A04A024013430B602268D2
:10583000536823F44053E1680B435360A369226A21
:10584000134321688A6822F4306213438B60256811
:10585000964B9D422BD0964B9D423CD0954B9D4202
:1058600052D0954B9D4267D0944B9D427CD0944B37
:105870009D4200F09480934B9D4200F0AB80924B90
:105880009D4200F0C2801023E269B2F5004F00F0A3
:10589000DB80082B00F26881DFE813F031013C0166
:1058A0004701660151016601660166015C0103F56D
:1058B0009433D3F8903003F00303032B03D8DFE8CD
:1058C00003F0BF0604081023DEE70223DCE704230D
:1058D000DAE70823D8E703F5FA33D3F8903003F07A
:1058E0000C030C2B08D8DFE803F0AD0707070B0704
:1058F0000707090707070D001023C5E70223C3E7C1
:105900000423C1E70823BFE703F5F833D3F8903049
:1059100003F03003102B0DD005D9202B08D0302BED
:1059200004D10823B0E70BB90023ADE71023ABE7A0
:105930000223A9E70423A7E703F5F633D3F8903051
:1059400003F0C003402B0DD005D9802B08D0C02B0D
:1059500004D1082398E70BB9002395E7102393E7B8
:10596000022391E704238FE703F5F433D3F8903053
:1059700003F44073B3F5807F0FD007D9B3F5007FF0
:1059800009D0B3F5407F04D108237DE70BB900238C
:105990007AE7102378E7022376E7042374E703F518
:1059A0009233D3F8903003F44063B3F5806F0FD097
:1059B00007D9B3F5006F09D0B3F5406F04D10823C0
:1059C00062E70BB901235FE710235DE702235BE782
:1059D000042359E703F5E033D3F8903003F4405340
:1059E000B3F5805F0FD007D9B3F5005F09D0B3F5E9
:1059F000405F04D1082347E70BB9002344E7102395
:105A000042E7022340E704233EE703F5DE33D3F801
:105A1000903003F44043B3F5804F0FD007D9B3F56E
:105A2000004F09D0B3F5404F04D108232CE70BB940
:105A3000002329E7102327E7022325E7042323E790
:105A4000012321E700231FE7082B55D8DFE803F0E7
:105A500005172254405454544B00FEF71DFE626853
:105A6000530803EB4003B3FBF2F39BB2002023F097
:105A70000F02C3F3420313432268D36038BDFEF71D
:105A80001BFE6268530803EB4003B3FBF2F39BB2C7
:105A90000020ECE762680D4B03EB5203B3FBF2F31B
:105AA0009BB20020E3E700BFF369FFEF0010014065
:105AB0000044004000480040004C004000500040BE
:105AC0000014014000780040007C00400048E801DC
:105AD000FEF7C0FC6268530803EB4003B3FBF2F32C
