:020000040800F2
:100000000000012065480008B5480008B548000810
:10001000B5480008B5480008B548000800000000D1
:10002000000000000000000000000000E13A0008AD
:10003000B548000800000000813B00084945000861
:10004000B5480008B5480008B5480008B54800089C
:10005000B5480008B5480008B5480008B54800088C
:10006000B5480008B5480008B5480008B54800087C
:10007000B5480008B548000851450008614500082A
:10008000B5480008B5480008B5480008B54800085C
:10009000B5480008B5480008B5480008B54800084C
:1000A000B548000871450008B5480008B548000883
:1000B000B54800080000000000000000B548000836
:1000C000B54800080000000000000000B548000826
:1000D0000000000081450008B5480008000000004D
:1000E000B5480008B5480008000000000000000006
:1000F0000000000000000000000000000000000000
:10010000000000000000000000000000B5480008EA
:100110000000000000000000B5480008B5480008D5
:10012000B5480008B5480008B5480008B5480008BB
:10013000B5480008000000000000000000000000BA
:10014000B5480008B5480008B5480008B54800089B
:10015000B5480008B5480008B5480008B54800088B
:10016000B5480008B5480008B54800080000000080
:10017000B5480008B5480008000000000000000075
:10018000B5480008B5480008B54800080000000060
:1001900010B5054C237833B9044B13B10448AFF3C1
:1001A00000800123237010BD180000200000000013
:1001B000184900080C4B43B10C480D4910B5AFF37A
:1001C00000800C48036823B910BD0A48036833B99E
:1001D0007047094B002BF7D0BDE810401847064B7D
:1001E000002BF5D0184700BF000000001849000898
:1001F0001C000020180000200000000053B94AB97C
:10020000002908BF00281CBF4FF0FF314FF0FF301E
:1002100000F07AB9ADF1080C6DE904CE00F006F8F3
:10022000DDF804E0DDE9022304B070472DE9F04772
:100230008C460D460446089E002B51D18A42174633
:100240006DD9B2FA82FEBEF1000F0BD0CEF1200CB8
:1002500001FA0EF520FA0CFC02FA0EF74CEA050C36
:1002600000FA0EF44FEA174A250CBCFBFAF81FFA05
:1002700087F90AFB18CC45EA0C4508FB09F3AB42A9
:100280000AD9ED1908F1FF3280F02381AB4240F228
:100290002081A8F102083D44ED1AA4B2B5FBFAF0A2
:1002A0000AFB105544EA054400FB09F9A14509D9A8
:1002B000E41900F1FF3380F00A81A14540F2078183
:1002C00002383C44A4EB090440EA08400021002E17
:1002D00061D024FA0EF4002334607360BDE8F08727
:1002E0008B4207D9002E54D0002186E82100084611
:1002F000BDE8F087B3FA83F1002940F08E80AB426D
:1003000002D3824200F2FA80841A65EB03050120D1
:10031000AC46002E3FD086E81010BDE8F08712B939
:100320000127B7FBF2F7B7FA87FEBEF1000F34D111
:10033000EB1B3A0C1FFA87FC0121B3FBF2F8250CEA
:1003400002FB183345EA03450CFB08F3AB4207D91F
:10035000ED1908F1FF3002D2AB4200F2D1808046A5
:10036000ED1AA3B2B5FBF2F002FB105543EA0544C7
:100370000CFB00FCA44507D9E41900F1FF3302D2BD
:10038000A44500F2B8801846A4EB0C0440EA0840EB
:100390009DE731463046BDE8F087CEF1200405FAEE
:1003A0000EF307FA0EF720FA04F83A0C25FA04F4D3
:1003B00048EA0308B4FBF2F14FEA184502FB114486
:1003C0001FFA87FC45EA044501FB0CF3AB4200FA37
:1003D0000EF409D9ED1901F1FF3080F08A80AB42AB
:1003E00040F2878002393D44EB1A1FFA88F5B3FBCF
:1003F000F2F002FB103345EA034500FB0CF3AB427D
:1004000007D9ED1900F1FF386FD2AB426DD9023830
:100410003D44EB1A40EA01418FE7C1F1200722FA7F
:1004200007F88B4005FA01F448EA030320FA07FEB7
:100430004FEA134CFD404EEA040EB5FBFCF94FEABF
:100440001E440CFB19551FFA83F844EA054509FBC5
:1004500008F4AC4202FA01F200FA01FA08D9ED18E8
:1004600009F1FF3043D2AC4241D9A9F102091D4440
:100470002D1B1FFA8EFEB5FBFCF00CFB10554EEA4F
:10048000054400FB08F8A04507D9E41800F1FF3542
:1004900029D2A04527D902381C4440EA0940A4EBE0
:1004A0000804A0FB02894C45C6464D4615D312D020
:1004B00056B1BAEB0E0364EB050404FA07F7CB4020
:1004C0001F43CC40376074600021BDE8F0871846B8
:1004D000F8E69046E0E6C245EAD2B8EB020E69EBD8
:1004E00003050138E4E72846D7E7404691E781460F
:1004F000BEE7014678E702383C4445E7084608E78E
:10050000A8F102083D442BE7704700BF08B503205F
:1005100000F016F8002003F0DBFF03F091FF00204D
:1005200008BD0000024A136801331360704700BF22
:10053000B80F0020014B1868704700BFB80F0020AB
:10054000074AD36823F4E0631B041B0C000200F489
:10055000E060184340F0BF6040F40030D060704766
:1005600000ED00E030B4164BDB68C3F30223C3F1A7
:100570000704042C28BF04241D1D062D17D9033B96
:10058000012505FA04F4013C2140994005FA03F3E2
:10059000013B1340194300280BDB0901C9B200F1EC
:1005A000604000F5614080F8001330BC70470023C4
:1005B000E6E700F00F000901C9B2024B1954F4E755
:1005C00000ED00E014ED00E0420900F01F000123FF
:1005D00003FA00F0014B43F82200704700E100E00D
:1005E0000138B0F1807F0AD2064B5860F021064AEC
:1005F00082F823100020986007221A6070470120BB
:10060000704700BF10E000E000ED00E0042805D0D6
:10061000054A136823F0040313607047024A136805
:1006200043F004031360704710E000E070B4066C00
:10063000446C04F01C050124AC40746004686360E1
:100640008368102B05D0036899600368DA6070BC7A
:10065000704703689A600368D960F8E7002869D09A
:1006600010B403460168344A914245D8334A0A44DB
:100670003349A1FB0212120992004264314A02641A
:10068000022283F825201868016821F4FF4121F037
:1006900070019A68DC6822431C6922435C6922432A
:1006A0009C692243DC6922431C6A22430A4302609C
:1006B0009A68B2F5804F15D0196C224A914226D023
:1006C000214A1168586C00F01C040F20A04021EA58
:1006D00000011160116858685C6C04F01C04A040B3
:1006E000014311600020D863012283F8252083F89C
:1006F00024005DF8044B7047144A0A441049A1FBDA
:100700000212120992004264114A0264B8E7A83248
:100710001168586C00F01C040F20A04021EA000171
:100720001160116858685C6C04F01C04A04001431F
:100730001160D7E70120704707040240F8FFFDBFB2
:10074000CDCCCCCC00000240A8040240F8FBFDBF99
:100750000004024038B590F82440012C33D0012425
:1007600080F8244090F82540E4B2012C04D0002306
:1007700080F82430022038BD0446022084F8250089
:100780000020E0632568286820F0010028602046EA
:10079000FFF74CFF236B5BB12268136843F00E0335
:1007A00013602268136843F001031360002038BD12
:1007B0002268136823F0040313602268136843F06F
:1007C0000A031360EDE7022038BD0346B8B10168A3
:1007D0000A6822F00E020A6001680A6822F001022B
:1007E0000A60006C5A6C02F01C02012101FA02F24C
:1007F000426083F82510002083F824007047012010
:10080000704708B590F82530DBB2022B03D00423E3
:10081000C363012008BD0268136823F00E03136050
:100820000268136823F001031360016C436C03F04A
:100830001C03012202FA03F34B6080F825200023F9
:1008400080F82430836B13B19847002008BD002046
:1008500008BD38B5036C196804682568436C03F05B
:100860001C0304229A40114216D015F0040F13D035
:10087000236813F0200F03D1236823F004032360BF
:10088000016C436C03F01C02042393404B60036B28
:10089000002B3ED0984738BD02229A4011421BD00F
:1008A00015F0020F18D0236813F0200F06D123682B
:1008B00023F00A032360012380F82530016C436C88
:1008C00003F01C02022393404B60002380F8243085
:1008D000C36AF3B1984738BD082202FA03F31942FC
:1008E00017D015F0080F14D0236823F00E032360EF
:1008F000016C436C03F01C03012202FA03F34B600A
:10090000C26380F82520002380F82430436B03B1B4
:10091000984738BDF0B583B0002384E0DE08083680
:1009200050F8264003F0070E4FEA8E0E0F2707FA05
:100930000EF724EA07040F6907FA0EF73C4340F864
:1009400026407FE086682640CF6807FA0EF73E43D0
:100950008660466826EA05054E68C6F300169E4086
:1009600035434560C5682C408D6805FA0EF52C436B
:10097000C4604C6814F0805F54D0444C256E45F040
:1009800001052566246E04F001040194019C9D0874
:10099000AE1C3F4C54F8264003F00306B6000F2768
:1009A000B74024EA0704B0F1904F68D0394FB842FD
:1009B00067D007F58067B8425FD0072707FA06F6C9
:1009C00034430235324E46F82540334C2568D44333
:1009D00005EA04064F6817F4803F01D042EA050695
:1009E0002D4D2E606D6804EA05064F6817F4003F30
:1009F00001D042EA0506284D6E60AD6804EA05069E
:100A00004F6817F4801F01D042EA0506224DAE6000
:100A1000ED682C404E6816F4001F01D042EA050430
:100A20001D4AD46001330A6832FA03F42BD0012541
:100A30009D402A40F6D04C68022C3FF46FAF122C38
:100A40003FF46CAF06684FEA430E032404FA0EF439
:100A5000E44326404F6807F0030707FA0EF73E43CA
:100A600006604E68771E012F7FF66CAF112E3FF4A3
:100A700069AF122E7FF476AF64E702279EE7002766
:100A80009CE701279AE703B0F0BD00BF00100240C9
:100A90000000014000040048000401400AB98162DE
:100AA0007047816170470000024A136843F4807305
:100AB0001360704700700040024B186800F4C0607B
:100AC000704700BF00700040B0F5007F0FD0204B92
:100AD0001B6803F4C063B3F5806F37D01C4A1368FA
:100AE00023F4C06343F48063136000207047184B05
:100AF0001B6803F4C063B3F5007F23D0144A136866
:100B000023F4C06343F400731360124B1B6802F1BB
:100B1000467202F55B3202F28322A2FB03239A0C97
:100B2000322303FB02F300E0013B23B1084A526980
:100B300012F4806FF8D1064B5B6913F4806F03D019
:100B40000320704700207047002070470020704746
:100B5000007000400400002030B583B00546204BF3
:100B60009B6D13F0805F0BD0FFF7A6FFB0F5007F01
:100B700017D0802D1FD82DD0702D2DD000211BE037
:100B8000174CA36D43F08053A365A36D03F080530E
:100B90000193019BFFF790FFA36D23F08053A365A2
:100BA000E4E7802D03D9A02D03D9022104E0002120
:100BB00002E0012100E003210A4A136823F0070341
:100BC0000B431360136803F00703994206D001201A
:100BD00003B030BD0221EFE70121EDE70020F7E788
:100BE00000100240002002403B4B9B6813F00C0FAA
:100BF0001AD0394B9B6803F00C030C2B0ED0364BEC
:100C00009B6803F00C03042B2FD0334B9B6803F03D
:100C10000C03082B2CD00020014618E02E4BDB687B
:100C200003F00303012BEAD12B4B1B6813F0080FD1
:100C300014D1294BD3F89430C3F30323274A52F835
:100C40002310254B9B6813F00C0F0CD00020224A78
:100C5000936803F00C030C2B0DD070471E4B1B68E0
:100C6000C3F30313EAE70846F1E71D480021EEE766
:100C70001C480021EBE71346D26802F00302DB6850
:100C8000C3F302130133022A0AD0032A1AD0B1FB9C
:100C9000F3F3114AD068C0F3062000FB03F008E02C
:100CA0000F48B0FBF3F30C4AD068C0F3062000FBFA
:100CB00003F0094BDB68C3F3416301335B00B0FB16
:100CC000F3F0CAE70748B0FBF3F3034AD068C0F378
:100CD000062000FB03F0ECE70010024094490008F6
:100CE0000024F40000127A00002800F0D78270B5CA
:100CF00082B00446036813F0100F3FD0974B9B68F7
:100D000013F00C0F40F09280944B1B6813F0020F0D
:100D100003D08369002B00F0C382206A8F4B1B68CD
:100D200013F0080F62D08D4B1B6803F0F003834271
:100D300063D2FFF711FF002840F0B482874B1A6896
:100D400042F008021A601A6822F0F002216A0A438F
:100D50001A605A6822F47F42E16942EA01225A602D
:100D6000FFF742FF7D4B9B68C3F303137C4AD35CC0
:100D7000D8407C4B1860002003F0AAFB236813F0D6
:100D8000010F00F0A180754B9B6803F00C03082B4A
:100D900000F09180714B9B6803F00C030C2B00F06A
:100DA00083806368B3F5803F00F0B580B3F5A02F72
:100DB00000F0B780694B1A6822F480321A601A6812
:100DC00022F480221A606368002B00F0B780FFF7DE
:100DD000B1FB0546614B1B6813F4003F74D1FFF76C
:100DE000A9FB401B6428F5D9032062E25B4BD3F8D2
:100DF00094301B0903F0F00399E7584B1A6842F04E
:100E000008021A601A6822F0F002216A0A431A6086
:100E10005A6822F47F42E16942EA01225A60206A5C
:100E2000FFF79AFE00289BD0012042E2836933B38A
:100E30004A4A136843F001031360FFF77BFB054642
:100E4000464B1B6813F0020F06D1FFF773FB401BE4
:100E50000228F5D903202CE2404B1A6842F0080220
:100E60001A601A6822F0F002216A0A431A605A686E
:100E700022F47F42E16942EA01225A607EE7374A62
:100E8000136823F001031360FFF754FB0546334B4F
:100E90001B6813F0020F3FF471AFFFF74BFB401BD1
:100EA0000228F4D9032004E22C4BDB6803F003038F
:100EB000032B7FF476AF294B1B6813F4003F03D05C
:100EC0006368002B00F0F081236813F0020F62D0FA
:100ED000224B9B6803F00C03042B4BD01F4B9B68E9
:100EE00003F00C030C2B3FD0E368002B79D01B4A96
:100EF000136843F480731360FFF71CFB0546174B20
:100F00001B6813F4806F63D1FFF714FB401B0228AA
:100F1000F5D90320CDE1114A136843F480331360FF
:100F200051E703F18043A3F53C331A6842F4802271
:100F30001A601A6842F480321A6044E7FFF7FAFA3E
:100F40000546064B1B6813F4003FBDD0FFF7F2FACD
:100F5000401B6428F5D90320ABE100BF001002401C
:100F6000C449000804000020B14BDB6803F0030310
:100F7000022BB9D1AE4B1B6813F4806F03D0E3682A
:100F8000002B00F09381AA4A536823F0F85321699B
:100F900043EA01635360236813F0080F4CD0636980
:100FA0009BB3A34AD2F8943043F00103C2F89430C3
:100FB000FFF7C0FA05469E4BD3F8943013F0020FAA
:100FC0003AD1FFF7B7FA401B0228F4D9032070E1A9
:100FD000974A536823F0F853216943EA0163536049
:100FE000D9E7934A136823F480731360FFF7A2FADA
:100FF00005468F4B1B6813F4806FCCD0FFF79AFA2D
:10100000401B0228F5D9032053E1894AD2F89430D5
:1010100023F00103C2F89430FFF78CFA0546844BA5
:10102000D3F8943013F0020F06D0FFF783FA401B79
:101030000228F4D903203CE1236813F0040F7AD08E
:101040007B4B9B6D13F0805F36D1794B9A6D42F0EC
:1010500080529A659B6D03F080530193019B01259B
:10106000744B1B6813F4807F28D0A368012B39D000
:10107000052B3FD06E4BD3F8902022F00102C3F82D
:101080009020D3F8902022F00402C3F89020A368A7
:10109000002B3DD0FFF74EFA0646654BD3F8903053
:1010A00013F0020F46D1FFF745FA801B41F2883357
:1010B0009842F2D90320FCE00025D1E75D4A13688D
:1010C00043F480731360FFF735FA0646594B1B68EB
:1010D00013F4807FC9D1FFF72DFA801B0228F5D9C0
:1010E0000320E6E0524AD2F8903043F00103C2F800
:1010F0009030CCE74E4BD3F8902042F00402C3F876
:101100009020D3F8902042F00102C3F89020BEE76F
:10111000FFF710FA0646464BD3F8903013F0020F53
:1011200008D0FFF707FA801B41F288339842F2D9C2
:101130000320BEE0E5B9236813F0200F35D0636AC1
:10114000E3B13B4AD2F8983043F00103C2F898303B
:10115000FFF7F0F90546364BD3F8983013F0020F3D
:1011600023D1FFF7E7F9401B0228F4D90320A0E0C0
:101170002F4A936D23F080539365DCE72C4AD2F815
:10118000983023F00103C2F89830FFF7D3F90546F1
:10119000274BD3F8983013F0020F06D0FFF7CAF9A7
:1011A000401B0228F4D9032083E0A36A002B7FD0E0
:1011B0001F4A926802F00C020C2A7CD0022B23D02A
:1011C0001B4B1A6822F080721A601B6813F0006FC4
:1011D00004D1174AD36823F00303D360144AD368B9
:1011E00023F0887323F48033D360FFF7A3F9044618
:1011F0000F4B1B6813F0007F4ED0FFF79BF9001BCD
:101200000228F5D9032054E0094A136823F08073BB
:101210001360FFF78FF90546054B1B6813F0007F3D
:101220000AD0FFF787F9401B0228F5D9032040E0D8
:101230000010024000700040236B5A1E636B1B02BB
:1012400043EA0213E26A1343E26B5208013A43EAAB
:101250004253226C5208013A43EA4263A26B43EACA
:10126000C263164AD360136843F080731360D36877
:1012700043F08073D360FFF75DF904460F4B1B68A2
:1012800013F0007F06D1FFF755F9001B0228F5D9AE
:1012900003200EE000200CE000200AE0012070474F
:1012A000012006E0012004E0012002E0012000E02E
:1012B000002002B070BD0120FBE700BF001002401B
:1012C000002800F0998070B504464D4B1B6803F070
:1012D00007038B420CD24A4A136823F007030B43DF
:1012E0001360136803F00703994201D0012070BD19
:1012F0000D46236813F0010F39D06368032B09D022
:10130000022B26D063BB3F4A126812F0020F06D1AF
:10131000012070BD3B4A126812F0007F6ED039493F
:101320008A6822F0030213438B60FFF703F9064635
:10133000344B9B6803F00C036268B3EB820F16D04A
:10134000FFF7F8F8801B41F288339842F0D9032068
:1013500070BD2C4A126812F4003FE0D1012070BD2C
:10136000284A126812F4806FD9D1012070BD236819
:1013700013F0020F06D0234A936823F0F003A1680C
:101380000B4393601E4B1B6803F007039D420CD276
:101390001B4A136823F007032B431360136803F001
:1013A00007039D4201D0012070BD236813F0040F94
:1013B00006D0144A936823F4E063E1680B4393601A
:1013C000236813F0080F07D00E4A936823F4605384
:1013D000216943EAC1039360FFF706FC094B9B6850
:1013E000C3F30313084AD35CD840084B18600020AD
:1013F00003F06EF8002070BD01207047012070BD21
:101400000020024000100240C449000804000020EF
:10141000014B1868704700BF0400002008B5FFF7B3
:10142000F7FF044B9B68C3F30223034AD35CD84005
:1014300008BD00BF00100240D449000808B5FFF7FE
:10144000E7FF044B9B68C3F3C223034AD35CD84035
:1014500008BD00BF00100240D44900080F230360FC
:101460000B4B9A6802F0030242609A6802F0F002A5
:1014700082609A6802F4E062C2609B68DB0803F451
:10148000E0630361034B1B6803F007030B607047C5
:101490000010024000200240F8B55D4BDB6813F0FD
:1014A000030F19D05A4BDB6803F003030268934221
:1014B00004D00124002C48D02046F8BD002A42D098
:1014C000534BDB68C3F3021301334268934201D0EC
:1014D0000124EFE70024EDE70368022B18D0032B6B
:1014E0001DD0012B0DD00124002CE3D1484EF26811
:1014F00022F073024568013D43EA05131343F3608C
:10150000D8E7434A126812F0020F14D00024EBE728
:101510003F4A126812F4806F0FD00024E4E73C4A7F
:10152000126812F4003F0AD1394A126812F4802F6F
:1015300007D00024D8E70124D6E70124D4E700240B
:10154000D2E70124D0E70124B4E70F460546304A2C
:10155000136823F080631360FEF7ECFF06462C4B04
:101560001B6813F0006F05D0FEF7E4FF801B022814
:10157000F5D90324002C9FD147BB25490B6923F0E3
:10158000784323F4FE43A868EA68D20642EA0022C0
:1015900013430B611E4A136843F080631360FEF728
:1015A000C9FF06461A4B1B6813F0006F05D1FEF702
:1015B000C1FF801B0228F5D90324002C7FF47CAFE7
:1015C000134A1369A9690B43136175E7012F0FD003
:1015D0000F48026922F0C06222F4FE42A9686B69DA
:1015E0005B08013B5B0643EA012313430361D1E738
:1015F0000748026922F4C00222F4FE42A9682B695E
:101600005B08013B5B0543EA012313430361C1E728
:10161000001002402DE9F04182B00446036813F443
:10162000006F24D0C36BB3F5000F13D0B3F5400F98
:1016300002D0B3B1012700E00027002F6FD1AD4ADF
:10164000D2F8883023F44003E16B0B43C2F88830B2
:101650003E460EE0A74AD36843F48033D3600027A8
:10166000EBE700210430FFF717FF0746E5E7002608
:101670003746236813F4003F6DD09E4B9B6D13F0EB
:10168000805F4ED19B4B9A6D42F080529A659B6D64
:1016900003F080530193019B4FF00108964A1368B1
:1016A00043F480731360FEF745FF0546924B1B68B9
:1016B00013F4807F05D1FEF73DFF401B0228F5D9CA
:1016C0000327002F42D18B4BD3F8903013F4407393
:1016D00015D0226D934212D0864AD2F8903023F46E
:1016E0004073D2F8901041F48031C2F89010D2F8D3
:1016F000901021F48031C2F89010C2F8903013F0AD
:10170000010F11D1002F40F0CB807A4AD2F89030EF
:1017100023F44073216D0B43C2F8903017E03E462E
:10172000A7E74FF00008B9E7FEF704FF0546714B45
:10173000D3F8903013F0020FE4D1FEF7FBFE401B0C
:1017400041F288339842F2D90327DBE73E46B8F1ED
:10175000000F40F0A780236813F0010F08D0654AFE
:10176000D2F8883023F00303216A0B43C2F8883093
:10177000236813F0020F08D05E4AD2F8883023F0B5
:101780000C03616A0B43C2F88830236813F0200F02
:1017900008D0584AD2F8883023F44063A16A0B433A
:1017A000C2F88830236813F4007F08D0514AD2F879
:1017B000883023F44023616B0B43C2F888302368E0
:1017C00013F4806F08D04B4AD2F8883023F44013CA
:1017D000A16B0B43C2F88830236813F0400F08D088
:1017E000444AD2F8883023F44053E16A0B43C2F8EC
:1017F0008830236813F4807F08D03E4AD2F88830BE
:1018000023F44033216B0B43C2F88830236813F470
:10181000005F0FD0374AD2F8883023F04063216C44
:101820000B43C2F88830236CB3F1006F40D0B3F1A2
:10183000806F42D0236813F4802F0FD02D4AD2F846
:10184000883023F04063616C0B43C2F88830636CCE
:10185000B3F1006F39D0B3F1806F3BD0236813F43C
:10186000804F0CD0234AD2F8883023F04053A16C2B
:101870000B43C2F88830A36CB3F1805F32D0236889
:1018800013F4004F08D01B4AD2F8883023F080436D
:10189000E16C0B43C2F88830304602B0BDE8F081FD
:1018A0003E4654E7134A936D23F08053936552E705
:1018B000D36843F48013D360BCE70121201DFFF7F8
:1018C000EBFD0028B6D00646B4E7D36843F4801396
:1018D000D360C3E70121201DFFF7DEFD0028BDD046
:1018E0000646BBE70221201DFFF7D6FD0028C6D023
:1018F0000646C4E70010024000700040024A136828
:1019000043F004031360704700100240704700006A
:101910000268D36843F00103D36003689968084AFA
:101920000A40062A09D09968054A0A40B2F5803F64
:1019300003D01A6842F001021A600020704700BF0D
:1019400007000100704770477047704710B50446A4
:1019500003681A6912F0020F11D0DA6812F0020F50
:101960000DD06FF002021A610123037703689B69AF
:1019700013F0030F79D0FFF7E6FF002323772368E6
:101980001A6912F0040F12D0DA6812F0040F0ED0A8
:101990006FF004021A610223237723689B6913F412
:1019A000407F68D02046FFF7CEFF002323772368CF
:1019B0001A6912F0080F12D0DA6812F0080F0ED070
:1019C0006FF008021A61042323772368DB6913F0A0
:1019D000030F57D02046FFF7B6FF00232377236875
:1019E0001A6912F0100F12D0DA6812F0100F0ED030
:1019F0006FF010021A61082323772368DB6913F460
:101A0000407F46D02046FFF79EFF002323772368C0
:101A10001A6912F0010F03D0DA6812F0010F3FD1FA
:101A200023681A6912F0800F03D0DA6812F0800F71
:101A30003DD123681A6912F4807F03D0DA6812F06E
:101A4000800F3BD123681A6912F0400F03D0DA6887
:101A500012F0400F39D123681A6912F0200F03D019
:101A6000DA6812F0200F37D110BDFFF76BFF204668
:101A7000FFF76AFF81E72046FFF764FF2046FFF784
:101A800063FF92E72046FFF75DFF2046FFF75CFF0C
:101A9000A3E72046FFF756FF2046FFF755FFB4E7C0
:101AA0006FF001021A61204602F068FBB8E76FF0A0
:101AB00080021A61204600F06DF8BAE76FF4807278
:101AC0001A61204600F067F8BCE76FF040021A6127
:101AD0002046FFF73AFFBEE76FF020021A6120466A
:101AE00000F057F8C0E7000003681C4A904227D076
:101AF000B0F1804F24D0194A904226D0B0F1804FE7
:101B000023D002F5A05290421FD002F5806290428D
:101B10001BD023F080034A69134303608B68C362C0
:101B20000B6883620D4B984214D003F5A053984282
:101B300010D003F5806398420CD0012343617047B5
:101B400023F070034A681343D5E723F44073CA684F
:101B50001343DEE70B690363EFE700BF002C01408E
:101B6000A8B110B5044690F83D305BB1022384F86B
:101B70003D30211D2068FFF7B7FF012384F83D3079
:101B8000002010BD80F83C30FFF7C0FEEEE70120DA
:101B900070477047704770470268136823F0C003AE
:101BA0001360202380F8713070470268136823F4B3
:101BB000907313600268936823F0010393602023FD
:101BC00080F87230002303667047000090F872308E
:101BD000DBB2202B01D002207047002956D0002A0A
:101BE00056D090F87030012B54D0012380F870301B
:101BF0004165A0F85820A0F85A20002303668368A6
:101C0000B3F5805F06D0A3B9036973B9FF23A0F8C9
:101C10005C3011E0036923B940F2FF13A0F85C3097
:101C20000AE0FF23A0F85C3006E07F23A0F85C30D8
:101C300002E0B3F1805F19D000234367222380F8CC
:101C400072300268936843F0010393608368B3F5D0
:101C5000805F15D0104B0366002380F87030016858
:101C60000A6842F490720A601846704703691BB90B
:101C70007F23A0F85C30DFE73F23A0F85C30DBE790
:101C80000369002BE6D1054B0366E5E701207047A9
:101C90000120704702207047BB1E00081F1F00086C
:101CA00038B590F87140E4B2202C01D0022038BD44
:101CB000002933D0002A33D090F87030012B01D1A5
:101CC000022038BD13460446012280F87020C1640A
:101CD000A0F85030A0F8523000254567212280F846
:101CE0007120826E0F49D162826E0F491163826E3C
:101CF0000E495163826E956302682832C16C806E12
:101D0000FEF728FD236840221A6284F8705022688A
:101D1000936843F080039360284638BD012038BDA6
:101D2000012038BD611E0008B11E0008D11F000847
:101D300038B590F87240E4B2202C01D0022038BDB2
:101D4000002938D0002A38D090F87030012B01D10A
:101D5000022038BD13460446012280F870204165F8
:101D6000A0F8583000254567222280F87220C26E04
:101D70001349D162C26E13491163C26E1249516395
:101D8000C26E95630168426D2431C06EFEF7E2FCBD
:101D900084F870502268136843F4807313602268DB
:101DA000936843F0010393602268936843F0400313
:101DB0009360284638BD012038BD012038BD00BFE2
:101DC000831F0008C51F0008D11F000810B5044676
:101DD0000268136823F0C003136003689A6812F066
:101DE000800F0AD09A6822F080029A60836E23B135
:101DF00000229A63806EFEF7E8FC0020A4F85200EF
:101E0000202384F8713010BD10B5044602681368B1
:101E100023F4907313600268936823F001039360C6
:101E200003689A6812F0400F0AD09A6822F04002C4
:101E30009A60C36E23B100229A63C06EFEF7C5FCA0
:101E40000020A4F85A0023680F221A622268138B1C
:101E50009BB243F008031383202384F8723010BD33
:101E600008B5836A0268126812F0200F0DD10022B3
:101E7000A3F8522019688A6822F080028A601A68E2
:101E8000136843F04003136008BD184602F0E8FBF6
:101E900008BD08B501680A6822F040020A602022E5
:101EA00080F871200022426602F0DAFB08BD70471C
:101EB00008B5806AFFF7FBFF08BDB0F85C2090F81A
:101EC0007230DBB2222B06D00268138B9BB243F038
:101ED00008031383704710B50368998C436D5C1C2D
:101EE0004465D2B20A401A70B0F85A309BB2013B36
:101EF0009BB2A0F85A3003B110BD0268136823F4F6
:101F0000907313600268936823F0010393602023A9
:101F100080F872300023036602F06EFA10BD08B537
:101F2000B0F85C2090F87230DBB2222B06D0026849
:101F3000138B9BB243F00803138308BD0368998C8D
:101F4000436D0A401A80436D02334365B0F85A303E
:101F50009BB2013B9BB2A0F85A30002BEDD1026836
:101F6000136823F4907313600268936823F00103ED
:101F70009360202380F872300023036602F03CFA5D
:101F800008BD08B5836A0268126812F0200F14D1E8
:101F90000022A3F85A2019680A6822F480720A60A5
:101FA00019688A6822F001028A6019688A6822F03A
:101FB00040028A60202283F87220184602F01CFA40
:101FC00008BD704708B5806AFFF7FBFF08BD704782
:101FD00010B5846A94F87130DBB2212B0CD094F8E0
:101FE0007230DBB2222B13D0636F43F010036367B0
:101FF0002046FFF7ECFF10BD23689B6813F0800FAD
:10200000EDD00023A4F852302046FFF7C5FDE6E7E7
:1020100023689B6813F0400FE6D00023A4F85A30E1
:102020002046FFF7C2FDDFE738B504460268D369F2
:102030001168906813F00F050CD113F0200F09D030
:1020400011F0200F06D0236E002B00F09380204665
:10205000984738BD002D6FD010F0010502D111F462
:10206000907F69D013F0010F07D011F4807F04D066
:1020700001201062626F0243626713F0020F07D003
:1020800035B1226802201062626F42F0040262677A
:1020900013F0040F07D035B1226804201062626F7C
:1020A00042F00202626713F0080F09D011F0200F0E
:1020B00000D12DB1226808201062626F024362676E
:1020C000626F002A56D013F0200F06D011F0200FB7
:1020D00003D0236E0BB120469847636F13F0080FAF
:1020E00004D123689B6813F0400F1FD02046FFF7F0
:1020F0005CFD23689A6812F0400F13D09A6822F0B2
:1021000040029A60E36E4BB11D4A9A63E06EFEF79F
:1021100078FB78B3E06E836B984738BD2046FFF7B5
:1021200056FF38BD2046FFF752FF38BD2046FFF767
:102130004EFF0023636738BD13F4801F02D010F4F4
:10214000800F0AD113F0800F0ED011F0800F0BD04A
:10215000636E7BB12046984738BD4FF480131362FD
:10216000204600F0CAFA38BD13F0400F02D011F03B
:10217000400F00D138BD2046FFF78BFEFAE700BFC5
:102180008521000808B5806A0023A0F85A30A0F81D
:102190005230FFF71CFF08BD2DE9784B044601685B
:1021A00083680269134342691343C2691343086891
:1021B000A14A024013430B602268536823F4405342
:1021C000E1680B435360A36922689C498A4201D0AD
:1021D000216A0B43916821F430610B4393602368BB
:1021E000974A93421CD0974A93422DD0934A9342E8
:1021F00043D01025914A93425ED0E369B3F5004F76
:1022000000F0CD80082D00F26781DFE815F026018F
:102210003D014701650152016501650165015C01F0
:1022200002F55842D2F8882002F00302032A09D8A6
:10223000DFE802F002043C060125DBE70425D9E7CC
:102240000825D7E71025D5E702F5E632D2F8882031
:1022500002F00C020C2A0ED8DFE802F0070D0D0D7B
:10226000090D0D0D2A0D0D0D0B000025C2E70425EB
:10227000C0E70825BEE71025BCE702F5C832D2F852
:10228000882002F44062B2F5806F0BD007D9B2F516
:10229000006F0FD0B2F5406F06D10825AAE71AB932
:1022A0000025A7E70425A5E71025A3E70225A1E758
:1022B00002259FE702259DE7082D11D8DFE805F0EC
:1022C000081005100C10101013005F4800260DE0D8
:1022D000FFF7A4F8002609E0FEF786FC002605E0DB
:1022E0000020012602E04FF400400026002800F004
:1022F000C580626802EB42039842C0F0F080B0EB08
:10230000023F00F2EE80082D46D8DFE805F00545D3
:102310001F45294545453B00FFF780F800234FEA5C
:1023200010694FEA00286268500818EB000B49F169
:10233000000C58466146FDF761FFA0F54072434B23
:102340009A4200F2D0802368D86097E055080023B5
:102350003F480021401941F10001FDF74FFFECE734
:10236000FEF742FC00234FEA10694FEA002862683A
:10237000500818EB000B49F1000C58466146FDF778
:102380003DFFDAE750080021002310F5000041F17D
:102390000001FDF733FFD0E701260020CDE7082D2F
:1023A00058D8DFE805F0051F2A5735575757400022
:1023B000FFF734F86268530803EB4003B3FBF2F312
:1023C0009BB20026A3F110014FF6EF72914200F28A
:1023D0008C809AB222F00F02C3F3420313432268A7
:1023E000D3604BE0FFF72AF86268530803EB400321
:1023F000B3FBF2F39BB20026E4E76268530803F1F3
:10240000F47303F59043B3FBF2F39BB20026D9E7D4
:10241000FEF7EAFB6268530803EB4003B3FBF2F3F9
:102420009BB20026CEE76268530803F58033B3FB06
:10243000F2F39BB20026C5E7F369FFEF008000408E
:1024400000380140004400400024F400FFFC0F006D
:10245000000024F401260023B4E7FEF7DFFF6368E1
:1024600000EB5300B0FBF3F080B20026A0F11002A5
:102470004FF6EF739A423AD82368D8600023236658
:1024800063663046BDE8788BFEF7D8FF636800EBE3
:102490005300B0FBF3F080B20026E7E7636858080A
:1024A00000F5740000F51050B0FBF3F080B2002688
:1024B000DCE7FEF799FB636800EB5300B0FBF3F039
:1024C00080B20026D2E76368580800F50040B0FBF0
:1024D000F3F080B20026C9E701260020C6E70126F6
:1024E000CCE70126CAE70126C8E70126C6E7012690
:1024F000C4E700BF436A13F0010F06D002685368B7
:1025000023F40033816A0B435360436A13F0020FD4
:1025100006D00268536823F48033C16A0B435360CA
:10252000436A13F0040F06D00268536823F4802333
:10253000016B0B435360436A13F0080F06D0026827
:10254000536823F40043416B0B435360436A13F019
:10255000100F06D00268936823F48053816B0B43FD
:102560009360436A13F0200F06D00268936823F447
:102570000053C16B0B439360436A13F0400F0AD0C2
:102580000268536823F48013016C0B435360036C9F
:10259000B3F5801F0BD0436A13F0800F06D002689A
:1025A000536823F40023816C0B4353607047026827
:1025B000536823F4C003416C0B435360EBE72DE9F0
:1025C000F04105460F4616469846069C2B68DB6987
:1025D00037EA03030CBF01230023B3421ED1B4F139
:1025E000FF3FF3D02CB1FDF7A5FFA0EB080084421C
:1025F000ECD22A68136823F4D07313602A689368B6
:1026000023F001039360202385F8713085F8723040
:10261000002385F870300320BDE8F0810020BDE87C
:10262000F08130B583B0044600234367FDF782FF95
:10263000054623681B6813F0080F0ED123681B683A
:1026400013F0040F17D1202384F8713084F872300E
:10265000002084F8700003B030BD6FF07E4300931B
:10266000034600224FF400112046FFF7A8FF002880
:10267000E4D00320EFE76FF07E4300932B46002267
:102680004FF480012046FFF79AFF0028DBD003209B
:10269000E1E778B310B5044690F871300BB324230A
:1026A00084F871302268136823F001031360204618
:1026B000FFF772FD01281FD0636ABBB92268536817
:1026C00023F4904353602268936823F02A039360B5
:1026D0002268136843F0010313602046FFF7A1FF4F
:1026E00010BD80F8703002F027F8D8E72046FFF7D9
:1026F00001FFE3E70120704710BD7047842801D037
:10270000033070470020704708B500F03DFD002001
:1027100008BD2DE9F04387B004460F464569BDB1B9
:102720008669AEB1D0F80480D0F80090B0F9080006
:10273000FFF7E4FF22690296019500903B46494667
:10274000404600F0C3FC0590059807B0BDE8F08353
:1027500065682668D4F81080B4F90800FFF7CEFF4A
:1027600005AB019300903B461FFA88F2314628469C
:1027700000F0D7FC0128E7D00020E6E708B50346C3
:1027800000B90123184600F045FE002008BD10B531
:1027900082B082684AB1C3683BB1416800680024D6
:1027A000009400F045F902B010BD002241680068B5
:1027B00000F08EF9F7E708B500F092FF012801D08C
:1027C00001F010FA08BD00F1080343604FF0FF323A
:1027D0008260C360036100230360704700230361CC
:1027E000704743684B609A688A609A685160996044
:1027F0000861036801330360704730B40D68B5F1B8
:10280000FF3F02D000F1080202E0026904E01A462C
:1028100053681C68A542FAD253684B6099608A607D
:102820005160086103680133036030BC704703697D
:102830004268816891608268416851605A6890423C
:1028400005D000220261186801381860704782685C
:102850005A60F6E710B5044601F054F9A26BE36B39
:102860009A4204D0002401F06FF9204610BD0124E3
:10287000F9E710B5044601F045F9A36B23B1002434
:1028800001F062F9204610BD0124F9E770B5044655
:102890001646856B026C4AB9036853BB406800F06A
:1028A00087FF002363600135A56370BD6EB9806842
:1028B00002F026F8226CA3681344A3606268934276
:1028C00019D32368A3600020EDE7C06802F018F870
:1028D000236C5B42E2681A44E26021688A4202D2B9
:1028E00062681344E360022E07D145B1013D002028
:1028F000D9E70020D7E70020D5E70020D3E7002064
:10290000D1E7026C72B110B50346C4681444C460C8
:102910004068844201D31868D8600846D96801F03D
:10292000EFFF10BD704738B5054601F0EBF895F89C
:10293000454064B201E0013C64B2002C0ADD6B6AE0
:1029400043B105F1240000F02DFE0028F3D000F083
:10295000BFFEF0E7FF2385F8453001F0F5F801F000
:10296000D1F895F8444064B201E0013C64B2002C17
:102970000ADD2B6943B105F1100000F013FE0028B9
:10298000F3D000F0A5FEF0E7FF2385F8443001F016
:10299000DBF838BD38B530B304460D4601F0B2F867
:1029A0002168E26B236C03FB021060600020A063CF
:1029B000A160013A02FB0313E360FF2384F8443073
:1029C00084F84530C5B92369F3B104F1100000F073
:1029D000E9FDC8B14FF080520D4B1A60BFF34F8F25
:1029E000BFF36F8F10E04FF0500383F31188BFF3F4
:1029F0006F8FBFF34F8FFEE704F11000FFF7E3FE88
:102A000004F12400FFF7DFFE01F09EF8012038BD3D
:102A100004ED00E010B5029B0C4639B11A60D86392
:102A20001C6401211846FFF7B5FF10BD1B60F6E7D7
:102A300040B94FF0500383F31188BFF36F8FBFF39A
:102A40004F8FFEE710B584B0044663B1A2B1A9B1BF
:102A50000120A8B94FF0500383F31188BFF36F8FA3
:102A6000BFF34F8FFEE74FF0500383F31188BFF39E
:102A70006F8FBFF34F8FFEE70120EAE70020E8E702
:102A80000AB901B1002040B94FF0500383F3118817
:102A9000BFF36F8FBFF34F8FFEE74820039003987B
:102AA000482808D04FF0500383F31188BFF36F8F8D
:102AB000BFF34F8FFEE720461C46012384F84630C3
:102AC00000949DF81830FFF7A5FF204604B010BD14
:102AD00040B94FF0500383F31188BFF36F8FBFF3FA
:102AE0004F8FFEE7F0B583B0064611B101FB00F051
:102AF00000E0002017460C46483001F097F90546E3
:102B000050B1002380F8463000903B4600F1480267
:102B100021463046FFF77EFF284603B0F0BD000097
:102B2000F0B585B0019260B1044699B10125BDB9F7
:102B30004FF0500383F31188BFF36F8FBFF34F8FB4
:102B4000FEE74FF0500383F31188BFF36F8FBFF39D
:102B50004F8FFEE7026C0AB90125E8E70025E6E79A
:102B6000022B09D06DB94FF0500383F31188BFF3E6
:102B70006F8FBFF34F8FFEE7E26B012AF2D0002583
:102B8000F0E71E460F4600F0ABFD10B9019B03B104
:102B9000002545B94FF0500383F31188BFF36F8FC1
:102BA000BFF34F8FFEE700252CE032463946204622
:102BB000FFF76CFE636A8BB104F1240000F0F2FCB5
:102BC00038B14FF08052374B1A60BFF34F8FBFF3CD
:102BD0006F8F00F0B9FF012005B0F0BD0028F8D0DC
:102BE0004FF080522F4B1A60BFF34F8FBFF36F8FA0
:102BF000EFE700F0A9FF0020EEE72046FFF793FE85
:102C000000F08EFB00F07EFFA26BE36B9A42CCD308
:102C1000022ECAD0019B002BEBD01DB902A800F0F8
:102C200003FD012500F090FF00F0E6FA00F06AFFD6
:102C300094F844305BB2B3F1FF3F02D1002384F833
:102C4000443094F845305BB2B3F1FF3F02D100232A
:102C500084F8453000F078FF01A902A800F0F8FCE4
:102C6000C8B92046FFF7F6FD0028C6D0019904F147
:102C7000100000F07DFC2046FFF755FE00F050FBF1
:102C80000028BFD14FF08052064B1A60BFF34F8F20
:102C9000BFF36F8FB6E72046FFF745FE00F040FB1D
:102CA000002099E704ED00E02DE9F04184B00192A5
:102CB00060B1044699B10125BDB94FF0500383F3CB
:102CC0001188BFF36F8FBFF34F8FFEE74FF05003B4
:102CD00083F31188BFF36F8FBFF34F8FFEE7026C52
:102CE0000AB90125E8E70025E6E71F46884600F017
:102CF000F7FC10B9019B03B1002545B94FF0500313
:102D000083F31188BFF36F8FBFF34F8FFEE7002669
:102D10005DE0E66841462046FFF7F3FDDFB9013D7F
:102D2000A563236813B900F09FFD6060236963B158
:102D300004F1100000F036FC38B14FF08052454BE2
:102D40001A60BFF34F8FBFF36F8F00F0FDFE0120BD
:102D500004B0BDE8F081E660636A002BF5D004F1B1
:102D6000240000F01FFC0028EFD04FF08052394BB8
:102D70001A60BFF34F8FBFF36F8FE6E700F0E4FEFA
:102D80000020E5E702A800F04FFC012629E000231F
:102D900084F8443031E0002384F8453033E000F01B
:102DA000B1FE606800F0ACFC00F0CEFE3BE02046D7
:102DB000FFF7B9FD00F0B4FA09E02046FFF7B3FDD4
:102DC00000F0AEFA2046FFF754FD002840D100F095
:102DD00099FEA56B002D9CD1019B002BCED0002E1F
:102DE000D0D000F0B1FE00F007FA00F08BFE94F8AE
:102DF00044305BB2B3F1FF3FC9D094F845305BB2C9
:102E0000B3F1FF3FC7D000F09FFE01A902A800F078
:102E10001FFC0028D1D12046FFF72BFD0028C6D08B
:102E20002368002BBBD0019904F1240000F0A0FB23
:102E30002046FFF778FD00F073FA0028C7D14FF065
:102E40008052044B1A60BFF34F8FBFF36F8FBEE702
:102E500000207DE704ED00E0094B9B6A1B6843B945
:102E6000012343B9064B9A6AD268D2685268DA6283
:102E700070470023F5E74FF0FF32014BDA627047ED
:102E8000340000202DE9F04780469946089D099FAF
:102E90000A9C266B02F18042013A06EB820626F07C
:102EA000070600230F2B07D8C85CE21882F834000D
:102EB000CA5C0AB10133F5E7002384F84330062DDC
:102EC00000D90625E56265644FF0000AC4F848A001
:102ED000201DFFF783FC04F11800FFF77FFC24613D
:102EE000C5F10705A5616462C4F84CA084F850A040
:102EF0004A464146304600F0D9FD206007B13C60AB
:102F0000BDE8F08770B5002407E004EB840293006D
:102F100010481844FFF757FC0134062CF5D90E4C25
:102F200004F1BC063046FFF74EFC04F1D0052846FC
:102F3000FFF749FC04F11400FFF745FC04F1E4003D
:102F4000FFF741FC2046FFF73EFCA662C4F8F850AC
:102F500070BD00BF640000203400002038B5054675
:102F600000F0D0FD264BD3F8FC200132C3F8FC2042
:102F7000D3F80031002B38D0214BD3F804314BB9B2
:102F80001F4BD3F80031DA6AEB6A9A4202D81C4B25
:102F9000C3F800511A4CD4F808310133C4F8083191
:102FA000EB6A01229A40D4F80C110A43C4F80C21B0
:102FB00004F1300003EB83039A00291D1044FFF74E
:102FC00010FC00F0C1FDD4F804316BB1D4F800312D
:102FD000DA6AEB6A9A4207D24FF08052094B1A60C4
:102FE000BFF34F8FBFF36F8F38BD054BC3F8005150
:102FF000D3F8FC30012BCDD1FFF784FFCAE700BF27
:103000003400002004ED00E010B5044690F8513083
:1030100063B1012B11D0022B12D04FF0500383F378
:103020001188BFF36F8FBFF34F8FFEE7006B00F087
:1030300083FF204600F080FF10BD00F07DFF10BD33
:1030400010BD000070B504460E461F4BD3F810515A
:10305000D3F800010430FFF7EAFB60B91A4BD3F84C
:103060000021D16A012202FA01F1D3F80C2122EAEF
:103070000102C3F80C21B4F1FF3F12D02C44124BD3
:10308000D3F800315C60A54214D80F4DA86AD5F87A
:1030900000110431FFF7B1FBEB6A9C4200D2EC62F5
:1030A00070BD002EEAD00848D0F800110431FFF7B7
:1030B00098FB70BD044BD3F8F800D3F8001104312D
:1030C000FFF79BFB70BD00BF3400002030B587B018
:1030D0000B9D0C9C4DB18CB94FF0500383F31188BC
:1030E000BFF36F8FBFF34F8FFEE74FF0500383F3B3
:1030F0001188BFF36F8FBFF34F8FFEE72563022563
:1031000084F8515000250395029405AD01950A9D60
:103110000095FFF7B7FE2046FFF720FF059807B0A0
:1031200030BD2DE9F04385B006460F46154698465A
:10313000900000F07BFE10B38146542000F076FE34
:103140000446C0B1C0F83090DCB1002384F851309F
:10315000039302940D9B01930C9B009343462A46D4
:1031600039463046FFF78EFE2046FFF7F7FE012076
:1031700005B0BDE8F083484600F0DEFEE4E7002439
:10318000E2E74FF0FF30F3E710B588B00024059474
:10319000069407AA06A905A800F04AFF059B02931A
:1031A000069B019300942346079A10491048FFF7A5
:1031B0008DFF18B101231BB908B010BD0023FAE739
:1031C0004FF0500383F31188BFF36F8FBFF34F8F1E
:1031D000084B4FF0FF32DA620122C3F804210022CB
:1031E000C3F8102100F02AFDE6E700BFDC49000823
:1031F000B934000834000020034AD2F818310133F2
:10320000C2F81831704700BF340000202DE9F041AA
:10321000424BD3F81831002B70D1404BD3F81051EA
:103220000135C3F81051CDB99B6A1B6843B14FF00B
:10323000500383F31188BFF36F8FBFF34F8FFEE707
:10324000364B9A6AD3F8F8109962C3F8F820D3F88D
:103250001C210132C3F81C21FFF7FEFD2F4BDB6A56
:103260009D423FD200242D4AD2F80031DB6A03EBA5
:10327000830399000A44136B012B46D9012444E0CF
:103280000124264B9B6A1B6873B3002373BB234B3B
:103290009B6ADB68DE6873689D422CD306F10408E4
:1032A0004046FFF7C4FAB36A1BB106F11800FFF7F6
:1032B000BEFAF36A01229A40184FD7F80C110A435C
:1032C000C7F80C2107F1300003EB83039A00414655
:1032D0001044FFF786FAF26AD7F80031DB6A9A42A7
:1032E000CED2CEE70024CCE70123CFE74FF0FF3268
:1032F0000A4BDA62B7E7094AD362B4E7074AD2F861
:1033000020310133C2F820310024044BD3F824319A
:1033100003B101242046BDE8F08100BF3400002045
:103320003A4BD3F8183143B94FF0500383F3118867
:10333000BFF36F8FBFF34F8FFEE770B500F0E2FB76
:10334000324BD3F81821013AC3F81821D3F81831B9
:10335000002B57D12D4BD3F8FC3023B9002400F0BB
:10336000F3FB204670BD0024284B5B692BB3274D2F
:103370002B6ADC6804F11800FFF759FA261D304665
:10338000FFF755FAE36A01229A40D5F80C110A4377
:10339000C5F80C2105F1300003EB83039A00314698
:1033A0001044FFF71EFAE26AD5F80031DB6A9A4250
:1033B000DAD30122C5F82421D6E70CB1FFF74CFD82
:1033C000124BD3F820417CB9104BD3F82431DBB138
:1033D0004FF080520E4B1A60BFF34F8FBFF36F8FC9
:1033E0000124BCE7013C08D0FFF710FF0028F9D00A
:1033F0000122064BC3F82421F4E70022034BC3F853
:103400002021E1E70024AAE70024A8E734000020F7
:1034100004ED00E010B5B0B10446104BD3F81831FC
:1034200043B14FF0500383F31188BFF36F8FBFF3A5
:103430004F8FFEE7FFF7E0FE00212046FFF702FE78
:10344000FFF76EFF00E0002038B94FF08052044BC8
:103450001A60BFF34F8FBFF36F8F10BD3400002091
:1034600004ED00E038B5134BD3F814310BB3FFF77C
:10347000C3FE104BD3F8E440FFF752FF002CF2D00C
:1034800000F040FB0B4CD4F8F030DD68281DFFF74E
:10349000CEF9D4F8FC30013BC4F8FC30D4F8143138
:1034A000013BC4F8143100F04FFB2846FFF7ACFD98
:1034B000D9E738BD3400002008B5FFF7D3FF064B2D
:1034C0001B6B012BF9D94FF08052044B1A60BFF3EC
:1034D0004F8FBFF36F8FF0E73400002004ED00E062
:1034E000224BD3F81831CBB9204A0023C2F824313B
:1034F000D2F80C31B3FA83F3DBB2C3F11F0303EB51
:10350000830081000A44126B6AB94FF0500383F3C1
:103510001188BFF36F8FBFF34F8FFEE70122134B6C
:10352000C3F82421704710B4104A9900CC18A000A9
:103530001044446B64684463303219448800014687
:103540000830024494420BD0084903EB83039A00ED
:103550000A44536BDB68C1F800315DF8044B7047D7
:103560006068024A0A445063EEE700BF340000205E
:1035700040B94FF0500383F31188BFF36F8FBFF34F
:103580004F8FFEE710B50C46054BD3F800111831EC
:10359000FFF733F901212046FFF754FD10BD00BFAE
:1035A0003400002038B5C368DC684CB304F118055A
:1035B0002846FFF73CF91A4BD3F818314BBB251DB1
:1035C0002846FFF734F9E36A01219940144AD2F8FA
:1035D0000C010143C2F80C11303203EB8303980055
:1035E00029461044FFF7FDF8E26A0D4BD3F800318D
:1035F000DB6A9A4212D90120094BC3F8240138BD75
:103600004FF0500383F31188BFF36F8FBFF34F8FD9
:10361000FEE729460348FFF7E4F8E5E7002038BD58
:10362000340000204800002038B1084AD2F81C11AC
:103630000160D2F81021426070474FF0500383F3CD
:103640001188BFF36F8FBFF34F8FFEE73400002068
:1036500038B5D0B1044609B30D4600F053FA1B4B00
:10366000D3F810112B68B3F1FF3F2BD02068174A15
:10367000D2F81C21904202D06268914224D2626842
:10368000881A834213D8012418E04FF0500383F3C3
:103690001188BFF36F8FBFF34F8FFEE74FF05003DA
:1036A00083F31188BFF36F8FBFF34F8FFEE7521A7A
:1036B00013442B602046FFF7B7FF002400F044FAC4
:1036C000204638BD0024F9E70124F7E73400002044
:1036D0000122024BC3F82421704700BF34000020B0
:1036E000064BD3F804312BB1044BD3F818311BB976
:1036F00002207047012070470020704734000020EE
:1037000000284FD038B50546C36A2749D1F80011C3
:10371000C96A8B4218D28169002906DB2249D1F897
:103720000011C96AC1F107018161686903EB830374
:1037300099001E4B0B44984207D000233BB91A4B0B
:10374000D3F80031DB6AEB6238BD0123F6E72C1DAC
:103750002046FFF76CF880B9EA6A02EB8203990011
:10376000114B0B441B6B43B9012393400E49D1F815
:103770000C2122EA0302C1F80C210B48D0F80031D9
:10378000DB6AEB6201229A40D0F80C110A43C0F8C0
:103790000C21303003EB83039A0021461044FFF7DD
:1037A00020F838BD704700BF3400002064000020BE
:1037B000002850D038B504462A4AD2F80021904259
:1037C00008D04FF0500383F31188BFF36F8FBFF31E
:1037D0004F8FFEE7826C42B94FF0500383F311889C
:1037E000BFF36F8FBFF34F8FFEE7013A8264C06A69
:1037F000616C884231D092BB251D2846FFF717F82F
:1038000088B9E26A02EB82039900164B0B441B6BEA
:103810004BB9012303FA02F21249D1F80C3123EA21
:103820000203C1F80C31636CE362C3F10702A261C9
:10383000012404FA03F10B4AD2F80C010143C2F847
:103840000C11303203EB8303980029461044FEF735
:10385000C8FF204638BD00207047002038BD00203A
:1038600038BD00BF34000020064BD3F800312BB127
:10387000044BD3F80021936C01339364014BD3F8CC
:103880000001704734000020F8B507460C46154685
:103890001E4600F037F9244BD3F8003193F850302E
:1038A000DBB2022B0CD0204BD3F80021D06C20EAE5
:1038B0000700D064D3F80031012283F850201EBBEA
:1038C00000F042F900F01EF925B1174BD3F8003192
:1038D000DB6C2B60144BD3F8003193F85030DBB223
:1038E000012B1ED0104BD3F80031D96C21EA040112
:1038F000D96401240C4BD3F80031002283F8502006
:1039000000F022F92046F8BD11463046FFF79AFB39
:103910004FF08052054B1A60BFF34F8FBFF36F8F8C
:10392000CEE70024E6E700BF3400002004ED00E00D
:103930002DE9F843089E10B30446994615460F46F4
:1039400000F0F0F9EFF311884FF0500383F3118882
:10395000BFF36F8FBFF34F8FB9F1000F02D0E36C4D
:10396000C9F8003094F85030DBB2022284F85020BD
:103970006A1E032A2AD8DFE802F00B1C21244FF02C
:10398000500383F31188BFF36F8FBFF34F8FFEE7B0
:10399000E26C1743E7640125012B3ED1A36ACBB14A
:1039A0004FF0500383F31188BFF36F8FBFF34F8F36
:1039B000FEE7E26C0132E2640125EDE7E7640125F0
:1039C000EAE7022B04D0E7640125E5E70125E3E7F8
:1039D0000025E1E7194BD3F818311BBB271D3846EA
:1039E000FEF725FFE36A01219940144AD2F80C0141
:1039F0000143C2F80C11303203EB830398003946BF
:103A00001044FEF7EEFEE26A0C4BD3F80031DB6A9D
:103A10009A4202D966B10123336088F3118828469F
:103A2000BDE8F88304F118010548FEF7DAFEEAE77D
:103A30000122024BC3F82421EFE700BF340000202D
:103A4000480000200B4B1B68B3F1FF3F08D04FF03C
:103A5000500383F31188BFF36F8FBFF34F8FFEE7DF
:103A60004FF0500383F31188BFF36F8FBFF34F8F75
:103A7000FEE700BF0000002006480068006880F3F1
:103A8000088862B661B6BFF34F8FBFF36F8F00DF58
:103A900000BF000008ED00E0DFF80C00016841F411
:103AA000700101607047000088ED00E04FF0807306
:103AB00040F8043C21F0010140F8081C054B40F897
:103AC0000C3C40F8202C6FF0020340F8243C4438B2
:103AD000704700BF453A00080000000000000000E9
:103AE000074B19680868B0E8F04F80F30988BFF306
:103AF0006F8F4FF0000080F311887047AFF30080A4
:103B0000340100204FF0500383F31188BFF36F8F0F
:103B1000BFF34F8F0A4A136801331360012B0DD195
:103B2000084B1B6813F0FF0F08D04FF0500383F3CE
:103B30001188BFF36F8FBFF34F8FFEE7704700BF51
:103B40000000002004ED00E0094B1B6843B94FF072
:103B5000500383F31188BFF36F8FBFF34F8FFEE7DE
:103B6000013B034A13600BB983F31188704700BF10
:103B70000000002000000000000000000000000025
:103B8000EFF30980BFF36F8F154B1A681EF0100F0B
:103B900008BF20ED108A20E9F04F10604DF8043D79
:103BA0004FF0500080F31188BFF34F8FBFF36F8F3A
:103BB000FFF796FC4FF0000080F3118808BC1968ED
:103BC0000868B0E8F04F1EF0100F08BFB0EC108A84
:103BD00080F30988BFF36F8F704700BFAFF3008099
:103BE0003401002008B54FF0500383F31188BFF370
:103BF0006F8FBFF34F8FFFF709FB18B14FF0805263
:103C0000024B1A60002383F3118808BD04ED00E025
:103C1000064B1B68064AA2FB03239B09013B054A8E
:103C200013600722044B1A60704700BF0400002095
:103C3000D34D621014E000E010E000E0314B1A6850
:103C4000314B9A4219D02F4B1A68304B9A421DD0F3
:103C500000B583B02E4B1A78D2B20192FF221A70AF
:103C60001B78DBB28DF803309DF8033003F050036E
:103C7000284A1370072353601BE04FF0500383F36F
:103C80001188BFF36F8FBFF34F8FFEE74FF05003E4
:103C900083F31188BFF36F8FBFF34F8FFEE71D4A89
:103CA0005368013B53609DF803305B00DBB28DF835
:103CB00003309DF8033013F0800FF0D1154A53689C
:103CC0001B0203F4E0635360019BDBB2104A1370E4
:103CD000114B1A6842F470021A601A6842F070427E
:103CE0001A60FFF795FF00220C4B1A60FFF7D4FE15
:103CF0000B4A136843F040431360FFF7BDFEFFF724
:103D0000A1FE00BF00ED00E071C20F4170C20F4183
:103D100000E400E05C01002020ED00E00000002055
:103D200034EF00E0EFF305830F2B0FD9104A9B5CB3
:103D3000DBB2104A1278934208D24FF0500383F35B
:103D40001188BFF36F8FBFF34F8FFEE70A4B1B68DD
:103D500003F4E063074A5268934208D94FF05003D6
:103D600083F31188BFF36F8FBFF34F8FFEE7704768
:103D7000F0E300E05C0100200CED00E0144A12F0DA
:103D8000070F21D0D11D21F00701C1F53B63083396
:103D900013440A460E49C1F8B82B0020C1F8BC0BE9
:103DA0001344083B23F00703C1F8C03B5860186078
:103DB000981A50601360C1F8C40BC1F8C80B4FF0DB
:103DC0000043C1F8CC3B704740F6B833E2E700BF90
:103DD0006401002010B4134B1A6882421CD3596846
:103DE0005C18A04203D140680144596018464168FC
:103DF0004418A24214D10C4CD4F8C04BA2420DD0AE
:103E00005268114441601A6812680260984200D0FA
:103E100018605DF8044B70471346DDE70460F5E772
:103E20000260F3E71C0D00206401002070B5044619
:103E3000FFF7E2F93F4BD3F8C03BC3B13D4BD3F89A
:103E4000CC3B1C426CD1ACB1083414F0070F11D03C
:103E500024F00704083404F007035BB14FF050036B
:103E600083F31188BFF36F8FBFF34F8FFEE7FFF728
:103E700085FFE3E7002C55D02E4BD3F8C83B9C427E
:103E800052D82C4BD3F8B85B03F6B83301E02B467D
:103E900015466A68944202D92A68002AF7D1254A51
:103EA000D2F8C02B954241D01E6808362A681A60A5
:103EB0006B681B1B102B10D9281910F0070F08D0A6
:103EC0004FF0500383F31188BFF36F8FBFF34F8F11
:103ED000FEE743606C60FFF77DFF6968154AD2F822
:103EE000C83B5B1AC2F8C83BD2F8C42B934202D23B
:103EF000104AC2F8C43B0F4BD3F8CC3B0B436B606A
:103F000000232B60FFF70CFA16F0070F10D04FF0CC
:103F1000500383F31188BFF36F8FBFF34F8FFEE71A
:103F20000026EFE70026EDE70026EBE70026E9E7AD
:103F3000304670BD6401002098B338B50446A0F146
:103F4000080550F8042C1749D1F8CC1B0A4208D1B7
:103F50004FF0500383F31188BFF36F8FBFF34F8F80
:103F6000FEE750F8080C40B14FF0500383F311887E
:103F7000BFF36F8FBFF34F8FFEE722EA010244F8D1
:103F8000042CFFF739F954F8041C064AD2F8C83B50
:103F90000B44C2F8C83B2846FFF71CFFFFF7C0F9E7
:103FA00038BD70476401002000B583B00E4B9A6C99
:103FB00042F001029A649B6C03F001030193019BA0
:103FC000002205210E20FCF7CDFA0E20FCF7FCFAAA
:103FD000002205210F20FCF7C5FA0F20FCF7F4FAA8
:103FE00003B05DF804FB00BF0010024008B50120DB
:103FF000FEF7C4FBFBE708B500F0CEF90028FBD0C4
:1040000000F0E8F9F8E7000000B583B000234FF0B6
:10401000FF3201A905480068FEF746FE0128F5D1E8
:1040200001A800F0D9FA00F007FBEFE7BC20002060
:10403000034B036054330B6080231360704700BF51
:10404000340D002070B59AB01D4C13AD26460FCE2E
:104050000FC596E8070085E80700002113A8FEF7C2
:1040600058FB184B18600CAD04F11C060FCE0FC5A1
:1040700096E8070085E8070000210CA8FEF749FB39
:10408000114B186005AD04F138060FCE0FC596E848
:10409000070085E80700002105A8FEF73AFB0B4B57
:1040A000186001AD543494E80F0085E80F0000213A
:1040B0002846FEF76CFB064B18601AB070BD00BFB7
:1040C00030490008BC0F00201410002018100020F8
:1040D000BC20002010B588B0174BDA6C42F0040207
:1040E000DA64DA6C02F004020092009ADA6C42F0B0
:1040F0000102DA64DA6C02F001020192019ADA6CD0
:1041000042F00202DA64DB6C03F002030293029BCA
:104110000A4C002208212046FCF7C0FC0823039328
:104120000123049300230593069303A92046FCF77B
:10413000F1FB08B010BD00BF0010024000040048B1
:1041400010B582B004464FF47A7303FB01F30A49B9
:10415000A1FB03239B0901AA01460020FFF794FB62
:10416000012802D0002002B010BD019B34EA0303F5
:10417000F9D00020F7E700BFD34D621008B5026800
:10418000034B9A4200D008BDFCF7CCF9FBE700BF17
:10419000002C0140FEE7000000B5ADB0FCF784FC48
:1041A0002F4AD2F8903023F01803C2F8903014232D
:1041B0001B9301231D9321930022229260222392BC
:1041C00002222592269327932823289307232993B5
:1041D0002A922B921BA8FCF787FD80BB0F23169316
:1041E000032317930023189319931A93042116A8F5
:1041F000FDF766F838BB03230193002309930A9364
:1042000001A8FDF707FA10BB4FF40070FCF75CFC47
:1042100008BBFDF7FDF8134BA3FB00308009FCF74A
:10422000DFF90420FCF7F2F9FDF768FB00220F210B
:104230004FF0FF30FCF796F92DB05DF804FBAC2190
:104240000948FFF7A7FFBA210748FFF7A3FFC221DC
:104250000548FFF79FFFC9210348FFF79BFF00BFF9
:1042600000100240D34D6210F849000808B5FCF771
:104270004DF9FFF791FFFFF72DFFFFF795FE00F0D7
:104280003BFA00F011FAFFF7DDFEFEF73DFAFEE71C
:10429000122802D8014B23F810107047880F002015
:1042A00008B5012219491A48FDF790FC0121402068
:1042B000FFF746FF10B10223002208E008BD1549B0
:1042C000194491F824100A44D2B20133DBB2072B0F
:1042D000F5DDD243D2B20F4B93F82C30DBB29342D0
:1042E00000D008BD0B4A92F82930DBB292F82600C4
:1042F000C0B21E2BF5D1134692F82A2093F82B104A
:1043000042EA0121FFF7C4FFEBE700BFB40F002032
:1043100090210020880F00200223002207E01C4982
:10432000194491F824100A44D2B20133DBB2062BAF
:10433000F5DDD243D2B2164991F82B30DBB291F8B9
:104340002610C9B2934200D070471229FCD800B59C
:1043500083B00F4B93F82930DBB28DF80410242B77
:1043600006D10B4B33F81130ADF80630012300E0D5
:10437000002313B903B05DF804FB0120FEF7FEF93A
:1043800000231A4601A903480068FEF7C9FBF1E7BC
:10439000880F0020BC20002010B508220A490B48D5
:1043A000FDF7C6FC02214020FFF7CAFE044608B113
:1043B000204610BD0548FDF727FD054900234B6247
:1043C0008B6281F82C30F3E7AC0F002090210020A5
:1043D000880F002008B5074B93F82830DBB2022B7A
:1043E00004D0032B04D1FFF75BFF08BDFFF794FF58
:1043F00008BD00BF880F002000B585B000230393DF
:104400000C4B83420CD0039B3BB14FF080520A4BC4
:104410001A60BFF34F8FBFF36F8F05B05DF804FBD9
:10442000064B186803AB0093002301224021FFF7DD
:104430007FFAE8E79021002004ED00E0141000204E
:1044400000B583B0214B1A6E42F001021A661A6E53
:1044500002F001020092009A9A6D42F080529A6531
:104460009B6D03F080530193019B0320FCF768F8D8
:10447000002211466FF00B00FCF774F80022114681
:104480006FF00A00FCF76EF8002211466FF0090089
:10449000FCF768F8002211466FF00400FCF762F8A0
:1044A000002211466FF00300FCF75CF800220F2198
:1044B0006FF00100FCF756F800220F214FF0FF309B
:1044C000FCF750F803B05DF804FB00BF0010024099
:1044D00000B589B0002201461920FCF743F81920E5
:1044E000FCF772F8144B1A6E42F400621A661B6EE7
:1044F00003F400630193019B02A903A8FCF7AEFF3C
:10450000FCF79CFF0D4BA3FB00239B0C013B0C48CD
:104510000C4A026040F2E732C2604360002303614C
:104520008360FDF71DFB18B1012009B05DF804FBA5
:104530000348FDF7EDF9F8E70010024083DE1B4366
:10454000C0200020002C014008B5FEF734F908BD5A
:1045500008B50248FCF77DF908BD00BF0021002026
:1045600008B50248FCF775F908BD00BF48210020D6
:1045700008B50248FDF7EAF908BD00BFC0200020D9
:1045800008B50248FDF750FD08BD00BF902100208E
:104590000F49D1F8883043F47003C1F888300D4BCF
:1045A0001A6842F001021A60002098601A6822F02E
:1045B000A85222F410221A604FF48052DA601A686E
:1045C00022F480221A6098614FF000638B6070477C
:1045D00000ED00E00010024016490A6853080B6025
:1045E00012F0010F02D083F030030B60114B1B68F7
:1045F0009B08083B5BB242889918002900DD418086
:1046000002780C4B9A7182785A724288120A9A7216
:104610000223002206E00749194409790A44D2B26C
:104620000133DBB2062BF6DDD243D2B2014BDA7294
:10463000704700BF0800002008B508220649074857
:10464000FDF72EFB01218020FFF77AFD00B108BDA8
:104650000248FDF7BBFBFAE70C0000209021002088
:1046600000B585B0002303930C4B83420CD0039B11
:104670003BB14FF080520A4B1A60BFF34F8FBFF32C
:104680006F8F05B05DF804FB064B186803AB009311
:10469000002301228021FFF74BF9E8E79021002059
:1046A00004ED00E01810002008B50F480F4B036020
:1046B0000F4B436000238360C36003610C2242619F
:1046C0008361C3610362302343624FF48053836389
:1046D0004FF40053C363FDF7DCFF00B908BD54215C
:1046E0000448FFF757FDF9E790210020003801400A
:1046F00040420F00084A000808B50C480C4B036004
:104700004FF4E133436000238360C36003610C22F4
:1047100042618361C36103624362FDF7BAFF00B97E
:1047200008BD69210348FFF735FDF9E7082200209D
:1047300000440040084A000870B588B00368414A48
:10474000934204D0404A934256D008B070BD04460C
:104750003E4B1A6E42F480421A661B6E03F480438D
:104760000193019B4FF4C063039302260496002536
:104770000595032306930723079303A94FF0904061
:10478000FCF7C8F83248334B036046608560C5606B
:104790008023036145618561C5610562FBF75EFFAA
:1047A00000BB2B4BE3669C622B482C4B036002231F
:1047B0004360102383600023C36080220261436151
:1047C0008361C3610362FBF749FF80B9224BA36693
:1047D0009C62002205212520FBF7C4FE2520FBF763
:1047E000F3FEB2E792211E48FFF7D4FCD9E7A321DC
:1047F0001B48FFF7CFFCE9E7144B9A6D42F40032F7
:104800009A659B6D03F400330293029B0423039388
:104810000226049600250595032406940723079392
:1048200003A94FF09040FCF775F84FF40043039351
:10483000049605950694079403A94FF09040FCF761
:1048400069F882E70038014000440040001002404F
:10485000482100205800024000210020440002406E
:10486000084A0008DFF834D0002103E00C4B5B5805
:10487000435004310B480C4B42189A42F6D30B4A72
:1048800002E0002342F8043B094B9A42F9D3FFF7B8
:104890007FFE00F011F8FFF7E9FCFEE700000120C1
:1048A000304A0008000000201800002018000020F6
:1048B00080220020FEE7000070B50D4E0D4CA41BB9
:1048C000A4100025A54209D10B4E0C4C00F024F891
:1048D000A41BA4100025A54205D170BD56F82530B3
:1048E00098470135EEE756F8253098470135F2E74D
:1048F000204A0008204A0008204A0008244A0008EC
:1049000010B5431E0A44914200D110BD11F8014B6D
:1049100003F8014FF7E70000F8B500BFF8BC08BC8A
:104920009E467047F8B500BFF8BC08BC9E4670476D
:10493000EC490008ED3F0008000000000000000006
:10494000800000000000000000000000E8490008AE
:10495000F73F000803000000000000000002000014
:10496000BC180020C00F0020E449000809400008DE
:104970000200000000000000000200001C100020E7
:1049800068180020010000000400000064180020E6
:104990001C180020A0860100400D0300801A0600AC
:1049A00000350C0040420F0080841E0000093D00CD
:1049B00000127A000024F40000366E010048E8017D
:1049C000006CDC0200000000000000000102030493
:1049D00006070809000000000102030449444C4591
:1049E00000000000545800005258000064656661E1
:1049F000756C745461736B002E2E2F5372632F6D80
:104A000061696E2E630000002E2E2F5372632F7586
:084A1000736172742E63000053
:084A180014B8FF7F010000004B
:084A2000B501000800000000D0
:084A28009101000800000000EC
:104A3000AAAAAAAA00093D002F000000FFFF000457
:084A400000000000000000006E
:040000050800486542
:00000001FF
