:020000040800F2
:1000000000000220E5260108EDDA000805DB000803
:100010001DDB000835DB00084DDB00080000000098
:10002000000000000000000000000000D1C6000831
:1000300065DB00080000000031C800087DDB000817
:10004000352701083527010835270108352701081C
:10005000352701083527010835270108352701080C
:10006000352701083527010835270108A9DB0008D5
:10007000D9DB000809DC000839DC000869DC00086D
:1000800099DC0008C9DC000835270108352701087C
:1000900035270108352701083527010835270108CC
:1000A00035270108F9DC0008352701083527010844
:1000B00035270108352701083527010829DD000803
:1000C000352701083527010835270108352701089C
:1000D0003527010859DD000889DD0008B9DD000871
:1000E000352701083527010835270108352701087C
:1000F000352701083527010835270108E9DD000803
:10010000352701083527010835270108352701085B
:1001100019DE000849DE00083527010835270108E7
:100120003527010879DE0008A9DE00083527010817
:1001300035270108000000000000000035270108F5
:10014000352701083527010835270108352701081B
:1001500035270108D9DE000809DF000839DF00086B
:1001600035270108352701083527010835270108FB
:100170003527010835270108352701080000000050
:10018000000000003527010800000000000000000A
:100190003527010800000000000000003527010895
:1001A00000000000000000000000000035270108EA
:1001B00035270108352701083527010835270108AB
:0401C00035270108D6
:1001D00010B5054C237833B9044B13B10448AFF381
:1001E00000800123237010BD706500200000000016
:1001F000884701080C4B43B10C480D4910B5AFF3CB
:1002000000800C48036823B910BD0A48036833B95D
:100210007047094B002BF7D0BDE810401847064B3C
:10022000002BF5D0184700BF0000000088470108E8
:1002300074650020706500200000000000F0D6BD4D
:1002400069B138B505460C46FFF7F8FFD5E900233C
:1002500080185941013CE5E80201F5D138BD7047ED
:10026000024B58689B681844704700BFD482012035
:10027000034B1A680AB1586970470120704700BFE4
:10028000D4820120704700BF10B4084C202390EAAC
:10029000010F4CBF22460022013B4FEA410182EA96
:1002A0004000F4D15DF8044B704700BFB71DC10496
:1002B00038B50A4C05462046A90050F81C3B0122DF
:1002C00013F0EAF8012818BF0123A06818BF636182
:1002D0006368401B2B446360A06038BDD48201205A
:1002E00038B50C4CA368B3F5806F054605D21D44A4
:1002F0000733A56004EB830038BD4FF48060FFF73F
:10030000D7FFA368002BF2D041F21C02A258E26191
:10031000EDE700BFD482012070B5174DAB68EA68E5
:10032000D21A824206461AD269681944696005F1F8
:100330001C0012B150F82330EB6100EB82002B68F7
:10034000EA6000244FF480520121AC6012F020FFDB
:10035000EB6803EB90008642E86006D8AB681E4469
:100360000733AE6005EB830070BD2B69EC6033444E
:100370001B1A2B61204670BDD48201200FB400B53A
:10038000074B83B004AA1B6852F8041BD86801927B
:1003900013F074FB03B05DF804EB04B0704700BFCA
:1003A0009C6300202DE9F843D9B10F469046D1F85F
:1003B000009082B1002300F10C061D4656F8042F70
:1003C000013507EBC30122B15C1CC86913F04EF97B
:1003D0002346A845F2D1384613F048F94846BDE80F
:1003E000F8838946FAE700BF30B404460D4654EA64
:1003F00005031AD0D9B1B1FA81F1C1F13F03012B44
:1004000013D9C1F13D02C2F1200005FA00F024FA2F
:1004100002F3203A034325FA02F2C1F1804113436B
:100420003E3103F0030000EB810030BC7047B0FAAE
:1004300080F12031E1E700BFF8B5194606461046C5
:1004400014461D46FFF7D0FF00EB4000C0003718F0
:100450003158D7E9042301313150D7E9020112198B
:100460006B418442C7E9042375EB010301DAC7E954
:100470000245F8BD8B68002B42D02DE9F04D0B46AC
:1004800088460746D1E906AB01F5BD54002200209D
:1004900000219A62C3E90CABC3E90E0118339C42F8
:1004A000F7D15FB308F128083B6913B3BA6B02B305
:1004B000002602E00136B2421BD0FB6B53F8264007
:1004C000002CF7D02368BB42F4D12369002BF1D074
:1004D0000025636903EBC503D3E900234046FFF71A
:1004E000ABFF23690135AB42F3D8BA6B0136B24298
:1004F000E3D17F68002FD7D1BDE8F08DBDE8F08D46
:10050000704700BF2DE9F04F83B0934601900C4631
:10051000064641F2C87208460025002113F0B9F8DA
:10052000CBF80050002E62D0A846F06801F0BEFE65
:1005300085423CBF5B461860B1684046FFF7A4FEA9
:10054000B76B3946FFF7A0FE8046002F4AD0F56B07
:1005500005EB8709CA46B14609E040460021FFF78E
:1005600093FE0021FFF790FE8046AA4539D055F84A
:10057000046B002EF1D033684B45EED14046F16854
:10058000FFF782FEB168FFF77FFED9F81030804692
:10059000002BEAD03769A3683B44A3603946FFF7D4
:1005A00073FE8046002FE0D07169D4E9042301EB8B
:1005B000C70C4846C646D1E9006792197B41C4E999
:1005C0000423D4E90667F1E80289464577EB09067A
:1005D00001DAC4E906898C45EDD1AA458146F04689
:1005E000C5D14E46766826B1DBF800509DE7DDF8B0
:1005F000048001982146FFF73DFF404603B0BDE867
:10060000F08F00BF70B50446194812F053FF68B36D
:1006100012F032FB20EAE073A360164812F04AFFA2
:100620000646B8B101F042FE054698B1431EF25CA1
:100630002F2A0CD06068E5600230284413F00EF8D1
:100640002A4620603146BDE8704013F017B81D46B9
:10065000002BEFD1A36813B1074E0125EAE76068CC
:10066000E360023012F0FAFF206070BD0346D3E76A
:100670007C5F0108905F0108785F01082DE9F04F69
:10068000ADF5BE5D85B0034603F5BC531C460B902B
:1006900009910CA800214FF4BD520F4612F0F9FF4A
:1006A00023460833089300240023CDE906344FF095
:1006B000FB0ABE46CDF828A0089AD2E90434D2F845
:1006C00000B0CDE90434BBF1000F72D070465C4637
:1006D000002F00F0AD80DDE90623DDE90489CDE9D6
:1006E0000223099B0AEB4A0103EBC101A346A7427F
:1006F000C0F01581089BD1E90201D3E90223151846
:1007000043EB0106A742CDE9005640F23881DDE90E
:100710000256A4FB05013A46002304FB061101F032
:10072000D9FB2A1A66EB0103CDE90623CDE90201C4
:100730003F1B00230024CDE904340024DDE900013F
:10074000FFF752FE45002E180CAB03EBC60CDDE99B
:10075000022312EB08029046DCE9041243EB090382
:10076000994611EB08010CAB42EB090253F8363005
:1007700088469146DCE902120DF1300E5B444EF8DA
:10078000363051EA0203CCE9048905D0DDE900895D
:10079000884579EB020307DA0CAB054403EBC5058A
:1007A000DDE90023C5E90223002F3DD0002C8FD1C5
:1007B00086460A9B089A013B0A93183A013308922D
:1007C0007FF47AAF56460FB10AF1FF36002E11DBE7
:1007D000099906EB460301EBC303A1F11802DDE919
:1007E0000601D3E90445183B001969419A42F8D142
:1007F000CDE906010CAB0EEB4E0E03EBCE04D4E9B3
:1008000004671946DDE9062392197B4116461F4607
:100810000B984FF4BD52C4E9046712F02FFF0DF599
:10082000BE5D05B0BDE8F08F0AF1FF3A002CBFD0E5
:10083000BAF1000F15DB0AEB4A03099D55F8337036
:1008400005EBC301002F40F092800B4604E01F68C7
:100850001946002F40F08B801AF1FF3AA3F11803DC
:10086000F5D2DDF828A04FEA4A01864601EB0A00DE
:10087000C0000CAB1E181B581F19D6E90423DDE974
:100880000445A4185D412B462246D6E90245C6E937
:1008900004230DF1300C54EA0503089B4CF800705A
:1008A000D3E9022303D0A24273EB050006DA01EB81
:1008B0000A000CAC04EBC000C0E9022301EB0A08FB
:1008C0004FEAC8080CAB03EB080C0B9B984422E0E2
:1008D00058E902235CE90201161843EB01073B4685
:1008E00032465CE904675CF8184C58F8185C4CE92F
:1008F00002232C4456EA07034CF8184C58E9042309
:1009000003D0B24273EB070101DA4CE90423ACF1E6
:10091000180CA8F11808BAF1010AD9D56AE70898A5
:10092000D0E90289DDE90456C346CC46D1E9028903
:10093000A7FB05231BEB080B07FB06334CEB090C4D
:100940001046194622460023CDE900BC01F0C2FA48
:100950002A1A66EB0103CDE9042300220023E41BDD
:10096000BB46804689460027CDE90623E6E6D1E965
:100970000423DDE90489CDE90223A346B7E600227A
:100980000023CDE90623D3E612692DE9F843089D3B
:10099000DDF828801C468146DB68002A00F099803B
:1009A00009B95A1CE260002B3AD0D5E90401D4E918
:1009B000042312184B41C4E90423D4E90601D5E904
:1009C0000667B04271EB0703C0F28F80D4E90823B9
:1009D00092197B41C4E9082305F1280104F128009C
:1009E000FFF74CFED8F80C30002B40D1E368002B09
:1009F0003DD0A368C8F80830E368C8F80C30D4E9E3
:100A00000423C8E90423D4E90623C8E90623D4E96A
:100A10000823C8E90823099B23600020BDE8F88368
:100A2000AB68A360D5E90401D4E9042312184B4153
:100A3000C4E90423D4E90623D5E9060182428B41A7
:100A40005EDAC4E90601D4E90823D5E906011218E3
:100A50004B41C4E9082305F128014FF4BD5204F1CC
:100A6000280012F00BFED8F80C30002BBED0D8F8BE
:100A70000020002ACFD1D8F80810A26891420CD0EB
:100A800049462348FFF77AFC4FF0FF33C8F800309F
:100A9000099B23600020BDE8F883E2689A42EFD109
:100AA000D8E90401D4E90423994208BF9042E7D170
:100AB000D8E90601D4E90623994208BF9042DFD164
:100AC000D8E90801D4E90823994208BF9042D7D158
:100AD000A1E713B9D8F80C30C9E701460D48FFF774
:100AE0004DFC4FF0FF30BDE8F883C4E90667D4E958
:100AF0000823D5E9060112184B41C4E908236BE726
:100B0000D4E9082312184B41C4E90823A3E700BF26
:100B1000C85F01089C5F01084FF0FF30704700BFBD
:100B2000144B994222D0F0B583B00B0E0F0C0E0A75
:100B3000362530248DF803108DF8003033217223D0
:100B40008DF801708DF802608DF804508DF8054025
:100B50008DF806108DF8073052B111466B4601AA88
:100B60000548FFF70BFC002003B0F0BD01207047E3
:100B70000268F2E77233303638600108074B10B470
:100B80004FF0FF3200249A61214622465C609C604F
:100B900018685DF8044B12F00BBB00BFD482012033
:100BA00038B50F4C0F4900234FF0FF3222616360CC
:100BB000E360A3606361054612F07CFA206030B107
:100BC00001230021A36113F0AFF9012038BD2846AD
:100BD000054912F06FFA20600028F1D1F6E700BF56
:100BE000D48201207060010874600108F8B58D6836
:100BF000CF68D1F800E0002D02460E460EEB07004C
:100C000019DD13782F2B06BF5378511C114693B171
:100C10002F2B06D011F8013F144663B122462F2B2B
:100C2000F8D14B78013D4A1C23B12DB10C46114639
:100C30002246F4E70A46114637B10B782F2B03D032
:100C40002F230EF80730013013F0ABFA3068FFF7AE
:100C5000A7FF38B93268FFF75FFF28B91046FFF7E2
:100C60009FFF50B10020F8BD094B0A491B68D868A6
:100C700012F028FA4FF0FF30F8BD054B32681B68C0
:100C80000549D86812F01EFA4FF0FF30F8BD00BFDA
:100C90009C630020786001088C60010810B50B4C43
:100CA000206830B1A36843B912F04AF800232360EA
:100CB000E3600023A361606910BDA269002AF3DA32
:100CC0001846FFF7F5FA2068EEE700BFD48201204E
:100CD00010B504460120FFF703FB046010BD00BF00
:100CE00038B5054602200C46FFF7FAFA0560446065
:100CF00038BD00BF38B5054602200C46FFF7F0FAB4
:100D00000560446038BD00BF2DE9F04389B0ADF106
:100D100004080E46474607AA002347F8043F9742B7
:100D2000FBD14FF0000C63463446B6464FF0010944
:100D3000DEF828505A0908A901EB82020EF1180EBC
:100D400003F01F01013345B152F8205C09FA01F1AB
:100D500029430CF1010C42F8201CFC2BE8D10CEBD0
:100D60008C0C0CF11101FFF7C5FF3068FFF7B0FFE5
:100D7000B068FFF7ADFFF068FFF7AAFFD6E90401FE
:100D8000FFF7AEFFD6E90601FFF7AAFFD6E9080193
:100D9000FFF7A6FF58F8040FFFF79AFF4745F9D170
:100DA00006F5BD5602E01834B4420FD0A06A002800
:100DB000F9D0FFF78DFFD4E90C01FFF791FF18344C
:100DC000D4E90801FFF78CFFB442EFD109B0BDE8C8
:100DD000F08300BF08B50120FFF79EFA20B100683C
:100DE000BDE80840FFF74EBA08BD00BF38B5022085
:100DF000FFF792FA78B103460068FFF743FA04461A
:100E00005868FFF73FFA00250346002242EA040033
:100E100043EA050138BD0020002138BD2DE9F04F1F
:100E200087B0002403930B46029104900592383357
:100E3000103153F8042D02B101348B42F9D104343E
:100E4000E400204612F00AFC8046002845D0039BAF
:100E5000436000240460FFF7BDFFC8F80C00FFF7F3
:100E6000B9FFC8F81000FFF7B5FF029B284DC8F87E
:100E7000140003F10C062746AA46B3465BF8043F6C
:100E8000FBB1FFF7A7FF82453CD1FFF7A3FF460860
:100E90004FEAC609484612F0E1FB0546002834D067
:100EA00008EBC70306F1FF399E61D86146B1FFF731
:100EB0009DFF09F1FF39B9F1FF3FE5E80201F6D1E5
:100EC000013701340A2C0AF5003AD7D1059B404678
:100ED000C3F8008007B0BDE8F08F4FF0FF3574B164
:100EE0000C4B039A049900940B48FFF747FA0298B9
:100EF0002A46414607B0BDE8F04FFFF753BA074B0B
:100F00002C46EEE72546054BEBE725464C46E6E743
:100F10000000A101A8600108CC600108B8600108C8
:100F20002DE9F04F89B08146FFF754FFC9F8000062
:100F3000FFF750FFC9F80800FFF74CFFC9F80C0095
:100F4000FFF754FFC9E90401FFF750FFC9E90601A3
:100F5000FFF74CFF4FF4BD52C9E9080109F1280021
:100F6000002112F096FBADF1040407AE0025FFF757
:100F700031FF44F8040F01F015F8B4420544F6D1EE
:100F80006F1E002D38D00024DFF87C80DFF87CA0B5
:100F900025462646ACB90DEB8506043E00E01D460D
:100FA000072D02D94046FFF7E9F956F8044F6B1CAC
:100FB000002CF4D0E2074FEA45161D4603D464081E
:100FC0000136E207FBD5FB2E19D8FFF703FF06EB2E
:100FD000460B09EBCB0B013FCBF82800FFF706FFD0
:100FE000CBE90C01FFF702FF7B1C4FEA540406F12A
:100FF0000106CBE90E01CDD109B0BDE8F08F504616
:10100000FFF7BCF9E1E700BF2C610108F0600108BF
:101010002DE9F04FADF5BE5D85B09A460DF5BF5395
:1010200018331E6800920DF5BF531C330C468046E2
:101030001D68FFF7CFFE04F10C0301464246184637
:101040000193FFF76DFD002800F0C480FFF7C2FE9A
:10105000A368984205D000200DF5BE5D05B0BDE83F
:10106000F08FDFF89C91FFF7FBF82860FFF7B2FEE6
:10107000B0F1234F32D1FFF7ADFE02A8FFF750FFCA
:10108000FFF7F6F80746002840F0858033689BB9E3
:101090000DF5C052029B12689342E4D1049FDAF826
:1010A000083000989F4241F2C87202A9DBD112F0C9
:1010B000E5FA2B683360D6E741F2D07012F0CEFA31
:1010C0008346C9F8000041F2C872083002A912F044
:1010D000D5FACBF80070D9F80090C4E7A56B002DC5
:1010E0007BD0E36BB0F1807F1F6865D13D4E00255A
:1010F00014E032462B4621464046FFF78FFE064657
:1011000000285AD0FFF766FEA36B0135AB4264D0CE
:10111000E36BB0F1807F53F825704ED1FFF75AFE94
:101120000028EFD0032848D1002FE2D03B689C4232
:10113000DFD1FFF74FFE7B6898423ED1FFF74AFEB2
:10114000BB68984239D1FFF745FEFB68984234D11D
:10115000DFF8B090DDF804B010375BF804AFBAF1F7
:10116000000F0ED0FFF736FE0090FFF733FE009B16
:101170004B4522D13968B0EB410F1ED17868D0477A
:101180000837194B09F500399945E6D1FFF770F892
:101190000028B7D00746154B154A1648414612EAB3
:1011A000270238BF1A46FFF7E9F84FF0FF300DF578
:1011B000BE5D05B0BDE8F08F00252B4641460E4AC6
:1011C0000E48FFF7DBF84FF0FF300DF5BE5D05B0C0
:1011D000BDE8F08F4FF0FF303EE700283FF43BAF13
:1011E000EBE700BF947A01200000B50178610108A7
:1011F0006C610108B4610108806101088C6101081B
:10120000907A01200000A10138B5094CA368054679
:1012100013B11846FFF74CF8A9000022206811F01E
:10122000C7FF206812F05EF88010606038BD00BF14
:10123000D48201202DE9F04F834683B00D461C4631
:10124000002A00F08680002C40F08E8029464FF066
:101250002340FFF759FD464B1C6874B104F10801A7
:101260004FF02340FFF750FD414B1868046812F01F
:10127000FDF93F4B1C60002CF0D1DBF838304FF00B
:1012800000089BB95DE0DBF83C3053F8285015B1FD
:101290002B689B455AD000214FF08070FFF72AFD44
:1012A000DBF8383008F1010843454AD0304B5D681F
:1012B000002DE8D06B684345E5D101230835019343
:1012C00003214FF08070FFF715FD6868294EFFF786
:1012D000FFFCA868FFF7FCFCE868FFF7F9FC103595
:1012E0000BF10C0757F8043FABB1D5F800A030461E
:1012F0004FEA4A01FFF7FEFC0AF1FF34D5F80490EB
:10130000BAF1000F06D0013CF9E80201FFF7E8FC52
:10131000631CF8D10835184B06F500369E42E1D122
:10132000019B002BBCD0124B0A2259685846FFF78C
:1013300039F80F4B5860DBF8383008F101084345A5
:10134000B4D1002003B0BDE8F04FC1E40023019305
:10135000B6E70A480A49FFF7CDFCDBF80800FFF7BB
:10136000B7FC002C3FF472AF2046FFF74DFF6DE74E
:10137000907A01200000A1010000B501616463675B
:101380007233303602294CDD2DE9F04F00F1080CA4
:1013900083B00D464FF0000A0224DCE90489DCE941
:1013A0000023424573EB0903DCE90267CDF800A096
:1013B000514622DACCEBC40BABF1180B0CF108034D
:1013C000E646CDE90067524605E053E90267464527
:1013D00077EB090622DA53E90467C3E90067DEE91F
:1013E0000067023ADE44C3E902671146A3F1100325
:1013F0008644EAD5DDE9006700920231023400EB51
:10140000C101A542C1E90067C1E902890AF1020AE6
:101410000CF1100CC1DC03B0BDE8F08FDDE9006712
:10142000EBE7704770B50D4B066883FB0623F41796
:10143000C4EB630404EBC404341B0DD1002E4568D7
:1014400009DD0835284609340821FFF79BFFA6422D
:1014500005F14805F6DC70BD11F001FC398EE3386A
:10146000F8B5436BBBB1866BAEB10546002400F105
:101470000C07EB6B53F824003A461030002352F867
:10148000041F11B1092B07D0083001330A2BF6D104
:101490000134A642EDD1F8BDFFF7C4FFAE6B0134B5
:1014A000A642E6D1F7E700BF2DE9F043ADF5BF5DF9
:1014B00081B0374C05460E46002190461F460491E8
:1014C000059161602160FFF7CBFF3146E868FFF7C7
:1014D0008DFB01301DD0FFF77DFCF8B12D4B9842FC
:1014E0003BD031682C48FEF749FF616839B10A22C8
:1014F0002846FEF757FF014660600028F7D1FFF746
:10150000CDFB002805D0ACBF244825483168FEF744
:1015100035FF0DF5BF5D01B0BDE8F0830DF1180991
:10152000FFF72CFB049959B30DF5C05330681B68C5
:1015300002930DF5C053043301971B680093414695
:101540004B462A46FFF720FA0130CED04946049B8D
:10155000059A2846FFF76EFEC7E705AB3068019392
:1015600004AB00930DF5C053043302970DF1180935
:101570004A461B682946FFF74BFD0130D0D1B4E73E
:1015800041F2C872484612F084F8059B0493CBE7F9
:10159000907A0120616463670C620108F0610108C0
:1015A000D06101082DE9F041ADF53E5D8AB00DF541
:1015B000BF560AAB03AA88463146A3F1100504467C
:1015C000FEF7A0FF074602A8FFF71CF8284641F2E5
:1015D000C872002112F05DF854B120468DE8600019
:1015E0003B46424602A9FFF75FFF6468002CF4D136
:1015F000029812F03BF80DF53E5D0AB0BDE8F081AF
:101600000179CB0700D5704710B50446C1F34001FE
:101610000068FFF7C7FF237943F00303237110BD70
:1016200010B5074C2046FFF7EBFFA3680BB1E2684B
:10163000DA60E2680AB1936010BD024A536010BDDF
:10164000F492012090630020016809B1836B03B913
:10165000704770B5002204460C30FFF761FA20B1E4
:101660000B4D2B6813B163602C6070BD094E0A4AA4
:1016700031680C20FFF754FA20B17368AB6003B1F6
:10168000DD607560054811F0F1FA2B68EBE700BFEB
:10169000F4920120906300203062010821160008B6
:1016A00081F0004102E000BF83F0004330B54FEA13
:1016B00041044FEA430594EA050F08BF90EA020F80
:1016C0001FBF54EA000C55EA020C7FEA645C7FEA13
:1016D000655C00F0E2804FEA5454D4EB5555B8BF36
:1016E0006D420CDD2C4480EA020281EA030382EAA7
:1016F000000083EA010180EA020281EA0303362D39
:1017000088BF30BD11F0004F4FEA01314FF4801C0B
:101710004CEA113102D0404261EB410113F0004F1D
:101720004FEA03334CEA133302D0524263EB4303D4
:1017300094EA050F00F0A780A4F10104D5F1200E72
:101740000DDB02FA0EFC22FA05F2801841F10001CD
:1017500003FA0EF2801843FA05F359410EE0A5F1A1
:1017600020050EF1200E012A03FA0EFC28BF4CF0D2
:10177000020C43FA05F3C01851EBE37101F0004588
:1017800007D54FF0000EDCF1000C7EEB00006EEB95
:101790000101B1F5801F1BD3B1F5001F0CD349081F
:1017A0005FEA30004FEA3C0C04F101044FEA445276
:1017B00012F5800F80F09A80BCF1004F08BF5FEAFD
:1017C000500C50F1000041EB045141EA050130BDDD
:1017D0005FEA4C0C404141EB010111F4801FA4F180
:1017E0000104E9D191F0000F04BF01460020B1FAD5
:1017F00081F308BF2033A3F10B03B3F120020CDA0D
:101800000C3208DD02F1140CC2F10C0201FA0CF0EA
:1018100021FA02F10CE002F11402D8BFC2F1200C4F
:1018200001FA02F120FA0CFCDCBF41EA0C01904005
:10183000E41AA2BF01EB0451294330BD6FEA04044E
:101840001F3C1CDA0C340EDC04F11404C4F1200239
:1018500020FA04F001FA02F340EA030021FA04F34B
:1018600045EA030130BDC4F10C04C4F1200220FAA2
:1018700002F001FA04F340EA0300294630BD21FAE0
:1018800004F0294630BD94F0000F83F4801306BFA6
:1018900081F480110134013D4EE77FEA645C18BF9A
:1018A0007FEA655C29D094EA050F08BF90EA020F31
:1018B00005D054EA000C04BF1946104630BD91EA29
:1018C000030F1EBF0021002030BD5FEA545C05D12C
:1018D0004000494128BF41F0004130BD14F580046B
:1018E0003CBF01F5801130BD01F0004545F0FE41DF
:1018F00041F470014FF0000030BD7FEA645C1ABF14
:10190000194610467FEA655C1CBF0B46024650EA4A
:10191000013406BF52EA033591EA030F41F4002176
:1019200030BD00BF90F0000F04BF0021704730B5FC
:101930004FF4806404F132044FF000054FF00001D1
:1019400050E700BF90F0000F04BF0021704730B592
:101950004FF4806404F1320410F0004548BF404267
:101960004FF000013EE700BF42004FEAE2014FEABC
:1019700031014FEA02701FBF12F07F4393F07F4F97
:1019800081F06051704792F0000F14BF93F07F4FC9
:10199000704730B54FF4607401F0004521F000410C
:1019A00020E700BF50EA010208BF704730B54FF092
:1019B00000050AE050EA010208BF704730B511F097
:1019C000004502D5404261EB41014FF4806404F1CF
:1019D00032045FEA915C3FF4DCAE4FF003025FEA51
:1019E000DC0C18BF03325FEADC0C18BF033202EBD9
:1019F000DC02C2F1200300FA03FC20FA02F001FA33
:101A000003FE40EA0E0021FA02F11444C1E600BFD1
:101A100070B54FF0FF0C4CF4E06C1CEA11541DBF84
:101A20001CEA135594EA0C0F95EA0C0F00F0DEF84F
:101A30002C4481EA030621EA4C5123EA4C5350EA34
:101A4000013518BF52EA033541F4801143F4801385
:101A500038D0A0FB02CE4FF00005E1FB02E506F016
:101A60000042E0FB03E54FF00006E1FB03569CF06B
:101A7000000F18BF4EF0010EA4F1FF04B6F5007F71
:101A800064F5407404D25FEA4E0E6D4146EB0606E3
:101A900042EAC62141EA55514FEAC52040EA5E506C
:101AA0004FEACE2EB4F1FD0C88BFBCF5E06F1ED816
:101AB000BEF1004F08BF5FEA500E50F1000041EB4D
:101AC000045170BD06F0004646EA010140EA0200FA
:101AD00081EA0301B4EB5C04C2BFD4EB0C0541EA1C
:101AE000045170BD41F480114FF0000E013C00F331
:101AF000AB8014F1360FDEBF002001F0004170BD55
:101B0000C4F10004203C35DA0C341BDC04F114046D
:101B1000C4F1200500FA05F320FA04F001FA05F2F9
:101B200040EA020001F0004221F0004110EBD370C6
:101B300021FA04F642EB06015EEA430E08BF20EAF2
:101B4000D37070BDC4F10C04C4F1200500FA04F395
:101B500020FA05F001FA04F240EA020001F0004127
:101B600010EBD37041F100015EEA430E08BF20EA9A
:101B7000D37070BDC4F1200500FA05F24EEA020EE2
:101B800020FA04F301FA05F243EA020321FA04F011
:101B900001F0004121FA04F220EA020000EBD370C8
:101BA0005EEA430E08BF20EAD37070BD94F0000FC8
:101BB0000FD101F00046400041EB010111F4801FFC
:101BC00008BF013CF7D041EA060195F0000F18BFAD
:101BD000704703F00046520043EB030313F4801FE9
:101BE00008BF013DF7D043EA0603704794EA0C0FA3
:101BF0000CEA135518BF95EA0C0F0CD050EA4106B9
:101C000018BF52EA4306D1D181EA030101F0004135
:101C10004FF0000070BD50EA410606BF104619465D
:101C200052EA430619D094EA0C0F02D150EA013669
:101C300013D195EA0C0F05D152EA03361CBF1046AA
:101C400019460AD181EA030101F0004141F0FE4149
:101C500041F470014FF0000070BD41F0FE4141F4CD
:101C6000780170BD70B54FF0FF0C4CF4E06C1CEACD
:101C700011541DBF1CEA135594EA0C0F95EA0C0F82
:101C800000F0A7F8A4EB050481EA030E52EA03353D
:101C90004FEA013100F088804FEA03334FF080555E
:101CA00045EA131343EA12634FEA022245EA11158B
:101CB00045EA10654FEA00260EF000419D4208BF3C
:101CC000964244F1FD0404F5407402D25B084FEAE9
:101CD0003202B61A65EB03055B084FEA32024FF495
:101CE00080104FF4002CB6EB020E75EB030E22BFF2
:101CF000B61A754640EA0C005B084FEA3202B6EBB2
:101D0000020E75EB030E22BFB61A754640EA5C0060
:101D10005B084FEA3202B6EB020E75EB030E22BFF0
:101D2000B61A754640EA9C005B084FEA3202B6EBF1
:101D3000020E75EB030E22BFB61A754640EADC00B0
:101D400055EA060E18D04FEA051545EA16754FEA12
:101D500006164FEAC30343EA52734FEAC2025FEA30
:101D60001C1CC0D111F4801F0BD141EA00014FF0BF
:101D700000004FF0004CB6E711F4801F04BF014390
:101D80000020B4F1FD0C88BFBCF5E06F3FF6AFAEAC
:101D9000B5EB030C04BFB6EB020C5FEA500C50F13C
:101DA000000041EB045170BD0EF0004E4EEA1131BF
:101DB00014EB5C04C2BFD4EB0C0541EA045170BDC6
:101DC00041F480114FF0000E013C90E645EA060E0A
:101DD0008DE60CEA135594EA0C0F08BF95EA0C0F38
:101DE0003FF43BAF94EA0C0F0AD150EA01347FF480
:101DF00034AF95EA0C0F7FF425AF104619462CE757
:101E000095EA0C0F06D152EA03353FF4FDAE1046B9
:101E1000194622E750EA410618BF52EA43067FF40A
:101E2000C5AE50EA41047FF40DAF52EA43057FF49A
:101E3000EBAE12E74FEA4102B2F1E04324BFB3F543
:101E4000001CDCF1FE5C0DD901F0004C4FEAC00231
:101E50004CEA5070B2F1004F40EB830008BF20F015
:101E60000100704711F0804F21D113F13872BCBFCF
:101E700001F00040704741F480114FEA5252C2F124
:101E80001802C2F1200C10FA0CF320FA02F018BF6D
:101E900040F001004FEAC1234FEAD32303FA0CFCC0
:101EA00040EA0C0023FA02F34FEA4303CCE77FEA4F
:101EB000625307D150EA01331EBF4FF0FE4040F499
:101EC0004000704701F0004040F0FE4040F4000048
:101ED000704700BF7BB972B90029BEBF00204FF028
:101EE000004106E008BF00281CBF6FF000414FF022
:101EF000FF3000F0D9B9ADF1080C6DE904CE00292E
:101F000009DB002B1ADB00F061F8DDF804E0DDE905
:101F1000022304B07047404261EB4101002B1BDB00
:101F200000F054F8DDF804E0DDE9022304B040429B
:101F300061EB4101524263EB43037047524263EB52
:101F4000430300F043F8DDF804E0DDE9022304B0C8
:101F5000404261EB41017047524263EB430300F0A2
:101F600035F8DDF804E0DDE9022304B0524263EB0A
:101F70004303704753B94AB9002908BF00281CBF62
:101F80004FF0FF314FF0FF3000F08EB9ADF1080C8B
:101F90006DE904CE00F01AF8DDF804E0DDE9022373
:101FA00004B07047430803F05533C01A830803F0A8
:101FB000333300F03330184400EB101000F00F30D2
:101FC00000EB002000EB0040000E70472DE9F047C9
:101FD0008C460D460446089E002B51D18A42174676
:101FE0006DD9B2FA82FEBEF1000F0BD0CEF1200CFB
:101FF00001FA0EF520FA0CFC02FA0EF74CEA050C79
:1020000000FA0EF44FEA174A250CBCFBFAF81FFA47
:1020100087F90AFB18CC45EA0C4508FB09F3AB42EB
:102020000AD9ED1908F1FF3280F02381AB4240F26A
:102030002081A8F102083D44ED1AA4B2B5FBFAF0E4
:102040000AFB105544EA054400FB09F9A14509D9EA
:10205000E41900F1FF3380F00A81A14540F20781C5
:1020600002383C44A4EB090440EA08400021002E59
:1020700061D024FA0EF4002334607360BDE8F08769
:102080008B4207D9002E54D0002186E82100084653
:10209000BDE8F087B3FA83F1002940F08E80AB42AF
:1020A00002D3824200F2FA80841A65EB0305012014
:1020B000AC46002E3FD086E81010BDE8F08712B97C
:1020C0000127B7FBF2F7B7FA87FEBEF1000F34D154
:1020D000EB1B3A0C1FFA87FC0121B3FBF2F8250C2D
:1020E00002FB183345EA03450CFB08F3AB4207D962
:1020F000ED1908F1FF3002D2AB4200F2D1808046E8
:10210000ED1AA3B2B5FBF2F002FB105543EA054409
:102110000CFB00FCA44507D9E41900F1FF3302D2FF
:10212000A44500F2B8801846A4EB0C0440EA08402D
:102130009DE731463046BDE8F087CEF1200405FA30
:102140000EF307FA0EF720FA04F83A0C25FA04F415
:1021500048EA0308B4FBF2F14FEA184502FB1144C8
:102160001FFA87FC45EA044501FB0CF3AB4200FA79
:102170000EF409D9ED1901F1FF3080F08A80AB42ED
:1021800040F2878002393D44EB1A1FFA88F5B3FB11
:10219000F2F002FB103345EA034500FB0CF3AB42BF
:1021A00007D9ED1900F1FF386FD2AB426DD9023873
:1021B0003D44EB1A40EA01418FE7C1F1200722FAC2
:1021C00007F88B4005FA01F448EA030320FA07FEFA
:1021D0004FEA134CFD404EEA040EB5FBFCF94FEA02
:1021E0001E440CFB19551FFA83F844EA054509FB08
:1021F00008F4AC4202FA01F200FA01FA08D9ED182B
:1022000009F1FF3043D2AC4241D9A9F102091D4482
:102210002D1B1FFA8EFEB5FBFCF00CFB10554EEA91
:10222000054400FB08F8A04507D9E41800F1FF3584
:1022300029D2A04527D902381C4440EA0940A4EB22
:102240000804A0FB02894C45C6464D4615D312D062
:1022500056B1BAEB0E0364EB050404FA07F7CB4062
:102260001F43CC40376074600021BDE8F0871846FA
:10227000F8E69046E0E6C245EAD2B8EB020E69EB1A
:1022800003050138E4E72846D7E7404691E7814651
:10229000BEE7014678E702383C4445E7084608E7D0
:1022A000A8F102083D442BE7704700BF034613F82E
:1022B000012B002AFBD1181A0138704700000000DA
:1022C00001F0FF01102A2BDB10F0070F08D010F8E7
:1022D000013B013A8B422DD010F0070F42B3F6D1EB
:1022E000F0B441EA012141EA014122F007047FF004
:1022F00000070023F0E80256083C85EA010586EA5B
:10230000010685FA47F5A3FA87F586FA47F6A5FA96
:1023100087F68EB9EED1F0BC01F0FF0102F00702A2
:1023200032B110F8013B013A83EA010313B1F8D14D
:102330000020704701387047002D06BF354603382E
:10234000073815F0010F07D1013015F4807F02BF67
:10235000013015F4C03F0130F0BC0138704700BFB8
:1023600010B51A4CD4E91223013243F10003C4E939
:102370001223174B1A6842F400721A601A6842F46A
:1023800080621A601A6842F480721A60032000F0BA
:102390004FF8D4E91423013243F10003C4E91423B4
:1023A00000200BF023FBD4E91623013243F1000394
:1023B000C4E916230BF086FAD4E91823013243F15D
:1023C0000003C4E91823002010BD00BF9065002061
:1023D000003C02400749D1E91A23013243F10003CE
:1023E000C1E91A23044A1168044B1B780B4413609B
:1023F000704700BF90650020407C01200400002051
:102400000549D1E91C23013243F10003C1E91C2332
:10241000024B1868704700BF90650020407C012087
:1024200008B50248FFF710F908BD00BF0C000020F6
:102430000B49D1E90023013243F10003C1E9002334
:10244000084AD36823F4E0631B041B0C000200F469
:10245000E060184340F0BF6040F40030D060704747
:10246000C866002000ED00E0F0B4224BDC68C4F345
:102470000224C4F10703042B28BF0423251D062DC5
:1024800026D9E61E1C4FD7E90245013445F1000567
:10249000C7E90245012404FA03F3013B1940B140A6
:1024A000B440013C14402143002813DB0901C9B2A8
:1024B00000F1604000F5614080F800130E49D1E959
:1024C0000623013243F10003C1E90623F0BC704743
:1024D0000026DFE700F00F000901C9B2074B1954CD
:1024E0000549D1E90423013243F10003C1E9042382
:1024F000ECE700BF00ED00E0C866002014ED00E04E
:102500000849D1E90823013243F10003C1E9082356
:10251000420900F01F00012303FA00F0024B43F8C8
:1025200022007047C866002000E100E01049D1E9B0
:102530001623013243F10003C1E916230138B0F13B
:10254000807F12D20B4B5860F0210B4A82F8231087
:102550000020986007221A600549D1E9182301324A
:1025600043F10003C1E9182370470120704700BF01
:10257000C866002010E000E000ED00E004280DD067
:102580000D4A136823F0040313600C49D1E93A2380
:10259000013243F10003C1E93A237047064A136848
:1025A00043F0040313600549D1E93823013243F1B4
:1025B0000003C1E93823704710E000E0C86600203E
:1025C00008B50248FFF740F808BD00BF0803002027
:1025D00030B405682C6824F480242C60046863609F
:1025E0008368402B0DD0036899600368DA600B495B
:1025F000D1E90223013243F10003C1E9022330BCD7
:10260000704703689A600368D9600449D1E90023E0
:10261000013243F10003C1E90023F0E7D067002055
:102620000268D3B2103B1349A1FB03131B091249E3
:10263000C95CC165032B0ED822F47F7222F003021D
:1026400082650E49D1E90623013243F10003C1E955
:102650000623806D704722F47F7222F00302043259
:1026600082650649D1E90423013243F10003C1E93F
:102670000423EEE7ABAAAAAAA0470108D06700206E
:1026800030B4836A8269002A3CD15C4AD2E90845A9
:10269000013445F10005C2E90845012B1BD023B1E7
:1026A000022B02D0002030BC70475449D1E90A23E4
:1026B000013243F10003C1E90A23C36A13F0807FAA
:1026C00000F09480D1E90E23013243F10003C1E907
:1026D0000E230120E7E74949D1E90C23013243F1F8
:1026E0000003C1E90C23C36AB3F1C07F01D000200D
:1026F000D9E7D1E91023013243F10003C1E91023E6
:102700000120D0E7B2F5005F0DD03C4AD2E9144574
:10271000013445F10005C2E91445022B47D9032BCA
:102720004FD00020BFE7354AD2E91245013445F1C8
:102730000005C2E91245032B5AD8DFE803F0020C6A
:1027400002212E49D1E91A23013243F10003C1E9E4
:102750001A230120A7E72949D1E91623013243F1C1
:102760000003C1E91623C36A13F0807F42D0D1E988
:102770001C23013243F10003C1E91C23012092E72D
:102780001E49D1E91823013243F10003C1E918239E
:10279000C36AB3F1C07F01D0002084E7D1E91E23D2
:1027A000013243F10003C1E91E2301207BE71349F5
:1027B000D1E92223013243F10003C1E922230120A0
:1027C00071E70E49D1E92023013243F10003C1E949
:1027D0002023C36A13F0807F0ED0D1E92423013275
:1027E00043F10003C1E9242301205CE700205AE7FC
:1027F000002058E7002056E7002054E7D06700206B
:10280000F8B505465F4CD4E92623013243F10003B5
:10281000C4E92623FFF7F4FDD4E92823013243F16C
:102820000003C4E92823002D00F0AA8006460023F7
:1028300085F83430022385F835302A68136823F090
:10284000010313602B681A6812F0010F20D04D4C61
:10285000D4E92E23013243F10003C4E92E23FFF70C
:10286000CFFDD4E92A23013243F10003C4E92A232E
:10287000801B0528E6D920236B65032085F83500E9
:10288000D4E92C23013243F10003C4E92C23F8BD21
:102890003C4AD2E93001013041F10001C2E9300186
:1028A0001A68394911406A68A8680243E868024317
:1028B0002869024368690243A8690243E869024340
:1028C000286A02430A43696A04291ED01A602E68E6
:1028D000746924F007046B6A1C43042B22D07461D2
:1028E0002846FFF79DFEEA6D3F239340836000205A
:1028F0006865012385F835302249D1E93C2301324E
:1029000043F10003C1E93C23F8BDE96A286B0143A8
:102910000A431C4CD4E93201013041F10001C4E901
:102920003201D3E71749D1E93423013243F10003DF
:10293000C1E93423AB6A1C43EB6A002BCFD00F46AE
:10294000D1E93623013243F10003C1E93623284699
:10295000FFF796FED7E93823013243F10003C7E9B8
:1029600038230028BBD040236B65012085F8350053
:10297000D7E93A23013243F10003C7E93A23F8BD0E
:102980000120F8BDD06700203F8010F0F8B5304E30
:10299000D6E90045013445F10005C6E90045856DDD
:1029A00090F83440012C51D0012480F8344090F844
:1029B0003540E4B2012C0CD0002380F83430244997
:1029C000D1E90823013243F10003C1E908230220C1
:1029D000F8BD0F460446D6E90201013041F100017D
:1029E000C6E90201022184F83510002161653946EB
:1029F0002046FFF7EDFDE26D3F239340AB60226878
:102A0000136843F0160313602268536943F0800390
:102A10005361236C5BB12268136843F008031360B1
:102A2000D6E90423013243F10003C6E904232268F6
:102A3000136843F0010313600549D1E9062301320D
:102A400043F10003C1E906230020F8BD0220F8BDD0
:102A50000869002070B504464449D1E900230132D9
:102A600043F10003C1E90023866DFFF7C9FC94F828
:102A70003530DBB2022B0ED080236365002384F84F
:102A800034303A49D1E90223013243F10003C1E96C
:102A90000223012070BD05462268136823F0160347
:102AA00013602268536923F080035361236C002B69
:102AB0002CD02268136823F0080313602B49D1E956
:102AC0000623013243F10003C1E90623226813689B
:102AD00023F00103136023681B6813F0010F32D049
:102AE0002249D1E90C23013243F10003C1E90C234F
:102AF000FFF786FC401B052814D81C49D1E90A239E
:102B0000013243F10003C1E90A23E4E71749D1E99F
:102B10000423013243F10003C1E90423A36C002B19
:102B2000C7D1D3E720236365002384F83430032022
:102B300084F835000D49D1E90823013243F100033F
:102B4000C1E9082370BDE26D3F239340B3600020CC
:102B500084F83400012384F835300449D1E90E2388
:102B6000013243F10003C1E90E2370BD306900203A
:102B700090F83530DBB2022B0BD0802343650E4931
:102B8000D1E90023013243F10003C1E90023012010
:102B90007047052380F835300268136823F001037D
:102BA00013600549D1E90223013243F10003C1E971
:102BB00002230020704700BF706900202DE9F0411A
:102BC00082B004469649D1E90023013243F1000363
:102BD000C1E9002300230193924B1D68924BA3FB94
:102BE0000535AD0A876D3E68C26D082393401E42CD
:102BF0001ED0D1E90223013243F10003C1E90223CF
:102C000003681A6812F0040F12D01A6822F0040246
:102C10001A60C26D08239340BB60436D43F001030B
:102C20004365D1E90423013243F10003C1E90423E0
:102C3000E36D012199400E4218D07948D0E906236E
:102C4000013243F10003C0E9062323685B6913F0F6
:102C5000800F0BD0B960636D43F002036365D0E968
:102C60000823013243F10003C0E90823E36D042186
:102C700099400E4218D06A48D0E90A23013243F144
:102C80000003C0E90A2323681B6813F0020F0BD06E
:102C9000B960636D43F004036365D0E90C2301322E
:102CA00043F10003C0E90C23E36D102199400E426B
:102CB00073D05B48D0E90E23013243F10003C0E931
:102CC0000E2323681B6813F0080F66D0B9602168D3
:102CD0000B6813F4802F35D00B6813F4002F13D139
:102CE000D0E91223013243F10003C0E91223216C21
:102CF000002952D0D0E91623013243F10003C0E984
:102D000016232046884748E04549D1E9142301327B
:102D100043F10003C1E91423A16C00293DD0DFF881
:102D20000081D8E91823013243F10003C8E91823D0
:102D300020468847D8E91A23013243F10003C8E945
:102D40001A232AE03648D0E91023013243F1000368
:102D5000C0E910230B6813F4807F0AD10B6823F0BD
:102D600008030B60D0E91C23013243F10003C0E9E2
:102D70001C23216C89B1DFF8A880D8E91E23013219
:102D800043F10003C8E91E2320468847D8E92023E1
:102D9000013243F10003C8E92023E36D202199406B
:102DA0000E4200F0E0801E48D0E92223013243F1B8
:102DB0000003C0E9222323681B6813F0100F00F002
:102DC000D280B96094F83530DBB2052B2ED0216863
:102DD0000B6813F4802F00F092800B6813F4002F1F
:102DE00070D10F49D1E93023013243F10003C1E929
:102DF0003023636C002B00F0B6800E46D1E934011D
:102E0000013041F10001C6E9340120469847D6E976
:102E10003623013243F10003C6E93623A3E000BFA5
:102E2000106A0020B04E0020B5814E1BD0E924234B
:102E3000013243F10003C0E924232268136823F020
:102E4000160313602268536923F080035361236CD7
:102E5000002B2CD02268136823F0080313607349F9
:102E6000D1E92823013243F10003C1E92823E26DAF
:102E70003F239340BB60002384F83430012384F85F
:102E80003530216D002900F0CE80684DD5E92A2328
:102E9000013243F10003C5E92A2320468847D5E9DA
:102EA0002C23013243F10003C5E92C23BBE0D0E918
:102EB0002623013243F10003C0E92623A36C002B33
:102EC000C8D1D4E75949D1E93223013243F1000393
:102ED000C1E93223E36B002B45D00E46D1E938011E
:102EE000013041F10001C6E9380120469847D6E992
:102EF0003A23013243F10003C6E93A2333E04B4859
:102F0000D0E92E23013243F10003C0E92E230B68E0
:102F100013F4807F10D10B6823F010030B600023A3
:102F200084F83430012384F83530D0E93C23013271
:102F300043F10003C0E93C23E16BA1B13C4E06F52F
:102F40001070D0E93E23013243F10003C0E93E2373
:102F50002046884706F55076D6E90023013243F132
:102F60000003C6E90023636D002B2ED03149D1E95F
:102F70000023013243F10003C1E90023636D13F024
:102F8000010F39D0052384F835302268136823F007
:102F900001031360019B013301939D421ED3264917
:102FA000D1E90023013243F10003C1E90023236882
:102FB0001B6813F0010F11D00831D1E90023013251
:102FC00043F10003C1E90023E4E71C49D1E90023F0
:102FD000013243F10003C1E9002324E0002384F817
:102FE0003430012384F835301549D1E9002301320A
:102FF00043F10003C1E90023E16CA1B10C4D05F5DB
:103000005C70D0E90023013243F10003C0E90023E2
:103010002046884705F55E75D5E90023013243F166
:103020000003C5E9002302B0BDE8F081106A00206A
:10303000D0670020186B0020286B0020206B002038
:10304000386B002008B50248FEF7FEFA08BD00BF45
:103050005C05002008B50248FEF7F6FA08BD00BF7F
:103060004007002008B50248FEF7EEFA08BD00BF91
:10307000F007002008B50248FEF7E6FA08BD00BFD9
:103080000C0A002008B50248FEF7DEFA08BD00BFB2
:10309000B40C00202DE9F04182B004460A4600231A
:1030A0000DE1D808083054F8201003F0070E4FEA5D
:1030B0008E0E0F2707FA0EF721EA0701176907FAA4
:1030C0000EF7394344F82010AD4FD7E90401013021
:1030D00041F10001C7E9040119E1A1680EEA01010B
:1030E000D068B8400143A160616821EA05055168D4
:1030F000C1F3001199400D436560A14DD5E90A0166
:10310000013041F10001C5E90A01E1680EEA010E52
:10311000916801FA07F74EEA0707E760516811F076
:10312000805F00F0CB80002101919649486C40F40B
:1031300080404864496C01F48041019101999F08E5
:10314000B81C914951F8201003F00305AD004FF071
:103150000F0E0EFA05FE21EA0E0E8C498C4200F08D
:103160000681DFF81CC2DCE90C01013041F10001ED
:10317000CCE90C0186498C4200F0FB80DCE90E01B1
:10318000013041F10001CCE90E0182498C4200F08E
:10319000F280DCE91001013041F10001CCE91001BD
:1031A0007D498C4200F0E980DCE91201013041F1F7
:1031B0000001CCE9120179498C4200F0F780DCE98A
:1031C0001401013041F10001CCE9140174498C4231
:1031D00000F0EE80DCE91601013041F10001CCE99C
:1031E000160170498C4200F0E580DCE918010130DD
:1031F00041F10001CCE91801072101FA05F54EEA79
:1032000005050237604941F8275001F580610968DA
:10321000F54301EA0507506810F4803F0AD046EAFA
:103220000107DFF85CE1DEE91A01013041F100013C
:10323000CEE91A015C490F60496805EA0107506848
:1032400010F4003F0AD046EA0107DFF834E1DEE976
:103250001C01013041F10001CEE91C0152494F60CF
:10326000896805EA0107506810F4801F0AD046EA11
:103270000107DFF80CE1DEE91E01013041F1000138
:10328000CEE91E0148498F60C9680D40506810F4AE
:10329000001F09D046EA0105394ED6E92001013068
:1032A00041F10001C6E920013F49CD60344DD5E927
:1032B0002201013041F10001C5E9220101330F2B48
:1032C0007AD82F4DD5E92401013041F10001C5E93B
:1032D000240101259D4016682E40B542EED1284FAD
:1032E000D7E90001013041F10001C7E90001576849
:1032F000022F3FF4D6AEDFF888E0DEE902010130AC
:1033000041F10001CEE90201122F3FF4CAAE21685B
:103310005F004FF0030E0EFA07FE6FEA0E0E01EA91
:103320000E01506800F00300B84001432160D2F85C
:1033300004C00CF1FF3101297FF6CFAEDFF84080E9
:10334000D8E90601013041F10001C8E90601BCF1EC
:10335000110F3FF4C2AED8E90801013041F100017C
:10336000C8E90801BCF1120F7FF4CFAEB5E6002129
:1033700043E7012141E702213FE703213DE700BF89
:10338000407900200038024000380140000002402F
:103390000004024000080240000C024000100240FD
:1033A0000014024000180240003C0140042124E7C0
:1033B000052122E7062120E70549D1E9262301322C
:1033C00043F10003C1E9262302B0BDE8F08100BF4C
:1033D0004079002010B40D4CD4E93E23013243F172
:1033E0000003C4E93E23036919420CD104F580713E
:1033F000D1E90023013243F10003C1E90023002099
:103400005DF8044B70470120FAE700BF40790020C7
:1034100052B9090481610949D1E90223013243F11A
:103420000003C1E90223704781610449D1E9002307
:10343000013243F10003C1E900237047487A0020BC
:1034400008B50248FEF700F908BD00BF640D002072
:1034500090F83E30DBB2402B22D00369B3F5804FA9
:103460003DD0036D002B5CD03749D1E908230132F0
:1034700043F10003C1E90823036D012B62D1026807
:10348000436CC3F3C81303F0060343F0F103136165
:10349000D1E90C23013243F10003C1E90C2351E0CF
:1034A000036D6BB90268436C03F0FE031361264998
:1034B000D1E90023013243F10003C1E9002341E0D7
:1034C0000268436C43F00103DBB213611E49D1E98A
:1034D0000223013243F10003C1E9022332E090F8F4
:1034E0003D30DBB2212B0ED00268436C43F0010368
:1034F000DBB213611449D1E90623013243F1000321
:10350000C1E906231EE00268436C03F0FE03136169
:103510000D49D1E90423013243F10003C1E9042339
:1035200010E00268436CC3F3C81303F0060343F0D2
:10353000F00313610449D1E90A23013243F1000386
:10354000C1E90A2300207047907A00200649D1E99A
:103550000E23013243F10003C1E90E230268436CDC
:10356000DBB2136100207047907A002070B48BB0FA
:1035700090F83E30DAB2C16A066B90F83D30DBB2AB
:10358000222B13D00023099303685A6909929B697F
:103590000993099B8449D1E93223013243F10003A5
:1035A000C1E9322300200BB070BC7047036D4BB9EA
:1035B0007D4BD3E91045013445F10005C3E91045C1
:1035C000402A27D0036D5BB9774CD4E9142301322C
:1035D00043F10003C4E914230369B3F5404F2AD033
:1035E000438D9BB2002B3DD1029303685A6902922E
:1035F0009A690292029A1A6842F400721A600023D1
:1036000003656949D1E93023013243F10003C1E97F
:103610003023C7E70023009303685A6900929B692F
:103620000093009B6049D1E91223013243F100036A
:10363000C1E91223B6E70023019303685A69019296
:103640009A690192019A1A6842F480721A60036DB5
:1036500001330365D4E91623013243F10003C4E9C1
:1036600016239FE7438D9BB2012B2BD0438D9BB23A
:10367000022B00F0B5800268136843F48063136086
:1036800003685A6812F4006F0BD05A6842F48052F3
:103690005A604549D1E92C23013243F10003C1E9C5
:1036A0002C230023089303685A6908929B690893A6
:1036B000089B3D49D1E92E23013243F10003C1E9C2
:1036C0002E239CE711F5803F2DD004296ED0364C77
:1036D000D4E91C23013243F10003C4E91C23082967
:1036E00064D0D4E91E23013243F10003C4E91E2350
:1036F000122E5BD0C36A022B48D00268136823F4F1
:10370000806313600023059303685A6905929B69DF
:103710000593059B2449D1E92223013243F100039B
:10372000C1E922236BE70268136823F48063136006
:1037300003685A6812F4006F14D01A6822F4806289
:103740001A600023039303685A6903929B690393E9
:10375000039B1549D1E91823013243F10003C1E964
:1037600018234CE7002204925A6904929A69049241
:10377000049A1A6842F400721A600B49D1E91A23BC
:10378000013243F10003C1E91A2338E702681368E4
:1037900043F4806313600449D1E92023013243F1EB
:1037A0000003C1E92023ADE7907A00200268136886
:1037B00023F4806313600023069303685A6906921A
:1037C0009A690692069A1A6842F400721A602349AE
:1037D000D1E92423013243F10003C1E924230EE798
:1037E000C36A022B2BD00268136823F48063136032
:1037F0000268136843F40063136003685A6812F4A4
:10380000006F0BD05A6842F480525A601349D1E9D4
:103810002823013243F10003C1E928230023079341
:1038200003685A6907929B690793079B0B49D1E983
:103830002A23013243F10003C1E92A23DFE60268AB
:10384000136843F4806313600449D1E926230132ED
:1038500043F10003C1E92623CFE700BF907A00209F
:103860000F49D1E93423013243F10003C1E9342384
:10387000438D9BB293B10268436A591C41621B7825
:103880001361438D9BB2013B9BB243850449D1E94F
:103890003623013243F10003C1E93623002070478B
:1038A000907A00200F49D1E93823013243F1000317
:1038B000C1E93823438D9BB28BB1436A5A1C4262E3
:1038C000026812691A70438D9BB2013B9BB243851B
:1038D000D1E93A23013243F10003C1E93A23002040
:1038E000704700BF907A00201149D1E93C23013292
:1038F00043F10003C1E93C2303685A6912F4806F65
:1039000014D06FF480625A610423036400230363BC
:10391000202280F83D2080F83C30D1E93E2301325E
:1039200043F10003C1E93E230120704700207047A6
:10393000907A0020F8B506460D4617462C49D1E985
:103940000023013243F10003C1E9002331684B69D0
:1039500013F0400F4AD12648D0E90A23013243F13F
:103960000003C0E90A234B6913F0100F1DD14DB3BA
:103970001F4CD4E90223013243F10003C4E90223BE
:10398000FEF73EFDD4E90423013243F10003C4E90C
:103990000423C01B854215D31549D1E90823013200
:1039A00043F10003C1E90823D0E76FF010034B6136
:1039B000002333643363202286F83D2086F83C30B0
:1039C0000120F8BD336C43F020033364202386F8D4
:1039D0003D30002386F83C300549D1E90623013209
:1039E00043F10003C1E906230320F8BD0020F8BD20
:1039F000907B0020F8B505460E4617463149D1E9BF
:103A00000C23013243F10003C1E90C232B685B69ED
:103A100013F0040F51D12B4CD4E90E23013243F1A2
:103A20000003C4E90E232846FFF75EFFD4E9002314
:103A3000013243F10003C4E9002300283FD1B6F16D
:103A4000FF3F07D1D4E90223013243F10003C4E967
:103A50000223DBE7E6B11B4CD4E90423013243F136
:103A60000003C4E90423FEF7CBFCD4E906230132AA
:103A700043F10003C4E90623C01B864208D3114961
:103A8000D1E90A23013243F10003C1E90A23B5E772
:103A90002B6C43F020032B6400232B63202285F83A
:103AA0003D2085F83C300749D1E90823013243F134
:103AB0000003C1E908230320F8BD0020F8BD012060
:103AC000F8BD00BFF87B0020F8B505460E46174646
:103AD0003149D1E90C23013243F10003C1E90C2340
:103AE0002B685B6913F0800F51D12B4CD4E90E2366
:103AF000013243F10003C4E90E232846FFF7F4FE28
:103B0000D4E90023013243F10003C4E90023002873
:103B10003FD1B6F1FF3F07D1D4E90223013243F18F
:103B20000003C4E90223DBE7E6B11B4CD4E904231C
:103B3000013243F10003C4E90423FEF761FCD4E938
:103B40000623013243F10003C4E90623C01B864269
:103B500008D31149D1E90A23013243F10003C1E935
:103B60000A23B5E72B6C43F020032B6400232B635F
:103B7000202285F83D2085F83C300749D1E908230B
:103B8000013243F10003C1E908230320F8BD0020FE
:103B9000F8BD0120F8BD00BF387C00202DE9F041C0
:103BA00004460D4616461F464349D1E90823013213
:103BB00043F10003C1E9082365E01A6842F400728A
:103BC0001A6023686FF480625A610423236400231F
:103BD0002363202284F83D2084F83C300120BDE896
:103BE000F081EEB1DFF8D080D8E90023013243F153
:103BF0000003C8E90023FEF703FCD8E902230132E1
:103C000043F10003C8E90223C01B864208D32A49B6
:103C1000D1E90623013243F10003C1E90623C3E7DA
:103C200000232363202284F83D2084F83C3022497D
:103C3000D1E90423013243F10003C1E90423032045
:103C4000BDE8F0812368596925EA010189B2003194
:103C500018BF01211848D0E90A23013243F10003BB
:103C6000C0E90A2321B31449D1E90E23013243F1FB
:103C70000003C1E90E2323685A6912F4806F9CD1B6
:103C8000B6F1FF3FADD1C5F30743012BDAD023686E
:103C9000996925EA010189B2003118BF012106485E
:103CA000D0E90C23013243F10003C0E90C23D9E72A
:103CB0000020BDE8F08100BF787C0020F8B5064602
:103CC0000C4617461D463449D1E90623013243F11B
:103CD0000003C1E9062347E0B5B1FEF791FB2E4989
:103CE000D1E90023013243F10003C1E90023069B1F
:103CF000C01A854208D32849D1E90423013243F18F
:103D00000003C1E90423DEE700233363202286F8A1
:103D10003D2086F83E3086F83C301F49D1E9022329
:103D2000013243F10003C1E902230320F8BD3368E7
:103D3000596924EA010189B2B1FA81F149091648A9
:103D4000D0E90823013243F10003C0E90823B94256
:103D50001FD11149D1E90C23013243F10003C1E91C
:103D60000C23B5F1FF3FB7D1C4F30743012BDED0DD
:103D70003368996924EA010189B2B1FA81F14909EC
:103D80000548D0E90A23013243F10003C0E90A23C0
:103D9000DDE70020F8BD00BFB87C00202DE9F0432E
:103DA00085B006460F46904699460D9D844CD4E951
:103DB0000023013243F10003C4E9002302681368C1
:103DC00043F4806313600268136843F480731360E4
:103DD00000950C9B00224FF00111FFF76FFFD4E913
:103DE0000223013243F10003C4E9022320B103237B
:103DF000184605B0BDE8F083D4E90423013243F14D
:103E00000003C4E904233368FFB207F0FE021A611D
:103E10002B460C9A6B493046FFF7C0FE98B1D4E9A7
:103E20000623013243F10003C4E90623336C042B5B
:103E300000F0F980D4E90A23013243F10003C4E918
:103E40000A230323D4E75E49D1E90823013243F171
:103E50000003C1E908230023039333685A690392DE
:103E60009B690393039B2A460C993046FFF72CFE6F
:103E7000D0B15349D1E90C23013243F10003C1E928
:103E80000C23336C042B01D00323B1E73268136891
:103E900043F400731360D1E90E23013243F10003B0
:103EA000C1E90E230123A3E7B9F1010F1FD0444953
:103EB000D1E91023013243F10003C1E91023336833
:103EC0004FEA18221A612A460C993046FFF7FCFD8A
:103ED00000283AD03A49D1E91423013243F10003D2
:103EE000C1E91423336C042B21D0032380E733680A
:103EF0005FFA88F21A613249D1E91223013243F1A3
:103F00000003C1E912232A460C993046FFF7DCFD75
:103F1000002835D02A49D1E91A23013243F10003A0
:103F2000C1E91A23336C042B1CD0032360E73268E9
:103F3000136843F400731360D1E91623013243F18F
:103F40000003C1E91623012352E732685FFA88F3C0
:103F500013611B49D1E91823013243F10003C1E980
:103F60001823D0E73268136843F400731360D1E973
:103F70001E23013243F10003C1E91E23012337E769
:103F80000F4CD4E91C23013243F10003C4E91C2384
:103F90003268136843F48073136000950C9B002211
:103FA0004FF001113046FFF789FED4E9202301329A
:103FB00043F10003C4E9202330B1032318E700BF15
:103FC000F07C002002000100D4E92223013243F1F9
:103FD0000003C4E92223336847F001071F612B4621
:103FE0000C9A13493046FFF7D9FDD4E92423013256
:103FF00043F10003C4E92423034600283FF4F8AE4C
:10400000D4E92623013243F10003C4E92623336CAB
:10401000042B0AD0D4E92823013243F10003C4E978
:1040200028230323E4E60123E2E60123E0E600BFC0
:10403000020001002DE9F04385B006460F46904688
:1040400099460D9D624CD4E90023013243F10003EF
:10405000C4E900230268136843F480731360009579
:104060000C9B00224FF00111FFF728FED4E9022338
:10407000013243F10003C4E9022320B103231846AF
:1040800005B0BDE8F083D4E90423013243F1000315
:10409000C4E90423336807F0FE071F612B460C9A1E
:1040A0004C493046FFF77AFD98B1D4E90623013236
:1040B00043F10003C4E90623336C042B00F086802F
:1040C000D4E90A23013243F10003C4E90A2303239C
:1040D000D5E73F49D1E90823013243F10003C1E9A3
:1040E00008230023039333685A6903929B6903935F
:1040F000039B2A460C993046FFF7E6FC0346D0B1F5
:104100003349D1E90C23013243F10003C1E90C2307
:10411000336C042B01D00323B1E73268136843F4F6
:1041200000731360D1E90E23013243F10003C1E9AA
:104130000E230123A3E7B9F1010F1FD02449D1E9D0
:104140001023013243F10003C1E9102333684FEA21
:1041500018221A612A460C993046FFF7B5FC03462F
:1041600038B31B49D1E91423013243F10003C1E9FB
:104170001423336C042B0ED0032380E732685FFADC
:1041800088F11161124AD2E91201013041F10001B6
:10419000C2E9120173E73268136843F400731360D5
:1041A000D1E91623013243F10003C1E916230123AB
:1041B00065E731685FFA88F20A61054AD2E91801B9
:1041C000013041F10001C2E9180158E7012356E727
:1041D000987D002002000100F8B57149D1E9002363
:1041E000013243F10003C1E90023002800F0D5802B
:1041F0000446D1E90223013243F10003C1E902235D
:1042000090F83D30002B51D0242384F83D302268B3
:10421000136823F00103136002F0E0F8614AA2FB87
:104220000032920C23685A60216865685E4B9D429B
:1042300051D801320A62216863685B4A93425CD8B4
:104240005B00B0FBF3F0C0F30B03032B40F2A18043
:10425000534DD5E90A23013243F10003C5E90A238E
:10426000C8612268E369216A0B43136022682369ED
:10427000E1680B43936022686369A1690B43D360D3
:104280002268136843F00103136000202064202398
:1042900084F83D30206384F83E004149D1E914237D
:1042A000013243F10003C1E91423F8BD0D46D1E901
:1042B0000423013243F10003C1E90423002380F801
:1042C0003C3009F025F9D5E90623013243F100031A
:1042D000C5E9062398E74FF4967303FB02F2334BCC
:1042E000A3FB0232920901322D4BD3E90867013654
:1042F00047F10007C3E908679CE7A5681DBB03EB0E
:104300004302B0FBF2F2C2F30B02B2FA82F252099C
:10431000DFF88CE0DEE90C67013647F10007CEE9F3
:104320000C67002A37D11DBB03EB4303B0FBF3F04E
:1043300040F400401A4DD5E91023013243F1000347
:10434000C5E910238CE703EB830202EB8202B0FB8A
:10435000F2F2C2F30B02B2FA82F25209DFF840E045
:10436000DEE90E67013647F10007CEE90E67D8E7B0
:1043700003EB830303EB8303B0FBF3F040F4404013
:10438000074DD5E91223013243F10003C5E9122399
:1043900066E7042064E7012062E70120F8BD00BF62
:1043A000107F002083DE1B43A0860100D34D6210E6
:1043B0002DE9F04383B005460F4690469946954C4B
:1043C000D4E90023013243F10003C4E90023FEF7DE
:1043D00017F8D4E90223013243F10003C4E90223B0
:1043E00095F83D30DBB2202B04D00223184603B0F1
:1043F000BDE8F0830646D4E90423013243F100030B
:10440000C4E9042300901923012283492846FFF7B9
:1044100055FCD4E90623013243F10003C4E9062325
:1044200008B10223E2E7D4E90823013243F1000393
:10443000C4E9082395F83C30012B00F00781D4E94A
:104440000A23013243F10003C4E90A23012385F85A
:104450003C302B681A6812F0010F0AD11A6842F03A
:1044600001021A60D4E90C23013243F10003C4E9CC
:104470000C232A68136823F400631360212385F852
:104480003D30402385F83E3000232B640A9B6B624D
:10449000BDF82C306B85614BEB626B8D2B850196E3
:1044A0000C9B00934B46424639462846FFF7C2FD17
:1044B00000283FD02B6C042B0CD0002385F83C3017
:1044C0005449D1E91023013243F10003C1E910231B
:1044D00003238BE7002385F83C304E49D1E90E23B6
:1044E000013243F10003C1E90E2301237EE749496C
:1044F000D1E91223013243F10003C1E912232B6CED
:10450000042B01D0032371E72A68136843F4007376
:104510001360D1E91423013243F10003C1E91423EC
:10452000012363E73B49D1E91A23013243F1000338
:10453000C1E91A232B8D002B41D03649D1E91C2328
:10454000013243F10003C1E91C2332460C9928468D
:10455000FFF7BAFA0028CAD12A686B6A591C696247
:104560001B781361298D013989B229856B8D9BB226
:10457000013B9BB26B852868436913F0040FD1D0CF
:10458000244CD4E91623013243F10003C4E9162375
:104590000029C7D06B6A5A1C6A621B7803612B8D95
:1045A000013B2B856B8D9BB2013B9BB26B85D4E9A4
:1045B0001823013243F10003C4E91823B2E7154977
:1045C000D1E91E23013243F10003C1E91E23324623
:1045D0000C992846FFF70EFA034608B30D49D1E9B6
:1045E0002023013243F10003C1E920232B6C042B6B
:1045F00001D00323FAE62A68136843F400731360BA
:10460000D1E92223013243F10003C1E9222301232E
:10461000ECE600BF80850020020010000000FFFFD4
:1046200029680A6842F400720A60202285F83D2059
:10463000002285F83E2085F83C20054AD2E9240175
:10464000013041F10001C2E92401CFE60223CDE6A9
:10465000808500202DE9F04387B005460F4690463F
:104660009946904CD4E90023013243F10003C4E998
:104670000023FDF7C5FED4E90223013243F1000314
:10468000C4E9022395F83D30DBB2202B04D002248C
:10469000204607B0BDE8F0830646D4E90423013282
:1046A00043F10003C4E904230090192301227E4949
:1046B0002846FFF703FBD4E90623013243F1000348
:1046C000C4E9062308B10224E2E7D4E90823013251
:1046D00043F10003C4E9082395F83C30012B00F0B6
:1046E0000E82D4E90A23013243F10003C4E90A230C
:1046F000012385F83C302B681A6812F0010F0AD1AB
:104700001A6842F001021A60D4E90C23013243F125
:104710000003C4E90C232A68136823F400631360C0
:10472000222385F83D30402385F83E3000232B645A
:104730000E9B6B62BDF83C306B855C4BEB626B8D06
:104740002B850196109B00934B46424639462846DE
:10475000FFF724FB0446E0B12B6C042B0CD00023A4
:1047600085F83C304F49D1E91023013243F1000371
:10477000C1E9102303248BE7002385F83C30494925
:10478000D1E90E23013243F10003C1E90E230124D4
:104790007EE72B8D5BB902932B685A6902929A6966
:1047A0000292029A1A6842F400721A60C9E0012B60
:1047B00012D0022B2AD0002305932B685A69059248
:1047C0009B690593059B3749D1E91623013243F1D3
:1047D0000003C1E91623B4E02A68136823F4806358
:1047E0001360002303932B685A6903929A6903921A
:1047F000039A1A6842F400721A602A49D1E9122316
:10480000013243F10003C1E912239AE02A681368D8
:1048100023F4806313602A68136843F40063136011
:10482000002304932B685A6904929B690493049BA8
:104830001C49D1E91423013243F10003C1E91423D7
:104840007FE0D0E91823013243F10003C0E91823C7
:10485000324610992846FFF76DF870B96B6A5A1CFA
:104860006A622A6812691A702B8D013B2B856B8D49
:104870009BB2013B9BB26B855BE00A49D1E91A23ED
:10488000013243F10003C1E91A232B6C202B00F005
:104890003881D1E91C23013243F10003C1E91C2313
:1048A0000124F5E618860020020010000000FFFF3A
:1048B000994FD7E91E23013243F10003C7E91E23B4
:1048C0000096109B002295492846FFF7F7F9D7E993
:1048D0002223013243F10003C7E92223002840F0DC
:1048E00012812A68136843F4007313606B6A5A1CC0
:1048F0006A622A6812691A702B8D013B2B856B8DB9
:104900009BB2013B9BB26B856B6A5A1C6A622A6838
:1049100012691A702B8D013B2B856B8D9BB2013B6D
:104920009BB26B85D7E92423013243F10003C7E929
:1049300024237949D1E93623013243F10003C1E947
:104940003623298D002900F0C9807348D0E9382327
:10495000013243F10003C0E93823032971D801294A
:104960003FF46FAF0229A3D06B4FD7E92023013268
:1049700043F10003C7E920230096109B00226749FA
:104980002846FFF79BF9D7E92623013243F10003BC
:10499000C7E92623002840F0B880D7E92823013250
:1049A00043F10003C7E928232A68136823F48063CE
:1049B00013606B6A5A1C6A622A6812691A702B8D1E
:1049C000013B2B856B8D9BB2013B9BB26B850096A7
:1049D000109B002251492846FFF770F9D7E92A2396
:1049E000013243F10003C7E92A23002840F08F80F9
:1049F0002A68136843F4007313606B6A5A1C6A6276
:104A00002A6812691A702B8D013B2B856B8D9BB226
:104A1000013B9BB26B856B6A5A1C6A622A681269F9
:104A20001A702B8D013B2B856B8D9BB2013B9BB28A
:104A30006B85D7E92C23013243F10003C7E92C230E
:104A400077E7324610992846FEF774FF002831D1E7
:104A50003149D1E93023013243F10003C1E9302368
:104A60006B6A5A1C6A622A6812691A702B8D013BA4
:104A70002B856B8D9BB2013B9BB26B852B685A6972
:104A800012F0040F3FF455AF6A6A511C69621B694A
:104A900013702B8D013B2B856B8D9BB2013B9BB221
:104AA0006B851D49D1E93423013243F10003C1E98B
:104AB00034233EE71849D1E92E23013243F10003A4
:104AC000C1E92E232B6C202B23D0D1E932230132D4
:104AD00043F10003C1E932230124D9E5202385F8FD
:104AE0003D30002385F83E3085F83C300A49D1E955
:104AF0003A23013243F10003C1E93A23C8E5022415
:104B0000C6E50324C4E50324C2E50324C0E5032469
:104B1000BEE50324BCE500BF1886002004000100A8
:104B2000F0B583B01E46BDF824304F4FD7E900459D
:104B3000013445F10005C7E900450024019490F8CF
:104B40003D40E4B2202C02D0022003B0F0BD474C1F
:104B50002468E408464DA5FB0454240A04EB8404AD
:104B600004EB84040194019C651E01956CB10768F7
:104B7000BC6914F0020F19D03B4FD7E90645013448
:104B800045F10005C7E90645EDE700230363202250
:104B900080F83D2080F83C303349D1E902230132CE
:104BA00043F10003C1E902230320CEE7DFF8B8E0B8
:104BB000DEE90445013445F10005CEE9044590F8ED
:104BC0003C40012C4CD0DEE90845013445F100059C
:104BD000CEE90845012480F83C403C6814F0010F00
:104BE0000AD13C6844F001043C60DEE90A45013426
:104BF00045F10005CEE90A4505682C6824F40064F7
:104C00002C60222480F83D40402480F83E4000245F
:104C10000464089D456203854385164BC362416465
:104C20008264C66404650268136843F48063136099
:104C30000268136843F48073136080F83C40038D6E
:104C400083B10268536843F4E06353600649D1E9D5
:104C50000C23013243F10003C1E90C23204674E721
:104C6000022072E7002070E738870020B04E002055
:104C700089B5F8140000FFFF0449D1E9002301328F
:104C800043F10003C1E90023704700BF0089002001
:104C90000449D1E90023013243F10003C1E90023B3
:104CA000704700BF088900200449D1E90023013280
:104CB00043F10003C1E90023704700BF10890020C1
:104CC0002749D1E90023013243F10003C1E9002360
:104CD00090F83D30D9B2438D9BB2002B3DD010B53A
:104CE0001F4CD4E90223013243F10003C4E902233B
:104CF0000268436A5C1C44621B781361438D9BB25B
:104D0000013B9BB24385438D9BB24BB9144CD4E914
:104D10000423013243F10003C4E90423292901D00B
:104D2000002010BDD4E90623013243F10003C4E999
:104D300006230268536823F48063536021230363CE
:104D4000282380F83D30FFF7AFFFD4E90823013274
:104D500043F10003C4E90823E2E70020704700BFE5
:104D6000188900200449D1E90023013243F10003EE
:104D7000C1E90023704700BF408900202649D1E9DE
:104D80000023013243F10003C1E9002390F83D30D4
:104D9000D9B2438D9BB2002B3CD010B51E4CD4E948
:104DA0000223013243F10003C4E90223436A5A1C7F
:104DB0004262026812691A70438D9BB2013B9BB23A
:104DC0004385438D9BB243B9D4E90423013243F1B7
:104DD0000003C4E904232A2901D0002010BDD4E92E
:104DE0000623013243F10003C4E906230268536835
:104DF00023F48063536022230363282380F83D302B
:104E0000FFF7B0FFD4E90823013243F10003C4E9FE
:104E10000823E2E700207047488900200449D1E9CF
:104E20000023013243F10003C1E90023704700BFB2
:104E30007089002038B503689A6912F0040F21D1F7
:104E4000164AD2E90045013445F10005C2E90045A2
:104E500001219B6913F0800F16D0028B0F4BD3E911
:104E60000445013445F10005C3E90445FFF7D6FFC9
:104E70000A49D1E90623013243F10003C1E90623BF
:104E8000002038BD0021E4E78289044BD3E90245C4
:104E9000013445F10005C3E90245E7E778890020C0
:104EA0000449D1E90023013243F10003C1E90023A1
:104EB000704700BF988900200449D1E900230132DE
:104EC00043F10003C1E90023704700BFD8890020E7
:104ED00038B54D49D1E90023013243F10003C1E95E
:104EE0000023C26A90F83D30DBB2212B01D00020B4
:104EF00038BD438D9BB2002B3ED1042A13D0424BC8
:104F0000D3E90445013445F10005C3E90445082A05
:104F100009D0D3E90645013445F10005C3E906454A
:104F200012F5803F3CD10268536823F4E06353607C
:104F30000268136843F400731360002303632023A3
:104F400080F83D3090F83E30DBB2402B47D02E4CFD
:104F5000D4E90E23013243F10003C4E90E230023F8
:104F600080F83E30FFF788FED4E91223013243F186
:104F70000003C4E91223BAE70268436A591C41627C
:104F80001B781361438D9BB2013B9BB243851E4945
:104F9000D1E90223013243F10003C1E90223A6E76C
:104FA0001C46D3E90823013243F10003C4E9082376
:104FB0000268536823F4E063536011230363002302
:104FC00080F83E30202380F83D30FFF755FED4E9CD
:104FD0000A23013243F10003C4E90A2387E70A4C9C
:104FE000D4E90C23013243F10003C4E90C2300236C
:104FF00080F83E30FFF760FFD4E91023013243F11F
:105000000003C4E9102372E7E089002070B59649D7
:10501000D1E90023013243F10003C1E9002390F8F4
:105020003D30DBB290F83E20D1B2C66A028D4AB95B
:105030008D4AD2E90245013445F10005C2E9024535
:10504000212B0ED0212B00F08880874AD2E914450D
:10505000013445F10005C2E91445402974D000200F
:1050600070BD042E13D01146D2E90423013243F15E
:105070000003C1E90423082E09D0D1E90623013237
:1050800043F10003C1E9062316F5803F28D10268E9
:10509000536823F4E06353600268136843F40073B9
:1050A000136000230363202380F83D3090F83E30E6
:1050B000DBB2402B33D06C4CD4E90E23013243F1E8
:1050C0000003C4E90E23002380F83E30FFF7D4FD2F
:1050D000D4E91223013243F10003C4E91223BEE7ED
:1050E0000C46D1E90823013243F10003C1E908234A
:1050F0000268536823F4E0635360112303630023C1
:1051000080F83E30202380F83D30FFF7B5FDD4E92C
:105110000A23013243F10003C4E90A239FE7524CFA
:10512000D4E90C23013243F10003C4E90C2300232A
:1051300080F83E30FFF7C0FED4E91023013243F17E
:105140000003C4E910238AE7D2E91645013445F18A
:105150000005C2E91645222B81D1438D9BB2C3B114
:1051600090F83E30DBB2402B21D00268436A591CD4
:1051700041621B781361438D9BB2013B9BB2438517
:105180003949D1E92823013243F10003C1E9282339
:1051900065E70268536823F4806353603249D1E9BC
:1051A0001823013243F10003C1E9182357E7036DC7
:1051B0001BBBC36C012B10D00268836CC3F30723A5
:1051C0001361036D013303652749D1E91C230132C3
:1051D00043F10003C1E91C2341E70268836CDBB2A1
:1051E0001361036D023303651F49D1E91A230132AC
:1051F00043F10003C1E91A2331E7036D012B35D0D8
:105200001949D1E91E23013243F10003C1E91E23EC
:10521000036D022B7FF423AF90F83D30DBB2222BDD
:1052200034D01149D1E92223013243F10003C1E90D
:10523000222390F83D30DBB2212B7FF410AF0268BF
:10524000436A591C41621B781361438D9BB2013B39
:105250009BB243850449D1E92623013243F100037F
:10526000C1E92623FBE600BF308A00200268836C78
:10527000DBB21361036D013303650B49D1E92023D0
:10528000013243F10003C1E92023E8E60268136814
:1052900043F480731360D1E92423013243F1000306
:1052A000C1E92423DBE600BF308A0020C26A438DB7
:1052B0009BB2042B1CD0438D9BB2032B31D0438D6A
:1052C0009BB2022B4BD0436A5A1C4262026812699D
:1052D0001A70438D9BB2013B9BB24385564951E9FD
:1052E0001C23013243F1000341E91C2300207047D5
:1052F0000268536823F480635360436A5A1C426215
:10530000026812691A70438D9BB2013B9BB24385C0
:10531000494951E92A23013243F1000341E92A2393
:10532000E4E70268536823F48063536002681368FB
:1053300023F480631360436A5A1C42620268126954
:105340001A70438D9BB2013B9BB243853A4951E9A8
:105350002823013243F1000341E92823C6E710B5B1
:10536000013A012A47D90268136843F400731360B5
:10537000314951E92623013243F1000341E9262353
:10538000436A5A1C4262026812691A70438D9BB2CA
:10539000013B9BB24385436A5A1C42620268126910
:1053A0001A70438D9BB2013B9BB2438502685368E0
:1053B00023F440735360202380F83D3000230363BF
:1053C00090F83E30DBB2402B20D01B4C54E9222316
:1053D000013243F1000344E92223002380F83E30E8
:1053E000FFF756FC54E91E23013243F1000344E960
:1053F0001E23002010BD0268136823F4806313602D
:105400000268136843F480731360B9E70A4C54E9E7
:105410002423013243F1000344E92423002380F8CC
:105420003E300BF005F854E92023013243F100032C
:1054300044E92023DDE700BF888B002038B54449CC
:1054400051E91A23013243F1000341E91A2390F88C
:105450003D30DBB2222B01D0002038BD438D9BB202
:10546000032B22D951E91823013243F1000341E90A
:105470001823436A5A1C4262026812691A70438DEB
:105480009BB2013B9BB24385438D9BB2032BE3D17F
:105490000268536823F48063536051E91423013296
:1054A00043F1000341E91423D6E7294A52E916459E
:1054B000013445F1000542E91645012BCCD80268BC
:1054C000136823F4806313600268536823F4E06375
:1054D0005360436A5A1C4262026812691A70438D13
:1054E0009BB2013B9BB24385202380F83D300023D3
:1054F000036390F83E30DBB2402B14D0144C54E9D7
:105500001023013243F1000344E91023002380F803
:105510003E30FFF7BDFB54E90C23013243F1000399
:1055200044E90C2398E70A4C54E91223013243F171
:10553000000344E91223002380F83E300AF078FF8C
:1055400054E90E23013243F1000344E90E2383E7BB
:10555000888B0020044951E90A23013243F10003FA
:1055600041E90A23704700BF888B00200449D1E934
:105570001223013243F10003C1E91223704700BF37
:10558000888B002010B5806B0268136823F4806359
:10559000136000234385426B1365826B136590F89B
:1055A0003D30DBB2602B1CD01D4CD4E916230132F8
:1055B00043F10003C4E91623202380F83D30002383
:1055C00080F83E300268136823F001031360FFF790
:1055D000C1FFD4E91A23013243F10003C4E91A23BD
:1055E00010BD0F4CD4E91423013243F10003C4E988
:1055F0001423202380F83D30002380F83E300364DC
:105600000268136823F001031360FFF7AFFFD4E9CA
:105610001823013243F10003C4E9182310BD00BF71
:10562000888B002038B5044690F83D30293B012B8B
:1056300065D990F83D30DBB2602B16D08E49D1E9A8
:105640001C23013243F10003C1E91C2303685B689A
:1056500013F4006F09D1202380F83D30D1E91E23D7
:10566000013243F10003C1E91E230023236384F8C0
:105670003E308149D1E92023013243F10003C1E9E1
:1056800020232268136823F40063136023685A6898
:1056900012F4006F7CD05A6822F400625A60616B89
:1056A00091F83530DBB2012B2FD0734DD5E9222391
:1056B000013243F10003C5E92223704B0B65606B97
:1056C000FDF756FAD5E92623013243F10003C5E977
:1056D0002623002800F08580D5E92823013243F1F4
:1056E0000003C5E928232268136823F0010313602F
:1056F000202384F83D30606B036D984771E00023F0
:105700000363282380F83D30BBE75B4DD5E92423B4
:10571000013243F10003C5E92423A36B574A1A65FC
:10572000A06BFDF725FAD5E92A23013243F10003E6
:10573000C5E92A23002854D0D5E92C23013243F1AE
:105740000003C5E92C2323685A6912F0400F0BD0DF
:10575000626A511C61621B691370D5E92E23013204
:1057600043F10003C5E92E232268136823F00103E7
:105770001360202384F83D30A06B036D98473E49A9
:10578000D1E93023013243F10003C1E9302328E09D
:1057900094F83D20D2B2602A31D0374AD2E93401A0
:1057A000013041F10001C2E934015A6912F0400FA1
:1057B0000CD0626A511C61621B6913702E49D1E9D9
:1057C0003A23013243F10003C1E93A232046FFF7AF
:1057D000C1FE2949D1E93C23013243F10003C1E96B
:1057E0003C2394F83D30DBB2282B37D02449D1E953
:1057F0000023013243F10003C1E9002338BD1E4AF2
:10580000D2E93201013041F10001C2E93201202226
:1058100084F83D20002222645A6912F0400F0CD017
:10582000626A511C61621B6913701349D1E9362306
:10583000013243F10003C1E936232268136823F0E3
:10584000010313602046FFF791FE0B49D1E938238D
:10585000013243F10003C1E93823C2E70649D1E927
:105860003E23013243F10003C1E93E23236C13F0D0
:10587000040F07D138BD00BF888B00208555000874
:10588000888C00200D4601F58471D1E90023013296
:1058900043F10003C1E900230A4BE36200232363C1
:1058A000202284F83D2084F83E302046FFF7F8FAA5
:1058B00005F58875D5E90023013243F10003C5E9F8
:1058C0000023D7E70000FFFF30B583B090F83D30EC
:1058D000DBB201684A6822F4E0624A600022019269
:1058E000026851690191116841F001011160019A4A
:1058F00001680A6822F480620A6001684A6812F44A
:10590000006F20D090F83D20D2B2222A00F095807E
:105910006E4AD2E90045013445F10005C2E900456F
:1059200090F83D20D2B22A2A00F08780426B12689C
:10593000526892B24285654AD2E90445013445F184
:105940000005C2E90445428D92B2002A38D04A6966
:1059500012F0040F11D0426A541C4462096911709C
:10596000428D92B2013A92B24285584AD2E9064536
:10597000013445F10005C2E906450268516911F09C
:10598000400F11D0416A4C1C446212690A70428D6A
:1059900092B2013A92B242854C4AD2E908450134AA
:1059A00045F10005C2E90845026C42F004020264B8
:1059B000464AD2E90A45013445F10005C2E90A45E3
:1059C000026C002A47D1414AD2E90E45013445F123
:1059D0000005C2E90E45282B4FD0D2E9124501340B
:1059E00045F10005C2E912452A2B46D0D2E91445FB
:1059F000013445F10005C2E91445292B3DD0334A55
:105A0000D2E91645013445F10005C2E91645026B9D
:105A1000222A48D02D4AD2E91A45013445F1000521
:105A2000C2E91A45222B3ED01146D2E91C2301328D
:105A300043F10003C1E91C2332E0826B1268526813
:105A400092B24285214AD2E90245013445F100056E
:105A5000C2E9024577E71D4CD4E90C23013243F13A
:105A60000003C4E90C23FFF7DDFDD4E91023013264
:105A700043F10003C4E9102312E0154BC362002375
:105A80000363202280F83D2080F83E30FFF708FABB
:105A90000E49D1E91823013243F10003C1E918236B
:105AA000002003B030BD00230363202280F83D2096
:105AB00080F83E30FFF756F90449D1E91E23013240
:105AC00043F10003C1E91E23EAE700BFA08C0020D8
:105AD0000000FFFF2DE9F04105469749D1E9002379
